:1000000000000420750300005D0300002983000048
:1000100061030000630300006503000000000000AE
:100020000000000000000000000000005503020076
:100030006903000000000000790302006D03000066
:10004000E5DF00006F030000F5DF0000714C0100E8
:10005000894C01006F03000041DA0000E93801001B
:1000600089350100A1350100B93501000D8300007B
:100070006F0300006F0300006F0300006F030000B8
:100080006F0300002D0802006F0300006F030000E3
:100090006F0300006F0300006F0300006F03000098
:1000A0006F0300006F0300006F0300006F03000088
:1000B0006F0300006F03000000000000000000005C
:1000C0006F0300006F0300006F030000D15A0100AE
:1000D0006F0300006F0300006F030000691D010043
:1000E0006F03000029E100006F0300000000000022
:1000F000000000006F030000000000006F0300001C
:1001000000000000000000000000000000000000EF
:1001100000000000000000000000000000000000DF
:1001200000000000000000000000000000000000CF
:1001300000000000000000000000000000000000BF
:1001400000000000000000000000000000000000AF
:10015000000000000000000000000000000000009F
:10016000000000000000000000000000000000008F
:10017000000000000000000000000000000000007F
:10018000000000000000000000000000000000006F
:10019000000000000000000000000000000000005F
:1001A000000000000000000000000000000000004F
:1001B000000000000000000000000000000000003F
:1001C000000000000000000000000000000000002F
:1001D000000000000000000000000000000000001F
:1001E000000000000000000000000000000000000F
:1001F00000000000000000000000000000000000FF
:10020000354936480A1A02D0072291438D463449AF
:1002100034480A1A06D00722914381F30988022242
:1002200082F3148830483149314A00F044F83148AB
:100230003149324A00F03FF831483249324A00F041
:100240003AF832483249334A00F035F832483349F7
:10025000334A00F030F833483349344A00F02BF881
:1002600033483449344A00F026F8344834490022EF
:1002700000F02CF833483449002200F027F83348C6
:100280003349091A082902DB002202604160314A21
:1002900090471F481F49884205D00268043003B4C4
:1002A000904703BCF7E700208646EC46002000217B
:1002B000294A9047FEE7884207D0521A05D00378B2
:1002C00001300B700131013AF9D17047884202D0F8
:1002D00002700130FAE770470000042000E00320BC
:1002E0000000042000000420A07103000000002092
:1002F0001C010020D0030000D003000034390200AC
:10030000A07103000000002000000020083A020055
:10031000083A0200083A0200083A0200083A0200CD
:10032000083A0200083A0200083A0200A0710300ED
:10033000BC7203001C0100201C0100201C010020D5
:1003400064240120642401206C2401206C240120F9
:100350006C4401209D03000081680100FEE7FEE778
:10036000FEE7FEE7FEE7FEE7FEE7FEE7FEE7FEE765
:1003700000F002B8FFF7FCBF0F484FF007018843B9
:1003800085460E4880470E48016841F470010160BF
:10039000BFF34F8FBFF36F8FFFF732BF09480A4992
:1003A0000A4A884207D0521A05D0037801300B70F0
:1003B0000131013AF9D17047000004209DE00100AD
:1003C00088ED00E0083A0200000000200000002054
:1003D000004870475C24012000B5A1B0059004914D
:1003E00003920293049809F000FA039B1593029B71
:1003F00016930023179300238DF860300023199380
:10040000229B1A9300231F930FA91F9B0C22049871
:1004100009F0C4FA0C231F93119B1293BDF84030CE
:10042000ADF84C30BDF84230ADF84E3000238DF8B9
:1004300051309DF83C3003F00303DBB2012B26D191
:100440000F9BC3F395231C939DF83C30C3F3C20369
:10045000DBB28DF85030BDF83C30C3F38313DBB210
:100460001B931B9B9A0009A91F9B049809F096FAFD
:100470001B9B9B001F9A13441F9312AA09A915AB3B
:10048000009313461B9A1C9800F098FF2FE09DF8EC
:100490003C3003F00303DBB2022B28D1BDF83E3021
:1004A000C3F389139BB21E939DF83C30C3F3C20380
:1004B000DBB28DF850301E9B082B28BF08231D93FC
:1004C00007A91F9B1D9A049809F068FA1F9A1D9BA3
:1004D00013441F931E9A1D9BD31A1E9315AB12AA89
:1004E00007A81D9901F00CF81E9B002BE3D104987E
:1004F00009F08AF900BF21B05DF804FB00B583B0B4
:100500000190019B1B781A460C4B9B5C002B05D07D
:10051000019B043318460FF083F80BE0019B1B7816
:100520001A46064B9B5C002B04D1019B0C331846EA
:100530000EF0FEF900BF03B05DF804FBF0090020E7
:1005400000B587B00390029113468DF80730002361
:100550000593039B1B781A46114B9B5C002B09D01B
:10056000039B04339DF80720029918460FF0BAF850
:1005700005900FE0039B1B781A46094B9B5C002BF0
:1005800008D1039B0C339DF80720029918460EF002
:1005900047FA0590059B184607B05DF804FB00BFBD
:1005A000F009002082B001900091034B01221A70E3
:1005B00000BF02B0704700BF5C01002030B58DB0B5
:1005C00003468DF807301A4B02AC1D460FCD0FC401
:1005D00095E80F0084E80F00062302934FF0FF33E5
:1005E00003934FF0FF3304934FF0FF3305934FF025
:1005F000EB7308939DF80730002B01D00D4A00E003
:10060000002202AB19460C480CF070F80B900B9BC3
:100610000A930A9B002B04D0084A43210A9801F050
:1006200033F8074A9DF80730137000BF0DB030BD96
:10063000703A0200A505000000000020083A020000
:100640005D01002000B589B0039002910192019BE9
:100650008DF81F30124B00221A709DF81F301A4679
:1006600002991048FFF76CFF0690069B0593059BC7
:10067000002B04D00C4A5321059801F005F800BF67
:100680000A4B1B78002B07D0054B1B78DBB283F09D
:100690000103DBB2002BF3D100BF09B05DF804FB0E
:1006A0005C01002000000020083A02005D010020EB
:1006B00000B585B003900291054B00934023054A95
:1006C00002990398FFF788FE00BF05B05DF804FBB0
:1006D000450600001C01002082B0019000BF02B05E
:1006E0007047000000B583B001900548FFF706FF92
:1006F0000020FFF763FF00BF03B05DF804FB00BFFD
:100700000000002000B583B001900091019B1B68A0
:100710001B6800990198984700BF03B05DF804FB7F
:1007200000B583B00190019B1B685B6801989847F6
:1007300000BF03B05DF804FB00B583B00190019BDE
:100740001B689B680198984700BF03B05DF804FBE5
:1007500082B00190019BDB6801225A7100BF02B098
:10076000704782B00190019BDB685B79184602B04C
:1007700070470000024A034BD31ADB081846704743
:10078000E43902003439020000B587B001900B460D
:100790008DF803309DF80330002B1FD0FFF7EAFFE0
:1007A00004900023059313E0059B9B000E4A13441D
:1007B0000393039B1B881A46019B1B689A4204D132
:1007C000019B059A1A60002309E0059B01330593FC
:1007D000059A049B9A42E7D3052300E000231846BC
:1007E00007B05DF804FB00BF0000002000B585B035
:1007F00001900B468DF803309DF8032001AB1146A4
:100800001846FFF7C1FF0346002B07D1019BDB0011
:10081000054A13440393039B1B6800E0002318461A
:1008200005B05DF804FB00BF3439020084B00190CC
:100830000B468DF80330019BDB00174A13440293EB
:100840009DF80330013B032B1CD801A252F823F082
:100850006108000069080000710800007B080000C2
:1008600002238DF80F3011E004238DF80F300DE0D6
:10087000029B1B798DF80F3008E0029B5B798DF8A5
:100880000F3003E000238DF80F3000BF9DF80F30CC
:10089000184604B0704700BF3439020084B001909C
:1008A000009100238DF80F30019B1B7803F00403A7
:1008B000DBB2002B24D0019B1B78C3F30103DBB216
:1008C000012B02D0022B0CD017E0009B1B68019A71
:1008D0001288C2F38312D2B21344DA1C009B1A604E
:1008E0000BE0009B1B68019A5288C2F3891292B2F6
:1008F0001344DA1C009B1A6000BF01238DF80F30EF
:100900009DF80F30184604B07047000000B58BB05A
:100910000023ADF826303E4807F0BDFF3D4807F004
:10092000BAFF3D4B9B6804933C4B1B680693049AAB
:10093000069B134002339B00374A13440433089349
:1009400004AB19460898FFF7A9FF0346002B09D00E
:10095000049A069B134002339B002F4A134404332E
:100960000893EDE700BF0023079311E0049B5A1C96
:100970000492069A1340079A920001A90A44264954
:1009800002339B000B445B681360079B01330793A2
:10099000079B022BEAD99DF80430C3F30103DBB2B5
:1009A000012B10D0022B1CD1BDF80A30ADF8263037
:1009B000BDF80630C3F389139BB203339A08049B36
:1009C0001344049313E0BDF80A30ADF82630BDF8A7
:1009D0000430C3F38313DBB21A46049B134404931D
:1009E00005E00F494FF4C27007F0ACFD00BF0948A5
:1009F00007F05DFF0590059B002B02D0049B064A83
:100A00009360BDF8263018460BB05DF804FB00BFBC
:100A10004806002044060020300200201C00002070
:100A2000203B020000B585B00021074807F0A2FE78
:100A30000390039B0293029B83F310030193019B9A
:100A4000184605B05DF804FB4C06002010B588B0D0
:100A50000390029101920093039B1B0C0793FFF7F5
:100A6000E1FF0690FFF786FE0246079B934204D300
:100A7000284940F2A91007F065FD069B1904009B68
:100A80005A1C0A9B1340079A0A43234902339B00CE
:100A90000B445A60204BD3F80C34009A911C0A9AEC
:100AA00001EA0204984702461B49A31C9B000B4421
:100AB0005A60009A0A9B134002339B00164A134463
:100AC00004330593039B03F00703D9B2059A137807
:100AD00061F3C5031370019B03F00F03D9B2059AAC
:100AE000138861F389131380029BC3F31501059AE0
:100AF000136861F39F231360059A1378012161F352
:100B000001031370059A13786FF38203137000BF0B
:100B100008B010BD203B02003002002000BF70472B
:100B200000B58BB00390029113468DF80730039BFC
:100B30000333089301238DF81F30002007F082FB58
:100B40003E4B5A68029B1A603D4B1A683B4B9968B2
:100B50003A4B5B68CB1A13440133099314E001212B
:100B6000384807F04EFEFFF7D1FE0590059935484D
:100B700007F047FE324B1A68304B99682F4B5B6881
:100B8000CB1A134401330993089A099B9A42E6D879
:100B90009DF81F30002B48D0002304939DF80730A8
:100BA000002B17D09DF81030012262F301038DF85D
:100BB00010309DF8103043F004038DF81030039B83
:100BC00003F00F03DAB2BDF8103062F38913ADF809
:100BD000103016E09DF81030022262F301038DF808
:100BE00010309DF8103043F004038DF81030039B53
:100BF000C3F309039AB2BDF8123062F38F13ADF854
:100C000012300E4B5A680E4B1B68134002339B0088
:100C10000A4A134404330693049A069B1A60074B4E
:100C20005A68089B1344054A5360002007F01EFBD6
:100C30009DF81F3018460BB05DF804FB3002002011
:100C40001C0000204C06002000B58BB005900491DC
:100C500003920293204B1B68079306AB01221946AF
:100C60000298FFF75DFF0346002B24D0069B033359
:100C700009930023089311E0089B9B00039A1A44F0
:100C8000099B591C099107990B40126813490233BB
:100C90009B000B445A60089B01330893089A029BFF
:100CA0009A42E9D3069A079B00931346029A049945
:100CB0000598FFF7CBFE094B1B78002B05D000BF32
:100CC00000F098F80346002BFAD1FFF727FF00BF8A
:100CD0000BB05DF804FB00BF1C00002030020020B8
:100CE00000B583B001900091002300220099019883
:100CF000FFF7AAFF00BF03B05DF804FB00B587B0A3
:100D0000039002910192019B059305AA0123029988
:100D10000398FFF799FF00BF07B05DF804FB00B52B
:100D200087B00390029101920093019B0493009B72
:100D3000059304AA022302990398FFF785FF00BFD9
:100D400007B05DF804FB00B589B0039002910192F1
:100D50000093019B0593009B06930A9B079305AAAA
:100D6000032302990398FFF76FFF00BF09B05DF8F6
:100D700004FB00B589B00390029101920093019B9E
:100D80000493009B05930A9B06930B9B079304AA6D
:100D9000042302990398FFF757FF00BF09B05DF8DD
:100DA00004FB00B58BB00390029101920093019B6C
:100DB0000593009B06930C9B07930D9B08930E9B3A
:100DC000099305AA052302990398FFF73DFF00BF89
:100DD0000BB05DF804FB0000054B9A68044B5B68A0
:100DE0009A420CBF01230023DBB21846704700BFB4
:100DF0003002002000B599B0FFF7EEFF0346002B4C
:100E000001D00023B9E19B4B0022C3F81824BFF3A3
:100E10004F8F00BF974B9B680493974B1B681093B1
:100E2000049A109B134002339B00924A13440433EC
:100E30001193002317930023169300230F9304AB01
:100E400019461198FFF72AFD0346002B19D0894B4C
:100E5000D3F81834002B14D1864B5A68049B9A425D
:100E600005D8844B5B68834A9360002385E1049A2C
:100E7000109B134002339B007E4A134404331193AA
:100E8000DDE70023159311E0049B5A1C0492109A8D
:100E90001340159A920001A90A44764902339B0037
:100EA0000B445B681360159B01331593159B022B54
:100EB000EAD99DF8043003F00303DBB2022B40F0C3
:100EC0009C80BDF80630C3F389139BB20D93BDF827
:100ED0000630C3F389139BB2502B28BF50239BB21B
:100EE0000C930C9BC3F309039AB2BDF8063062F36E
:100EF0008F13ADF806300C9B0C330B939DF8043028
:100F0000C3F3C203DBB20F930B995C4808F0DCFB20
:100F10001790179B002B00F0D380179808F065FC02
:100F200001A9169B0C22179808F01AFD169B0C338A
:100F30001693049BDA43109B134001339B000A93E2
:100F40000C9A0A9B9A4242D90A9B002B08D0049A19
:100F5000109B134002339B00464A1344043300E0C5
:100F6000474B08930A9B002B02D00A9BDBB201E09F
:100F70000C9BDBB28DF81F300A9B002B01D0404B3D
:100F800000E0002306930A9B002B06D00C9BDAB2EC
:100F90000A9BDBB2D31ADBB200E000238DF81730D6
:100FA0009DF81F20169B0899179808F0D9FC9DF80A
:100FB0001F30169A13441693069B002B16D09DF8EB
:100FC0001720169B0699179808F0CAFC0EE0049AA1
:100FD000109B134002339B00264A134404330993A9
:100FE000169B0C9A0999179808F0BAFC0D9B0333CD
:100FF0009A08049B1344049362E09DF8043003F0C4
:101000000303DBB2012B5BD1BDF80430C3F38313C0
:10101000DBB2062B28BF0623DAB2BDF8043062F338
:101020008913ADF80430BDF80430C3F38313DBB289
:1010300003330E939DF80430C3F3C203DBB20F9366
:101040000E9B9B0019460D4808F03EFB1790179B1E
:10105000002B35D0179808F0C8FB01A9169B0C226D
:10106000179808F07DFC169B0C33169300231593FC
:101070001DE000BF300200201C000020F4390200F7
:101080003C020020049B5A1C0492109A1340023325
:101090009B003C4A1344191D169B0422179808F024
:1010A0005FFC169B04331693159B01331593BDF813
:1010B0000430C3F38313DBB21A46159B9342E1D38A
:1010C000179B002B39D02F4BD3F8103414932D4B92
:1010D000D3F81834002B1BD0179808F095FB46E086
:1010E00000238DF84F301498FFF73BFB0346002B8D
:1010F00002D001238DF84F309DF84F30002B03D0E4
:1011000017991498FFF7FEFA149BDB681B68149379
:10111000149B002BE4D1179808F076FB002007F011
:1011200091F8184BD3F81834002B02D1049B154AC0
:101130009360002007F09AF819E0124BD3F81034AE
:10114000129306E01298FFF7F7FA129BDB681B6810
:101150001293129B002BF5D10B4A0C4BD31ADB08D0
:101160001B0443F002030A491846FFF7B9FDFFF7D5
:1011700033FE034683F00103DBB2184619B05DF875
:1011800004FB00BF300200208C3902003439020019
:10119000843B020000B583B00C4BD3F810340193AC
:1011A0000A4B01221A7009E00198FFF7D1FA019861
:1011B000FFF7B6FA019BDB681B680193019B002BCC
:1011C000F2D100BF00BF03B05DF804FB3002002085
:1011D00000B58DB0059004912F4B1B68049AB2FBAB
:1011E000F3F304932D4B1B68049AB2FBF3F30B93B8
:1011F0000B9B2B4AA2FB0323DB0A0A930A9B4FF4A7
:10120000616202FB03F30B9AD31A0B930B9B254AE3
:10121000A2FB03235B090993099A13461B019B1A3E
:101220009B001A460B9B9B1A0B931C4B1A68049B42
:10123000B3FBF2F101FB02F29B1A0893089B4FF4F7
:101240007A7203FB02F2154B1B68B2FBF3F30793B0
:10125000089B4FF47A7203FB02F2104B1B6807994C
:1012600001FB03F3D31A4FF47A7203FB02F20B4B28
:101270001B68B2FBF3F30693069B0293079B019353
:101280000B9B0093099B0A9A0749059807F070FE8B
:1012900000BF0DB05DF804FB54060020500600208E
:1012A000C5B3A29189888888003C020010B584B03B
:1012B00003900291039BDB88002B0AD0039BDB8801
:1012C0001A461F4B009313461E4A1F49029807F007
:1012D0004FFE039B1B7A052B2ED0039B5B7A002BC2
:1012E00012D0039B9B881A46039B1B7A1946104613
:1012F000FFF79CFA03461A46144B53F822301A465D
:101300001349029807F034FE039B1B6819460298A4
:10131000FFF75EFF039B1B7A1A460E4B53F82240E1
:10132000039B9B8800211846FFF760FA034622467C
:101330000949029807F01CFE00BF04B010BD00BFB1
:10134000B83B0200C83B02001C3C020034000020F5
:10135000343C020020000020383C020000B585B07B
:101360000390029113468DF80730039B1B7A052BDF
:101370000FD0039B5B7A002B06D00D4B1B681A46DF
:101380000C49029807F0F4FD0B49029807F0F0FDB4
:1013900007E09DF80730002B03D00749029807F0BB
:1013A000E7FD029807F0C2FD00BF05B05DF804FB41
:1013B00034000020343C0200443C020030B58BB0C5
:1013C00007900691059204930E9B1B7B8DF82730A6
:1013D0000E9B00221A730E990498FFF767FF059B76
:1013E000062B7FD801A252F823F000BF0914000099
:1013F00013140000231400003714000055140000DB
:101400007D140000AD14000007990E9807F0B0FDA0
:1014100069E0069B1B681A4607990E9807F0A8FD1D
:1014200061E0069B1A68069B04331B6807990E98B7
:1014300007F09EFD57E0069B1A68069B0433196867
:10144000069B08331B6800930B4607990E9807F01C
:101450008FFD48E0069B1968069B04331868069BBD
:1014600008331B68069A0C321268019200930346F7
:101470000A4607990E9807F07BFD34E0069B186832
:10148000069B04331C68069B08331B68069A0C32C3
:10149000126806991031096802910192009323465F
:1014A000024607990E9807F063FD1CE0069B1C6836
:1014B000069B04331D68069B08331B68069A0C3292
:1014C0001268069910310968069814300068039074
:1014D0000291019200932B46224607990E9807F03D
:1014E00047FD00E000BF00220E990498FFF736FF89
:1014F0000E9B9DF827201A7300BF0BB030BD00BFB4
:1015000000B587B00390029101920093029B082BD3
:1015100060D8009B1B7B8DF81330009B00221A7350
:1015200000990198FFF7C2FE0023059314E0059A85
:10153000029B9A4209D2039A059B13441B781A46D0
:101540002649009807F014FD03E02549009807F0AC
:101550000FFD059B01330593059B072BE7D9214917
:10156000009807F005FD0023059326E0059A029BED
:101570009A421BD2039A059B13441B788DF81230B4
:101580009DF812307E2B0AD89DF81230184620F0B4
:10159000B0FD0346002B02D09DF8123000E02E2350
:1015A0001A461149009807F0E3FC03E00F49009840
:1015B00007F0DEFC059B01330593059B072BD5D96E
:1015C000012200990198FFF7C9FE009B9DF81320A6
:1015D0001A7300E000BF07B05DF804FB483C02004E
:1015E000503C0200543C0200583C02005C3C0200AB
:1015F00086B003900291019201238DF817309DF877
:101600001730204A039B13601E4A029B53601D4AF9
:10161000019B9360039B44F20102934212D0039B0F
:1016200044F20202934220D1019B164AD360154B2B
:10163000DB681B68134A9361124BDB685B68114AD5
:10164000D36112E0019B0F4A13610E4B1B699B682B
:101650000C4A53610B4B1B691B680A4A9361094B87
:101660001B695B68074AD36100BF72B600BF00BF49
:101670009DF81730DBB2002BFAD162B600BF00BF75
:1016800006B070475806002000B583B00290009164
:10169000019244F2010071466A4600F003F803B07B
:1016A00000BD00BF30B58BB007900691059272B6B1
:1016B00000BFFFF76FFD00BFFFF79CFB0346002B49
:1016C000FAD1079B44F20102934216D0079B44F2E1
:1016D000020293423ED1059B09932C4A2C4BD31A0C
:1016E000DB081B0443F00100099B5B681A46099B59
:1016F0001B682849FFF713FB39E0059B0893234A31
:10170000234BD31ADB081B0443F00104089B9D689C
:10171000089B9B68184608F061F903461846089B29
:101720005B681946089B1B68069A02920193009118
:1017300003462A4618492046FFF733FB134A144B49
:10174000D31ADB081B0443F0010314491846FFF7C2
:10175000C7FA0CE00D4A0E4BD31ADB081B0443F00A
:101760000103069A0E491846FFF7C8FA00BF0D4B51
:101770001B6803F00103002B00D000BE059A0699F8
:101780000798FFF735FF00BF0BB030BD8C39020062
:1017900034390200C83C0200E43C02000C3D020067
:1017A000203D0200F0ED00E000B583B00190019B08
:1017B0001B68184600F0B1F80346002B04D10B4912
:1017C0004FF4F67006F0BEFE019B1B681F2B02D87B
:1017D0004FF0A04306E0019B1B6803F01F02019B32
:1017E0001A60034B184603B05DF804FB383D020055
:1017F0000003005000B585B00190084611461A4616
:1018000003468DF803300B468DF8023013468DF8F1
:10181000013001AB1846FFF7C7FF03909DF8032086
:101820009DF802305B001A439DF801309B001A437B
:101830009DF818301B0242EA03019DF81C301B047E
:10184000019A1943039B02F5E07243F8221000BF8E
:1018500005B05DF804FB00B585B00390002301934B
:10186000002300930023012201210398FFF7C2FF08
:1018700000BF05B05DF804FB00B585B003900B46D2
:101880008DF80B309DF80B3000220192002200925F
:10189000002200210398FFF7ADFF00BF05B05DF8FF
:1018A00004FB00B585B0019001AB1846FFF77CFF43
:1018B0000390019B012202FA03F31946039800F0FA
:1018C00018F800BF05B05DF804FB00B585B00190C5
:1018D00001AB1846FFF768FF0390019B012202FA53
:1018E00003F31946039800F00EF800BF05B05DF849
:1018F00004FB82B001900091019B009AC3F8082577
:1019000000BF02B0704782B001900091019B009A25
:10191000C3F80C2500BF02B0704784B00190019B52
:101920005B09029300230393029B002B03D0029BCD
:10193000012B04D007E04FF0FF33039303E04FF691
:10194000FF73039300BF019B03F01F030193039AEE
:10195000019B22FA03F303F00103002B14BF0123C0
:101960000023DBB2184604B0704782B001900091AA
:10197000009A019BC3F8242500BF02B0704700B550
:1019800083B00190019B0433184613F0A9FE00BFF9
:1019900003B05DF804FB00B58FB003900291009393
:1019A00013468DF8073000230D93029B09939DF891
:1019B00007300A93009B0B939DF840300C93039BD8
:1019C000043309A90022184613F0D8FF0D900D9B8F
:1019D00018460FB05DF804FB00B589B0059003927E
:1019E0001A460B468DF8133013468DF812300F4B04
:1019F00093F858301846FFF768FF9DF813209DF8BC
:101A000012300093039B05990948FFF7C4FF079024
:101A1000079B0693069B002B04D0064AF0210698EC
:101A2000FFF732FE00BF09B05DF804FB7806002026
:101A3000B83D02005C3D020008B5044B4FF0804108
:101A40001846FFF792FF00BF08BD00BF00300240FC
:101A500088B00190019B1B789B098DF81F309DF881
:101A60001F30022B06D0022B49DC002B02D0012BA9
:101A700030D044E0019B08331B789B09DBB21A4647
:101A8000019B07331B789B001A44019B06331B788C
:101A90009B0203F4406313440593019B05331B78B9
:101AA00003F00F030493019B0A331B78DB09DBB2BD
:101AB0001A46019B09331B785B0003F006031344AD
:101AC0000393059B5A1C0499039B0B44073B02FAA2
:101AD00003F316E0019B09331B781A46019B083378
:101AE0001B781B021A44019B07331B781B0403F469
:101AF0007C1313440693069B01339B0201E000BF55
:101B00000023184608B0704700B585B00346009121
:101B10008DF8073013468DF80630594B93F8233073
:101B2000002B01D01123A7E000238DF80F30544B78
:101B3000012283F823209DF90730002B1EDA0623AB
:101B40008DF80F304E4B022283F823204C4B772226
:101B500083F828204A4B002283F82920484B002292
:101B600083F82A20464B002283F82B20444B002286
:101B700083F82C20424BFF2283F82D209DF80F3054
:101B80009DF8072002F07F02D1B23D4A13440A4675
:101B900083F82820009B1A0E9DF80F300133D1B234
:101BA000374A13440A4683F82820009B1A0C9DF8F4
:101BB0000F300233D1B2324A13440A4683F8282048
:101BC000009B1A0A9DF80F300333D1B22C4A1344FC
:101BD0000A4683F828209DF80F300433009AD1B2CA
:101BE000274A13440A4683F828209DF80730402BE3
:101BF00002D0482B04D007E095238DF80E3007E083
:101C000087238DF80E3003E0FF238DF80E3000BFE0
:101C10009DF80F3005331A4A13449DF80E2083F8BF
:101C200028209DF80630022B02D0032B05D009E0B6
:101C3000134B052283F8242009E0114B052283F879
:101C4000242004E00E4B012283F8242000BF9DF9DC
:101C50000730002B03DB0A4B93F8243000E001230C
:101C60008DF80D309DF80D300E33DBB2054A06219C
:101C70000548FFF7B1FE0023184605B05DF804FBE8
:101C800078060020B0060020A006002000B589B02C
:101C9000039001930B468DF80B301346ADF80830D6
:101CA00001238DF81F30AA4BDB8BB3F5F67F00F0D4
:101CB0003281B3F5F67F00F34081B3F5F07F00F099
:101CC0000B81B3F5F07F00F3388140F2D9129342D3
:101CD00000F0E380B3F5ED7F80F22F81002B05D07B
:101CE00040F2C712934200F09E8026E1BDF8083012
:101CF000002B04D197494FF4C87006F023FC944B95
:101D00009B8A002B04D1934940F2911006F01AFCF3
:101D10008F4B9A8A8E4BDA82E7E08D4B00221A8431
:101D20008B4BFF2283F82820894B00221A83884B93
:101D3000032283F823207CE0854B1B8C01339AB26D
:101D4000834B1A84824B1B8C44F6206293420FD93A
:101D5000019B02221A707E4B0022DA830223F3E0F9
:101D6000039B013303939DF80B30013B8DF80B303F
:101D70009DF80B30002B03D0039B1B78FF2BEFD07B
:101D80009DF80B30002B41D0039B1B78FE2B35D1E7
:101D9000039B013303939DF80B30013B8DF80B300F
:101DA0006B4B042283F823209DF80B309BB2BDF8C7
:101DB0000820934228BF1346ADF814300023069341
:101DC0000BE0039A069B1A44614BD968069B0B44AF
:101DD00012781A70069B01330693BDF81430069AE8
:101DE0009A42EED35A4ABDF814301383584BDA683E
:101DF000BDF814301344564AD3601AE0019B052203
:101E00001A70534B0022DA8302239DE01023524ABA
:101E100001215248FFF7E0FD00238DF81F304C4BA5
:101E200040F2C712DA839DF81F30002B01D1012345
:101E30008AE0474B93F82330032B3FF47DAF32E029
:101E4000434B1B8BBDF80820D31AADF81630BDF8F4
:101E50001630F02B02D9F023ADF816303C4BDA687F
:101E6000BDF81630DBB201213C48FFF7B5FD384B19
:101E7000DA68BDF816301344354AD360344B1A8BF8
:101E8000BDF8163013449AB2314B1A8300238DF8F3
:101E90001F302F4B40F2D912DA839DF81F30002BF0
:101EA00001D1012350E02A4B1B8BBDF808209A4238
:101EB000C6D8274BDB8A013B9AB2254BDA82022334
:101EC000254A01212548FFF787FD00238DF81F30A3
:101ED0001F4B4FF4F072DA839DF81F30002B01D1B5
:101EE000012331E000238DF80B30194BDB8A002BE6
:101EF0007FF413AF164BFF2283F828200223164AE3
:101F000001211648FFF768FD00238DF81F30104BA4
:101F10004FF4F672DA839DF81F30002B01D10123B4
:101F200012E00B4B002283F82320019B00221A7041
:101F3000074B0022DA83022306E000238DF81F30CE
:101F4000034B0022DA830323184609B05DF804FB33
:101F5000780600205C3D0200B0060020A0060020AC
:101F600000B593B003900B4601928DF80B30039BA4
:101F70001B788DF84730039B01331B781A06039BAF
:101F800002331B781B041A43039B03331B781B0289
:101F90001343039A043212781343109301238DF8EC
:101FA0004630BE4B9B8BB3F51C7F00F3EB82B3F541
:101FB000137F16DCB3F50E7F00F08C81B3F50E7F36
:101FC00000F3E082002B00F09380002BC0F2DA8255
:101FD00040F22622934200F3D582B3F5047F51DA12
:101FE000D0E2A3F24D23232B00F2CC8201A252F8BF
:101FF00023F000BF95230000852500008525000003
:10200000852500008525000085250000FB230000B4
:102010008525000085250000852500008525000018
:102020008525000085250000852500008525000008
:1020300085250000852500008525000085250000F8
:1020400085250000772400008525000085250000F7
:1020500085250000852500008525000085250000D8
:10206000852500008525000085250000DB24000073
:1020700085250000852500008525000085250000B8
:1020800021250000A3F50473162B00F27B8201A228
:1020900052F823F02121000085250000852500004D
:1020A0005D210000852500008525000085250000B4
:1020B0008525000085250000B7210000852500004A
:1020C0008525000085250000852500008525000068
:1020D0008525000085250000852500008525000058
:1020E000852500008525000085250000452200008B
:1020F000012200214020FFF707FD0F900F9B0E9358
:102100000E9B002B05D0664A40F20F210E98FFF778
:10211000BBFA00238DF84630604B4FF404729A836B
:102120009DF84630002B01D1012332E2012200212B
:102130004020FFF7E9FC0F900F9B0D930D9B002BA8
:1021400005D0574A40F212210D98FFF79DFA00235F
:102150008DF84630514B40F213229A839DF8463059
:10216000002B01D1012314E29DF8473023F0030333
:10217000002B07D0019B04221A70484B00229A833F
:10218000022306E203224FF4D5714820FFF7BCFC7E
:102190000F900F9B0C930C9B002B05D0404A4FF4E3
:1021A00006710C98FFF770FA00238DF846303B4B10
:1021B00040F219229A839DF84630002B01D1012369
:1021C000E7E19DF8473003F00403002B13D1334AB5
:1021D000937A032161F3020393729DF8473023F051
:1021E0000303002B07D0019B04221A702B4B002203
:1021F0009A830223CDE1294B00221A84274B9B7A34
:1022000003F00703DBB2032B02D14FF0804300E061
:1022100000230B9302220B99E920FFF775FC0F9026
:102220000F9B0A930A9B002B05D01D4A40F22521E3
:102230000A98FFF729FA00238DF84630174B40F231
:1022400026229A839DF84630002B01D10123A0E17C
:102250009DF8473003F00403002B56D00F4A937AC1
:10226000012161F3020393729DF8473023F00403C8
:102270008DF84730094B1B8C01339AB2074B1A84F7
:10228000064B1B8CB3F5FA6F0CD9019B02221A7016
:10229000024B00229A8302237BE100BF78060020D4
:1022A0005C3D0200022200214120FFF72DFC0F902F
:1022B0000F9B0793079B002B05D0A64A40F23721BE
:1022C0000798FFF7E1F900238DF84630A24B4FF451
:1022D0000E729A839DF84630002B01D1012358E1FC
:1022E0009DF8473023F00303002B07D0019B042205
:1022F0001A70994B00229A8302234AE19DF84730D5
:1023000003F00103002BB5D195E09DF8473023F091
:102310000303002B52D0019B04221A708E4B002223
:102320009A83022335E18C4B1B8C01339AB28A4B82
:102330001A84894B1B8CB3F5FA6F07D9019B0222D3
:102340001A70854B00229A83022322E1824B9B7AEA
:1023500003F00703DBB2032B02D14FF0804300E010
:1023600000230B9302220B99E920FFF7CDFB0F907E
:102370000F9B0893089B002B05D0764A4FF41371EE
:102380000898FFF781F900238DF84630724B40F230
:102390004D229A839DF84630002B01D10123F8E0AD
:1023A0009DF8473023F00303002B08D0019B042243
:1023B0001A70694B00229A830223EAE000BF9DF85D
:1023C000473003F00103002BADD1022200217A2017
:1023D000FFF79AFB0F900F9B0993099B002B05D0E9
:1023E0005C4A40F252210998FFF74EF900238DF81C
:1023F0004630594B40F253229A839DF84630002BC9
:1024000001D10123C5E09DF8473023F00303002BE1
:1024100007D0019B04221A704F4B00229A8302239B
:10242000B7E0109B03F08043002B04D04A4A937A14
:1024300043F008039372484B9B7A03F00703DBB227
:10244000032B2CD001224FF400715020FFF75CFBCE
:102450000F900F9B0693069B002B05D03D4A4FF42F
:1024600018710698FFF710F900238DF846303A4BA3
:1024700040F261229A839DF84630002B01D101235E
:1024800087E09DF8473023F00303002B07D0019B22
:1024900004221A70304B00229A83022379E02E4BDB
:1024A0002E4ADA602C4B01229A8201220021492017
:1024B000FFF72AFB0F900F9B0593059B002B05D080
:1024C000244A40F26A210598FFF7DEF800238DF8D0
:1024D0004630214B40F26B229A839DF84630002B08
:1024E00001D1012355E09DF8473023F00303002B71
:1024F00007D0019B04221A70174B00229A830223F3
:1025000047E0039B013303939DF80B30013B8DF8AB
:102510000B30114B0022DA830F4B4FF41C729A835D
:102520000DF113039DF80B1010220398FFF7AEFB7B
:102530000346012B01D800232BE09DF81330002B1C
:102540000ED09DF81320019B1A70034B00229A8332
:1025500002231EE05C3D020078060020C006002039
:102560000E48FFF775FA03460D4A53600C4B4FF4C3
:1025700000721A81019B00221A70094B00229A8373
:10258000022306E000238DF84630054B00229A8393
:102590000323184613B05DF804FB00BFC0060020FB
:1025A0007806002000B589B003900B4601928DF8A3
:1025B0000B3001238DF81F30404B9B8B40F2A22241
:1025C000934261D040F2A22293426BDC002B03D0F5
:1025D000B3F5267F21D065E0039B1B788DF81E3074
:1025E0009DF81E3023F00303002B07D0019B04222B
:1025F0001A70324B00229A8302235AE0039B013364
:1026000003939DF80B30013B8DF80B302B4B0022D0
:10261000DA832A4B4FF426729A830DF113039DF847
:102620000B104FF400720398FFF730FB0346012BA9
:1026300001D800233DE09DF81330002B08D09DF811
:102640001320019B1A701D4B00229A83022330E055
:102650001A4B9B8A012B1DD9012200214C20FFF728
:1026600053FA0690069B0593059B002B05D0144A50
:1026700040F2A1210598FFF707F800238DF81F30DD
:102680000E4B40F2A2229A839DF81F30002B01D1FD
:1026900001230EE0019B00221A70084B00229A834E
:1026A000022306E000238DF81F30044B00229A839A
:1026B0000323184609B05DF804FB00BF780600202C
:1026C0005C3D020000B58DB003900B4601928DF881
:1026D0000B3001238DF82F30AC4B9B8BB3F54C7F27
:1026E00000F0C781B3F54C7F00F3EC81B3F5487F70
:1026F00000F09081B3F5487F00F3E48140F20A32A4
:10270000934200F03A8140F20A32934200F3DA81B8
:10271000B3F53B7F00F0E380B3F53B7F00F3D2815C
:10272000B3F5397F00F0B880B3F5397F00F3CA8183
:1027300040F2D322934200F08180B3F5357F80F2DE
:10274000C181002B04D040F2C322934237D0B9E1BB
:10275000039B1B788DF823309DF8233023F003036F
:10276000002B07D0019B04221A70884B00229A8309
:102770000223AEE1854B9B7A03F00703DBB2012B0A
:1027800035D0824B9B8A012B31D9804B1B690122AA
:1027900019465920FFF7B8F90790079B0693069B47
:1027A000002B05D07A4A40F2C2210698FEF76CFF52
:1027B00000238DF82F30754B40F2C3229A839DF889
:1027C0002F30002B01D1012383E1039B1B788DF86F
:1027D00023309DF8233023F00303002B07D0019B07
:1027E00004221A70694B00229A83022371E1674B1D
:1027F0009A8A664BDA82EFE0644B00221A83634BBD
:10280000042283F82320614BFF2283F828205F4BAA
:102810009B8A012B01D9FC2200E0FE225B4B83F84E
:10282000292002235B4A02215B48FFF7D5F80023E9
:102830008DF82F30554B40F2D3229A839DF82F30DC
:10284000002B2FD1012344E1504B1B8BC3F50073A8
:10285000ADF82C30BDF82C30F02B02D9F023ADF8B8
:102860002C304A4BDB68494A128B9818BDF82C3043
:10287000D9B20123474AFFF7AFF8444B1A8BBDF892
:102880002C3013449AB2414B1A8300238DF82F3019
:102890003E4B4FF439729A839DF82F30002B02D1B2
:1028A000012316E100BF394B1B8BB3F5007FCBD35F
:1028B000364BDB6803F50073344AD360334B032295
:1028C00083F823200323334A01213348FFF784F898
:1028D00000238DF82F302D4B4FF43B729A839DF8D7
:1028E0002F30002B01D10123F3E0284B93F83A302D
:1028F00003F01F038DF817309DF81730052B17D004
:102900009DF817300B2B03D09DF817300D2B07D1F6
:10291000019B05221A701D4B00229A830223D8E0E6
:10292000019B04221A70194B00229A830223D0E0E3
:10293000164B00221A8444E0144B1B8C01339AB2CC
:10294000124B1A84114B1B8C44F62062934207D918
:10295000019B02221A700D4B00229A830223B8E0D9
:1029600010230C4A01210C48FFF736F800238DF89C
:102970002F30064B40F20A329A839DF82F30002BFD
:1029800001D10123A5E000230A9315E07806002079
:102990005C3D0200B0060020A0060020039A0A9BBE
:1029A00013441B78002B04D04C4B002283F82320C7
:1029B00007E00A9B01330A939DF80B300A9A9A426A
:1029C000ECD3464B93F82330032BB5D0434BDB8A33
:1029D000013B9AB2414BDA82404BDB8A002B7FF4F9
:1029E0000BAF3E4B9B8A012B64D93C4BFF2283F8F3
:1029F00028203A4BFD2283F829200323384A02215C
:102A00003848FEF7E9FF00238DF82F30334B4FF4A1
:102A100048729A839DF82F30002B01D1012358E092
:102A20002E4B00221A842D4B032283F823203CE0F6
:102A30002A4B1B8C01339AB2284B1A84274B1B8CD0
:102A400044F62062934207D9019B02221A70234B5D
:102A500000229A8302233CE01023214A01212148CD
:102A6000FEF7BAFF00238DF82F301C4B4FF44C7249
:102A70009A839DF82F30002B01D1012329E00023F8
:102A800009930DE0039A099B13441B78002B04D093
:102A9000124B002283F8232007E0099B013309939E
:102AA0009DF80B30099A9A42ECD30C4B93F82330E3
:102AB000032BBDD0019B00221A70084B00229A8381
:102AC000022306E000238DF82F30044B00229A8366
:102AD000032318460DB05DF804FB00BF7806002004
:102AE000B0060020A006002000B58BB00190009138
:102AF000019BDB680993019B1B7C8DF82330A24B63
:102B0000DB8A002B05D1A04B93F858301846FEF70E
:102B1000C8FE9D4B93F82330022B05D09A4B93F8B7
:102B20002330012B40F0C0809DF82330062B04D8C1
:102B3000964940F2573005F005FD9DF82330063BDD
:102B40008DF82330099B06330993019B5B681B7842
:102B50004C2B14D19DF82330002B10D09DF823303E
:102B6000013B8DF82330099B0133099307E09DF861
:102B70002330013B8DF82330099B013309939DF8E5
:102B80002330002B03D0099B1B78FF2BEFD09DF83F
:102B90002330002B0FD1019B5B681B784C2B08D195
:102BA0009DF8233001338DF82330099B013B0993B5
:102BB00001E000230993099B002B53D1724B93F83A
:102BC0002230DBB2012B4DD001238DF809306E4B42
:102BD00093F82230DBB2052B21D0052B23DC022B0E
:102BE00002DC002B03DC1EE0042B14D01BE00023CE
:102BF0008DF80830644B032283F8222000F0C2FADB
:102C00000790079B002B1AD0604A40F28331079847
:102C1000FEF73AFD13E001238DF8083012E002239D
:102C20008DF808300EE003230693069B002B08D096
:102C3000564A4FF463710698FEF726FD01E000BF87
:102C400000E000BF504B93F858301846FEF729FEBD
:102C50004D4B032283F822204B4B1B6802AA1046DF
:102C60009847D9E0484B93F82330022B18D1464BB4
:102C7000012283F82320099B1B788DF817309DF8DB
:102C8000173023F00103002B0AD141483E4B93F843
:102C900024300E33DBB23F4A0621FEF79DFEBBE037
:102CA000394B002283F8232006238DF80F30364B52
:102CB00093F82230DBB2013B042B00F2998001A291
:102CC00052F823F0D92C0000E72C0000F12D000071
:102CD000312D0000992D00002B4B022283F8222079
:102CE000294B00229A830DF10F029DF823301946DB
:102CF0000998FFF735F90346012B40F28580002340
:102D00008DF80C309DF80F308DF80D301E4B0322DE
:102D100083F822201C4B93F858301846FEF7C1FD6B
:102D2000FEF78AFE184B1B6803AA104698476BE013
:102D30000DF10F029DF8233019460998FFF732FC78
:102D40000346012B62D901238DF80C309DF80F301A
:102D50008DF80D300C4B032283F822200A4B002201
:102D60009A82094B0022DA82074B002283F8232043
:102D7000054B93F858301846FEF793FD024B1B683D
:102D800003AA1046984741E0780600205C3D020007
:102D9000A6060020B00600200DF10F029DF823309A
:102DA00019460998FFF78EFC0346012B30D9022300
:102DB0008DF80C309DF80F308DF80D30184B032234
:102DC00083F82220164B002283F82320144B002284
:102DD0009A82134B0022DA82114B93F8583018462E
:102DE000FEF75FFD0E4B1B6803AA104698470FE0E5
:102DF00003230493049B002B0CD00A4A40F2D331E6
:102E00000498FEF741FC05E000BF04E000BF02E0CB
:102E100000BF00E000BF00BF0BB05DF804FB00BFC7
:102E2000780600205C3D020000B589B00390029155
:102E30001346ADF80630039B002B04D12E4940F217
:102E4000DD3005F07FFB2D4B93F82230DBB2002BF9
:102E500001D108234CE0294B93F82230DBB2032B3D
:102E600001D0112344E0BDF80630002B01D1072327
:102E70003EE0224B042283F82220204B9B7A03F071
:102E80000803DBB2002B04D1029B5B021B4A1361D7
:102E900002E01A4A029B1361184A039BD360174A47
:102EA000BDF806309382154ABDF80630D382134B25
:102EB00000229A83BDF80630012B01D9522300E08D
:102EC00051238DF81F300D4B19699DF81F300122D9
:102ED0001846FEF719FE0690069B0593059B002BEE
:102EE00005D0054A40F2FD310598FEF7CDFB0023E1
:102EF000184609B05DF804FB5C3D0200780600202E
:102F000000B589B0039002911346ADF80630039BDB
:102F1000002B04D13E4940F2054005F013FB3D4B28
:102F200093F82230DBB2002B01D108236BE0394B40
:102F300093F82230DBB2032B01D0112363E0BDF8FC
:102F40000630002B01D107235DE0324B052283F8C8
:102F50002220304B9B7A03F00803DBB2002B04D114
:102F6000029B5B022B4A136102E02A4A029B136117
:102F7000284A039BD360274ABDF806309382254A2E
:102F8000BDF80630D382234B00229A83BDF8063069
:102F9000012B14D11F4B1B69012219465820FEF743
:102FA000B3FD0790079B0593059B002B05D0184A9E
:102FB0004FF485610598FEF767FB002323E0154B6E
:102FC0009B7A03F00703DBB2012B08D1114B1B697D
:102FD000012219465920FEF797FD079007E0BDF83A
:102FE000063001221946D720FEF78EFD0790079B79
:102FF0000693069B002B05D0054A40F23741069800
:10300000FEF742FB0023184609B05DF804FB00BF41
:103010005C3D02007806002000B58DB0039002915F
:10302000524B93F82230DBB2002B01D0082398E0FA
:10303000029B002B0FD0039BDB78FF2B0BD0039B55
:103040005B78FF2B07D0039B1B78FF2B03D0039BE0
:103050009B78FF2B01D1072383E0039BDB78002BB8
:103060000BD0039B5B78002B07D0039B1B78002BB6
:1030700003D0039B9B78002B04D13D4940F24C4088
:1030800005F060FA039BDA78384B83F85820374B09
:1030900093F858301846FEF7DEFB344B93F858305F
:1030A0001846FEF7FEFB039B9B788DF81430039BBC
:1030B0001B788DF81530039B5B788DF81630FF2355
:1030C0008DF8173006238DF81830FF238DF819304E
:1030D0004FF08063079300238DF8203000238DF894
:1030E000213005A90023234A234809F059FA0B90FF
:1030F0000B9B0A930A9B002B05D01D4A4FF48C6151
:103100000A98FEF7C1FA194A029B1360174B012275
:1031100083F82220154A937A6FF302039372134ABD
:10312000937A6FF3C3039372104B002283F823202A
:103130000E4BFF2283F828200A2300930F4B012215
:103140000F490D48FEF727FC0B900B9B0993099B39
:10315000002B05D0064A40F26C410998FEF794FA1C
:10316000002318460DB05DF804FB00BF7806002070
:103170005C3D0200E92A0000B83D0200B0060020D4
:10318000A006002008B5124B93F82230DBB2002BCA
:1031900001D108231AE00E4B93F82230DBB2032B47
:1031A00001D0112312E00B48FEF7E9FB084B93F81E
:1031B000583000211846FEF75FFB054B002283F8CC
:1031C0002320034B002283F822200023184608BD49
:1031D00078060020B83D0200094B93F82230DBB29C
:1031E000032B07D0064B93F82230DBB2002B01D023
:1031F000012300E0002303F00103DBB2184670470F
:1032000078060020054B93F82230DBB2022B01D95F
:10321000034B00E000231846704700BF78060020EB
:103220007C060020024BD3F88034DBB2184670478E
:1032300000700240024BD3F88434DBB2184670476A
:103240000070024008B50EF095FE0023184608BD38
:1032500000B585B003468DF807300B468DF8063073
:1032600013468DF805309DF8073003F01F029DF8D6
:1032700006305B0103F060031A439DF80530DB0163
:10328000DBB213430393039BFF2B04D905494FF48F
:10329000AC7005F057F9039BDBB2184605B05DF83A
:1032A00004FB00BF343E020082B00190019B1B7AF8
:1032B000184602B07047000000B585B001900B467B
:1032C0008DF80330019B002B04D10F494FF4887017
:1032D00005F038F90198FFF7E7FF03461A469DF815
:1032E0000330934201D3002309E0019B0933039388
:1032F0009DF8032013465B001344039A13441846B9
:1033000005B05DF804FB00BF943E020082B001905E
:10331000019B1B78184602B0704782B00190019B58
:103320005B78184602B0704700B585B001900B4637
:103330008DF80330019B002B04D10D4940F243105E
:1033400005F000F9019B5B789DF803209A4201D3B8
:10335000002309E0019B9B781A46019B13440393C9
:103360009DF80330039A1344184605B05DF804FB3A
:10337000943E020082B00190019B1B78184602B077
:10338000704782B00190019B1B68184602B07047DD
:1033900000B583B00190019B002B04D1064940F297
:1033A000432005F0CFF80198FFF7EBFF03461B68B9
:1033B000184603B05DF804FBF83E020000B583B088
:1033C0000190019B002B04D1064940F25F2005F0DB
:1033D000B9F80198FFF7D5FF03465B68184603B0BC
:1033E0005DF804FBF83E020000B583B00190019B3C
:1033F000002B04D1064940F27B2005F0A3F8019888
:10340000FFF7BFFF03465B68184603B05DF804FB97
:10341000F83E0200014B1846704700BFD84002003A
:103420004FF08043D3F838341846704708B5FFF79B
:10343000F7FF034603F00103002B14BF0123002311
:10344000DBB2184608BD08B5FFF7EAFF034603F0F4
:103450000203002B14BF01230023DBB2184608BD72
:1034600000B583B001900091019B002B04D111495C
:1034700040F20F1005F066F8019B5B68002B04D149
:103480000C494FF4887005F05DF8019B5B681B6880
:10349000002B04D1074940F2111005F053F8019BAD
:1034A0005B681B680099019898470346184603B06B
:1034B0005DF804FB5C3F020000B583B00190009111
:1034C000019B002B04D1114940F2191005F03AF884
:1034D000019B1B68002B04D10C494FF48D7005F043
:1034E00031F8019B1B689B68002B04D1074940F20F
:1034F0001B1005F027F8019B1B689B68009A5288F7
:103500001046984700BF03B05DF804FB5C3F020023
:1035100000B583B001900B468DF80330074B1B6854
:10352000002B06D0054B1B689DF80320114601981F
:10353000984700BF03B05DF804FB00BF9808002067
:1035400000B583B003468DF80730074B5B68002B4E
:1035500005D0054B5B689DF807201046984700BFD3
:1035600003B05DF804FB00BF9808002010B58EB0D2
:10357000039001930B468DF80B3013468DF80A30FB
:103580000023099300230D9302E00D9B01330D935B
:10359000039B5B685C6809A8012300220399A0478C
:1035A0000346002BF1D100238DF8233000230C9328
:1035B00000238DF82F30002306934FE0039B5B68B8
:1035C0005C680DF1230206A801230399A047039B21
:1035D0005B685C680DF1170206A801230399A047F8
:1035E0009DF817309DF80B209A4227D19DF82F2087
:1035F0009DF80A309A421CD19DF823301A46109B40
:103600001A60019B5A1C01929DF823201A70019B9D
:103610005A1C01929DF80B201A70039B5B685C6832
:103620009DF82330023B06A8019A0399A047002386
:1036300019E09DF82F3001338DF82F30039B5B6824
:103640005C689DF82330023B06A800220399A0473E
:103650009DF823301A460C9B13440C930C9A0D9B37
:103660009A42ABD3052318460EB010BD00B585B005
:1036700003468DF807309DF90730002B14DA9DF8CA
:10368000073003F00F038DF80E309DF80E30082B35
:1036900004D911494FF4CC7004F054FF9DF80E305A
:1036A000DB000E4A134413E09DF8073003F00F03CC
:1036B0008DF80F309DF80F30082B04D906494FF4D0
:1036C000CF7004F03FFF9DF80F30DB00044A134435
:1036D000184605B05DF804FB5C3F0200F8070020C7
:1036E0004008002000B583B003468DF807309DF8F0
:1036F00007301846FFF7BAFF03461B68184603B0A9
:103700005DF804FB00B585B0034600918DF80730E5
:103710009DF807301846FFF7A9FF0390039B009A16
:103720001A60009B002B10D19DF80730002B03D0AE
:103730009DF80730802B04D108494FF4E17004F064
:1037400001FF039B00225A6004E0009B5B681A683B
:10375000039B5A6000BF05B05DF804FB5C3F0200AC
:1037600000B583B00190064B5B68054A1268019969
:10377000104698470346184603B05DF804FB00BFA7
:103780004008002000B58BB00190019B0993099B74
:103790001B78052B1AD1FFF74DFD03468DF823301A
:1037A000FFF740FD03468DF81B300022002100206A
:1037B000FFF74EFD03461A469DF81B30934205D194
:1037C0009DF82330052B01D1334B0993099B1B78BE
:1037D000002B27D100F036FF079007E009990798E2
:1037E000FFF76AFE0798FFF7FFFD0790079B002B86
:1037F000F4D1002004F026FD284B1B68002B03D1D8
:10380000099B5A88264B1A800121244804F0F9FFAD
:10381000002004F02BFD01210998FFF779FE1F4BD2
:103820001B6835E01F4A03AB1946104604F048FFF9
:103830000590059B002B2BD0059A099B1B681360F4
:10384000002004F0FFFC164B1A88144B1B689BB237
:10385000D31A9BB201339AB2059BDA8000210F483C
:1038600004F088FF03469AB2059B9A80002004F07A
:10387000FDFC0C4A03AB1946104604F03AFF034620
:103880008DF813309DF8133019460998FFF740FE64
:103890000BB05DF804FB00BFC03F0200F007002042
:1038A000F4070020E007002000B583B003468DF840
:1038B00007309DF80730022B0ED0022B10DC002BB6
:1038C00002D0012B04D00BE00A48FFF75BFF0DE0AC
:1038D0000948FFF757FF09E00848FFF753FF05E0E5
:1038E000074940F2622004F02DFE00BF00BF03B084
:1038F0005DF804FBB43F0200B83F0200BC3F020089
:103900005C3F020000B583B001900198FFF73AFFD9
:1039100000BF03B05DF804FB00B583B003468DF82B
:1039200007309DF80730002B04D0064940F27B2079
:1039300004F008FE0448FFF725FF00BF03B05DF860
:1039400004FB00BF5C3F0200C43F020082B003469C
:103950008DF807309DF80730082B27D801A252F8C0
:1039600023F000BF893900008D3900009139000033
:1039700095390000993900009D390000A1390000F7
:10398000A5390000A9390000002310E000230EE053
:1039900001230CE000230AE0002308E0012306E0F5
:1039A000012304E0012302E0012300E00023184684
:1039B00002B0704782B003468DF807309DF807309B
:1039C000082B27D801A252F823F000BFF1390000DC
:1039D000F5390000F9390000FD390000013A000016
:1039E000053A0000093A00000D3A0000113A0000C3
:1039F000002310E000230EE001230CE000230AE086
:103A0000002308E0002306E0002304E0002302E096
:103A1000012300E00023184602B07047014B1B78D9
:103A2000184670479408002010B582B003468DF800
:103A300007309DF807301846FFF788FF03461C46FD
:103A40001C4B1B781846FFF781FF03469C420DD0A4
:103A50009DF807301846FFF779FF0346002B03D087
:103A6000154808F077FC01E008F0C4FC9DF8073029
:103A70001846FFF79FFF03461C460E4B1B7818465F
:103A8000FFF798FF03469C420CD09DF8073018467C
:103A9000FFF790FF0346002B02D00EF007FC01E079
:103AA0000EF0FAFB034A9DF80730137000BF02B016
:103AB00010BD00BF940800205800002000B587B05A
:103AC00001900B468DF8033013468DF802300198B3
:103AD000FFF7EAFB03461A469DF80330934204D9E8
:103AE0001B4940F2F92004F02DFD9DF80230002B17
:103AF00001D0072328E09DF8033019460198FFF70D
:103B0000DBFB04900498FFF708FC03468DF80F30A8
:103B100000238DF8173010E09DF8173019460498EF
:103B2000FFF702FC0290029B1B78184600F052FD42
:103B30009DF8173001338DF817309DF817209DF848
:103B40000F309A42E8D30023184607B05DF804FB13
:103B50005C3F020000B587B001900B468DF8033042
:103B60000198FFF7A1FB03461A469DF803309342E4
:103B700004D919494FF4467004F0E4FC9DF8033071
:103B800019460198FFF798FB04900498FFF7C5FBCE
:103B900003468DF80F3000238DF8173010E09DF8A4
:103BA000173019460498FFF7BFFB0290029B1B7861
:103BB000184600F02DFD9DF8173001338DF81730B1
:103BC0009DF817209DF80F309A42E8D300BF00BF40
:103BD00007B05DF804FB00BF5C3F020000B589B090
:103BE000019008F0F1FA0346002B04D1484940F255
:103BF000313004F0A7FC474808234FF4847246494B
:103C000004F02BFD0690069B002B01D003237BE0E4
:103C100042480EF02BF90690069B002B01D0069B24
:103C200072E03F4B00221A703E4B00221A603E4B5E
:103C300000221A60482200213C481EF07EFD4822E6
:103C400000213B481EF079FD019B002B09D1394B27
:103C500000221A60374B00225A60364B00221A723B
:103C600004E0344B019A07CA83E80700002008F0FB
:103C700031FC0690069B002B08D0069B852B05D0B7
:103C8000234A40F25F310698FDF7FEFCFFF7C2FBC6
:103C9000059000238DF81F3018E000238DF81E30AA
:103CA00007E00398FFF766FB034605991846FFF700
:103CB00029FD9DF81E305A1C8DF81E2019460498C7
:103CC000FFF732FB0390039B002BEAD19DF81F30D6
:103CD0005A1C8DF81F2019460598FFF7EDFA04903D
:103CE000049B002BD9D10B238DF8083002AB194669
:103CF0000598FFF7B5FB0690069B002B03D0FFF756
:103D0000A1FA069B00E00023184609B05DF804FB09
:103D10005C3F0200E0070020D806002005390000C3
:103D200094080020880800208C080020F807002054
:103D3000400800209808002000B583B00EF012FA69
:103D4000034683F00103DBB2002B04D10EF016FA18
:103D50000346002B01D008230FE00A4808F0DCFBE3
:103D60000190019B0093009B002B05D0064A40F276
:103D7000C2310098FDF788FC0023184603B05DF8B7
:103D800004FB00BFC83F02005C3F020008B50EF014
:103D900009F900BF08BD000008B50EF0FBF90346A5
:103DA00083F00103DBB2002B04D1044940F2D1308F
:103DB00004F0C8FB0EF05EF900BF08BD5C3F0200D6
:103DC00008B50EF0DBF90346002B0DD10D494FF479
:103DD000767004F0B7FB07E0FFF728FB034683F09B
:103DE0000103DBB2002B0BD1FFF72DFB034683F061
:103DF0000103DBB2002BEFD10348FFF7C3FC00E067
:103E000000BF08BD5C3F0200CC3F020000B583B09C
:103E100082238DF8043001AB1846FFF7B3FC00BFD6
:103E200003B05DF804FB000000B587B00190DF4BE4
:103E30001B68002B04D1DE4940F2254004F082FBD0
:103E400004F047FA0346052B04D8D94940F22C4028
:103E500004F078FB019B1B78852B00F25F8201A2A6
:103E600052F823F061410000C541000053420000B8
:103E7000E7410000174200007B4200008B42000037
:103E80001D430000F3420000014300000F43000007
:103E90001D4300001D4300001D4300001D430000A2
:103EA0006D4200001D4300001D4300001D43000043
:103EB0001D4300001D4300001D4300001D43000082
:103EC0001D4300001D4300001D4300001D43000072
:103ED0001D4300001D4300001D4300001D43000062
:103EE0001D4300001D4300001D4300001D43000052
:103EF0001D4300001D4300001D4300001D43000042
:103F00001D4300001D4300001D4300001D43000031
:103F10001D4300001D4300001D4300001D43000021
:103F20001D4300001D4300001D4300001D43000011
:103F30001D4300001D4300001D4300001D43000001
:103F40001D4300001D4300001D4300001D430000F1
:103F50001D4300001D4300001D4300001D430000E1
:103F60001D4300001D4300001D4300001D430000D1
:103F70001D4300001D4300001D4300001D430000C1
:103F80001D4300001D4300001D4300001D430000B1
:103F90001D4300001D4300001D4300001D430000A1
:103FA0001D4300001D4300001D4300001D43000091
:103FB0001D4300001D4300001D4300001D43000081
:103FC0001D4300001D4300001D4300001D43000071
:103FD0001D4300001D4300001D4300001D43000061
:103FE0001D4300001D4300001D4300001D43000051
:103FF0001D4300001D4300001D4300001D43000041
:104000001D4300001D4300001D4300001D43000030
:104010001D4300001D4300001D4300001D43000020
:104020001D4300001D4300001D4300001D43000010
:104030001D4300001D4300001D4300001D43000000
:104040001D4300001D4300001D4300001D430000F0
:104050001D4300001D4300001D4300001D430000E0
:104060001D430000DF4000007D400000A54000002F
:104070001341000033410000834200004D48FFF728
:104080006FFB4C4800F068FB0D20FFF759FA00F079
:1040900087FC01F054FB01200EF00CF80120FFF723
:1040A000C3FC48E100F07CFC0EF038F80020FFF77C
:1040B000BBFC414800F050FB3F48FFF751FB0E208E
:1040C000FFF73EFAFFF7AAFC03461846FFF73EFC4F
:1040D0000346002B00F0288108F08CF924E1FFF75B
:1040E0009DFC0346072B0ED0072B10DC052B02D0BE
:1040F000062B04D00BE00220FFF796FC08E0082016
:10410000FFF792FC04E00220FFF78EFC00E000BF06
:1041100011E1FFF783FC0346032B40F007810EF00B
:104120004DF80346002B00F001810420FFF77CFCD2
:10413000FCE0FFF773FC0346032B07D10EF03EF8BB
:104140000346002B02D00420FFF76EFC0EF066F849
:104150000346002B00F0EC800620FFF765FCE7E04B
:10416000019B5A88154B1A80FFF758FC0346032B16
:1041700004D0FFF753FC0346082B02D11048FFF789
:1041800053FE0020FFF7DCF900F056FA059008E036
:1041900001990598FFF764F903900598FFF70EF968
:1041A0000590059B002BF3D1C5E000BF88080020D7
:1041B0005C3F0200D03F0200D43F0200D406002042
:1041C000D83F020000F0ECFB01F0B0FA0220FFF74C
:1041D0002BFC0120FFF7B4F90198FFF7C1FA019811
:1041E00000F0BAFAA7E0FFF719FC0346082B05D147
:1041F0000220FFF719FC0EF063F802E00520FFF73C
:1042000013FC0320FFF79CF90198FFF7A9FA019826
:1042100000F0A2FA8FE00320FFF792F94848FFF779
:104220009FFA474800F098FAFFF7F8FB0346062B81
:1042300002D0082B04D007E00720FFF7F5FB07E0CA
:104240000220FFF7F1FB03E00220FFF7EDFB72E035
:1042500071E00320FFF7E8FB0220FFF771F90198F6
:1042600000F07AFA0198FFF77BFA64E00F20FFF77D
:1042700067F9019800F070FA5DE00198FFF770FAB5
:1042800059E00198FFF76CFA55E0019B9B781846BE
:10429000FFF7ECF90490049B1B68002B04D129491B
:1042A00040F2025004F04EF9049B5B68002B04D1ED
:1042B000244940F2035004F045F9049B5B68049ADA
:1042C00012680199104698470346002B32D0019B93
:1042D0009B7803F00F03002B2CD0019B9B7803F0FD
:1042E0000803002B26D1019B9B7818460EF04FFA4D
:1042F00020E00820FFF724F9019800F02DFA1AE0D9
:104300000920FFF71DF9019800F026FA13E00A20B2
:10431000FFF716F9019800F01FFA0CE0094940F286
:10432000265004F00FF906E000BF04E000BF02E0F1
:1043300000BF00E000BF00BF07B05DF804FB00BF96
:10434000DC3F02005C3F020000B583B00023019314
:10435000354B1B68002B07D1344B3549184604F008
:10436000DCF90346304A13602F4B1B68002B32D018
:104370002D4B1B689B88002B1ED02B4B1B68DB88AA
:10438000B3F5006F03D3284B1B680022DA80264B5D
:104390001B68DA88511C89B2D9801346ADF8063003
:1043A000214B1B689A88013A92B29A8001AB184659
:1043B000FFF73AFD012333E01B4B1B681846FFF75C
:1043C00033FD1A4B1A49184604F0C0F9164B002267
:1043D0001A60012324E0174B1B68002B1FD000201C
:1043E00003F030FF144B1B88B3F5006F02D3124B60
:1043F00000221A80104B1B885A1C91B20E4A118061
:10440000ADF8063001210B4804F02BFA002003F030
:104410002DFF01AB1846FFF707FD012300E0002345
:10442000184603B05DF804FBA4080020E007002054
:10443000A8080020F0070020F407002000B589B08C
:104440000190019B002B04D15A4940F26A5004F0BC
:1044500079F8019B5B68002B04D1564940F26B5000
:1044600004F070F8019B5B681B68002B04D1514974
:1044700040F26C5004F066F80198FEF782FF0346A4
:104480001B68002B04D04B4940F26D5004F05AF8E1
:104490000DF074FE034683F00103DBB2002B04D061
:1044A0000DF060FE0346002B04D1424940F27150EA
:1044B00004F048F800238DF81F301CE000238DF82D
:1044C0001E300BE00398FEF755FF03461846FFF732
:1044D00009F90346002B01D0112367E09DF81E3037
:1044E0005A1C8DF81E2019460598FEF71DFF0390F3
:1044F000039B002BE6D19DF81F305A1C8DF81F201E
:1045000019460198FEF7D8FE0590059B002BD5D1E2
:1045100000238DF81F3018E000238DF81D3007E0D0
:104520000498FEF727FF034601991846FFF7EAF8BB
:104530009DF81D305A1C8DF81D2019460598FEF770
:10454000F3FE0490049B002BEAD19DF81F305A1C07
:104550008DF81F2019460198FEF7AEFE0590059BC9
:10456000002BD9D1144B069310E0069B1B68019ACF
:104570009A4204D10F4940F2975003F0E3FF069BA3
:104580001B681846FEF7FDFE03460693069B1B6854
:10459000002BEAD1069B019A1A600B238DF8083094
:1045A00002AB19460198FEF75BFF0346184609B0B7
:1045B0005DF804FB5C3F020088080020044B1B7878
:1045C000002B14BF01230023DBB21846704700BF45
:1045D0009508002000B583B003468DF807309DF89C
:1045E000073003F00803002B09D19DF80730184667
:1045F0000EF015F99DF8073018460EF0DAF89DF820
:10460000073018460DF0DAFE00BF03B05DF804FB7A
:1046100000B583B003468DF807309DF80730184683
:104620000DF01CFF00BF03B05DF804FB014B1B68DD
:104630001846704788080020014B1B6818467047D1
:104640008C080020014B1B6818467047900800201A
:1046500000B587B0034600918DF80730FFF7E6FFFD
:10466000059031E00598FEF71FFE03468DF81230E5
:1046700000238DF813301DE09DF81330194605987E
:10468000FEF71AFE03900398FEF740FE03461A4613
:104690009DF80730934208D1009B002B03D0009B6C
:1046A0009DF813201A70059B12E09DF8133001331A
:1046B0008DF813309DF813209DF812309A42DBD309
:1046C0000598FEF765FE0590059B002BCAD10023D7
:1046D000184607B05DF804FB00B585B003900B46A3
:1046E00001928DF80B3001990398FEF7B9FE03464D
:1046F000184605B05DF804FB00B585B0034600918F
:104700008DF807309DF90730002B05DA9DF807304A
:1047100003F00F03082B09DD9DF90730002B16DB92
:104720009DF8073003F00F03082B10DC9DF80730CD
:104730001846FEF79BFF03461B680393039B002B61
:1047400005D000990398FEF78BFE034600E0102386
:10475000184605B05DF804FB00B585B00190FFF781
:1047600065FF039007E001990398FEF779FE03982F
:10477000FEF70EFE0390039B002BF4D100BF00BF99
:1047800005B05DF804FB00B585B0019006230293E7
:10479000FFF74CFF03900BE001990398FEF760FED2
:1047A0000290029B062B07D10398FEF7F1FD0390C0
:1047B000039B002BF0D100E000BF029B184605B020
:1047C0005DF804FB00B583B0034600918DF8073017
:1047D0009DF8073018460DF0DEFD034683F0010317
:1047E000DBB2002B01D008230CE0084B1B78022B16
:1047F00001D0082306E09DF80730009918460DF017
:104800004DFE0346184603B05DF804FB94080020F3
:1048100000B583B0034600918DF807309DF807304E
:1048200018460DF0B8FD034683F00103DBB2002B00
:1048300001D008230CE0084B1B78022B01D0082381
:1048400006E09DF80730009918460DF0F5FE034686
:10485000184603B05DF804FB9408002000B585B04D
:1048600001900B468DF8033013468DF80230062375
:104870000393019B5B689B68002B09D0019B5B68DD
:104880009B689DF802209DF80310019898470390BB
:10489000039B062B08D19DF802209DF80330194692
:1048A0000198FFF70BF90390039B184605B05DF8DC
:1048B00004FB00B583B001900B468DF80330019BDB
:1048C0005B68DB68002B07D0019B5B68DB689DF8A9
:1048D00003201146019898479DF803301946019826
:1048E000FFF738F900BF03B05DF804FB00B585B0F1
:1048F00001900B468DF8033000238DF80F30019B9B
:104900005B681B69002B0AD0019B5B681B699DF8E3
:10491000032011460198984703468DF80F309DF803
:104920000F30184605B05DF804FB000000B585B0F7
:10493000FFF77CFE039028E00398FEF7B5FC0346E2
:104940008DF80A3000238DF80B3014E09DF80B3001
:10495000002219460398FFF781FF0190019B002B6D
:1049600004D00E4940F26A7003F0ECFD9DF80B3064
:1049700001338DF80B309DF80B209DF80A309A42D8
:10498000E4D30398FEF704FD0390039B002BD3D1DF
:1049900000BF00BF05B05DF804FB00BF5C3F020034
:1049A00000B583B0FFF742FE01901EE00198FEF7CC
:1049B0007BFC03468DF8023000238DF803300AE0BB
:1049C0009DF8033019460198FFF773FF9DF80330F7
:1049D00001338DF803309DF803209DF802309A4290
:1049E000EED30198FEF7D4FC0190019B002BDDD1A2
:1049F00000BF00BF03B05DF804FB82B00190019BD3
:104A000003F1804303F51C33184602B0704700B52C
:104A100083B003468DF807309DF807301846FFF73E
:104A2000ECFF034601221A60BFF36F8F00BFBFF394
:104A30004F8F00BF00BF03B05DF804FB82B0034698
:104A40008DF807309DF8073003F01F03DBB21846DE
:104A500002B0704782B003468DF807309DF80730EA
:104A60005B0903F00303DBB2184602B0704782B063
:104A700003468DF807309DF80730DB09DBB2184696
:104A800002B0704782B00190019B1B7A184602B0B9
:104A9000704782B00190019B1B68184602B07047B6
:104AA00000B583B00190019B002B04D1064940F270
:104AB000432003F047FD0198FFF7EBFF03461B6817
:104AC000184603B05DF804FBE03F020082B001909D
:104AD000019B1B78184602B07047000000B583B0F8
:104AE00003468DF807300E4B1B789DF807209A423D
:104AF00011D00B4A9DF8073013709DF80730052B35
:104B000006D0084B1B7823F00203DAB2054B1A706B
:104B10000548FFF789F900BF03B05DF804FB00BF4B
:104B2000AC080020AD080020F8400200014B1B78C3
:104B300018467047AC0800204FF08043D3F8383453
:104B400003F00103002B14BF01230023DBB218463E
:104B500070470000024B00221A6000BF704700BF80
:104B6000F408002000B585B003468DF807300B4BE4
:104B70001B680393039B002B0AD0FFF7EBFF074B47
:104B800059689DF80720039B10469847034600E0AC
:104B90000E23184605B05DF804FB00BFF4080020A2
:104BA000044B1B68002B14BF01230023DBB2184603
:104BB000704700BFF408002082B0034600918DF8D2
:104BC00007300023184602B07047000010B58EB0C1
:104BD00003900291019201238DF83730029B0993D3
:104BE000099B5B68002B15D1099B1B681846FFF7D2
:104BF00057FF0346002B0DD1099B9B68002B09D161
:104C000000238DF83730039B00221A60039B00229B
:104C10005A60AAE0019B402B04D9564940F29710F4
:104C200003F090FC00230C9300238DF82B300DF043
:104C30006FFD0890099BDB68019A934228BF1346D9
:104C40000B9386E0099B9B680B9A934228BF1346FF
:104C50000793099B5B68002B0CD0089A0C9BD0181B
:104C6000099B5B68079A19461DF03EFD099B0022CF
:104C70005A6014E0099B9B68002B10D0099B1B68AD
:104C80005B685C68099B03F11000099B1968089A2E
:104C90000C9B1A44079BA04701238DF82B30099BDE
:104CA0009A68079BD21A099B9A60099BDA68079B4E
:104CB000D21A099BDA600B9A079BD31A0B930C9AB2
:104CC000079B13440C93099B9B68002B0BD19DF809
:104CD0002B30002B07D0099B1B681846FFF7E0FE1E
:104CE0000246099B1A60099BDB68002B03D1002355
:104CF0008DF837302DE0099B9B68002B29D1099B4B
:104D00001B68002B0DD1099B00225A600C9B002BC5
:104D100024D00C9A019B9A4220D200238DF8373080
:104D20001CE00023059304E0099B9B685A1C099B27
:104D30009A60099B1B685B685C68099B196805A8F9
:104D400001230022A0470346002BEDD1099B00223E
:104D50001A610B9B002B7FF475AF00E000BF039B33
:104D6000089A1A60039B0C9A5A609DF837301846CF
:104D70000EB010BD4840020000B587B00190019B05
:104D80005B781846FFF766FE0346002B01D006232A
:104D900083E0019B5B798DF81730FFF7C7FE034670
:104DA0008DF81630019B9B78032B29D0032B6EDCEA
:104DB000002B02D0012B44D069E09DF81630052B62
:104DC00005D09DF8173003F00F03002B16D103AB6D
:104DD000184600F029FD04909DF8173018460DF094
:104DE0000BFD03469AB2049B1A80019B01330222F9
:104DF0000499184600F0ACFC03464EE008234CE052
:104E00009DF8173003F00803002B42D1019BB3F843
:104E100003309BB2002B3CD19DF8173003F00F03F9
:104E2000002B01D1062338E09DF81630052B06D162
:104E30009DF8173018460DF0AAFC00232DE008233A
:104E40002BE09DF8173003F00803002B23D1019BC2
:104E5000B3F803309BB2002B1DD19DF8173003F03F
:104E60000F03002B01D1062317E09DF81630052B08
:104E70000BD19DF8173018460DF0D1FC9DF8173076
:104E800018460DF096FC002307E0082305E000BF5C
:104E900002E000BF00E000BF0623184607B05DF83F
:104EA00004FB00B58BB003900B4601928DF80B30DC
:104EB000019B5B781846FFF7CDFD0346002B01D020
:104EC00006236AE0FFF732FE03468DF82730019B88
:104ED0005B781846FFF7CBFD0346012B3BD1019BC6
:104EE0009B78002B02D00A2B17D055E09DF8273075
:104EF000052B01D0082350E006AB184600F094FCC7
:104F00000790079B00221A80019B01330222079918
:104F1000184600F01DFC03463FE09DF82730052BA6
:104F200001D0082339E005AB184600F07DFC08905D
:104F30009DF80B3019460398FFF7D8FC03461A4634
:104F4000089B1A70019B013301220899184600F052
:104F5000FFFB034621E0019B9B780B2B1BD19DF8A7
:104F60002730052B01D0082317E0019BB3F803304D
:104F70009BB2FF2B01D907230FE0019BDB788DF853
:104F800026309DF826209DF80B3019460398FFF730
:104F900065FC034601E000BF062318460BB05DF830
:104FA00004FB000000B585B00190009102AB1846EB
:104FB00000F03AFC0390029B012B04D8184940F200
:104FC0009F2003F0BFFA0222002103981DF0B5FBD9
:104FD000C02303F04003002B06D0039B1B7843F053
:104FE0000103DAB2039B1A700E4B1B785B08DBB22D
:104FF00003F00103002B06D0039B1B7843F0020350
:10500000DAB2039B1A70009B0133022203991846FF
:1050100000F09EFB0346184605B05DF804FB00BF98
:1050200048400200AD08002010B58EB001900091FC
:10503000009B1B79032B00F0BC80032B00F3E7805F
:10504000012B02D0022B11D0E1E0009BB3F8073016
:105050009BB2002B01D10023DBE0009B0133122225
:105060006D49184600F074FB0346D2E0009BB3F88C
:1050700007309BB2002B01D10023CAE0009BB3F89C
:1050800007309BB2092B28BF09239BB20693092343
:105090000D9300238DF83330FFF7C8FA0B9037E0FB
:1050A0000B9B5B68002B04D15C4940F2D12003F0DC
:1050B00049FA0B9B5B685B68002B04D1574940F2AF
:1050C000D22003F03FFA00230A930023029302E068
:1050D0000A9B01330A930B9B5B685C6802A801235F
:1050E00000220B99A0470346002BF1D10D9A0A9B91
:1050F00013440D930B98FFF7C5FC03461A469DF821
:10510000333013448DF833300B98FFF7C9FC0B9004
:105110000B9B002BC4D104AB184600F085FB059017
:10512000049B069A9A4204D93C4940F2E72003F0D6
:1051300009FA069A3A4905981DF0D6FA059B9DF89A
:1051400033201A710D9B9AB2059B5A80FFF736FAED
:105150000346002B06D0059BDB7943F02003DAB22F
:10516000059BDA71FFF762FA03462E4A13602D4A57
:10517000059B53602B4A069B9360009BB3F8073056
:105180009BB21A46274BDA60002003F05BF82649F1
:105190008020FFF73DFB0990099B002B04D1234998
:1051A000802000F023FB0990002003F05FF8099BAA
:1051B0002FE0009BB3F807309BB2002B01D10023F6
:1051C00027E0009BDB788DF82330009B5A799B7990
:1051D0001B021343ADF82030BDF820209DF823308A
:1051E0001146184602F092FF0790079B002B01D151
:1051F00006230EE0009B5C1C0798FFF767FC034644
:105200001A460799204600F0A3FA034601E000BFC2
:10521000062318460EB010BDA4400200484002000C
:10522000B840020008090020F0400200E8400200F7
:1052300000B587B00190009103AB184600F0F4FA76
:105240000590FFF773FC03468DF813309DF813307B
:10525000052B03D1059B01221A7009E09DF813303C
:10526000042B03D1059B00221A7001E0062307E0FE
:10527000009B013301220599184600F069FA0346A4
:10528000184607B05DF804FB00B585B001900091A9
:10529000FFF74CFC03468DF80F309DF80F30052BBF
:1052A00005D09DF80F30042B01D0082316E0009B99
:1052B000DB78002B05D1FFF773FB0420FFF70EFC12
:1052C0000BE0009BDB78012B05D1FFF72FFB0520BE
:1052D000FFF704FC01E0072300E00023184605B0B7
:1052E0005DF804FB00B583B001900091019B002B99
:1052F00004D150494FF45A7003F024F9009B002B5D
:1053000004D14C4940F2693003F01CF9009B5B78F2
:105310001846FFF79FFB0346002B01D0062385E0CC
:10532000009B5B781846FFF7A2FB0346012B1FD1B9
:10533000009B9B78082B12D0082B16DC002B02D088
:10534000062B06D011E000990198FFF72BFE0346CB
:105350006CE000990198FFF767FE034666E000994C
:105360000198FFF765FF034660E000BF06235DE09C
:10537000009B9B78013B082B52D801A252F823F0E6
:10538000E353000021540000B153000021540000F9
:10539000A5530000215400002154000021540000B6
:1053A0001554000023494FF4637003F0CBF83CE040
:1053B000009BB3F803309BB2012B33D1FFF7FEF80B
:1053C000034683F00103DBB2002B01D00F232DE055
:1053D000194B1B7843F00203DAB2174B1A70002303
:1053E00024E0009BB3F803309BB2012B1CD1FFF7E4
:1053F000E5F8034683F00103DBB2002B01D00F2355
:1054000014E00D4B1B7823F00203DAB20A4B1A703A
:1054100000230BE000990198FFF736FF034605E0F3
:1054200000BF02E000BF00E000BF0623184603B043
:105430005DF804FB48400200AD08002000B58BB0C9
:1054400001900623099305238DF8103004AB013336
:1054500018460DF0F3F9FFF7A3FBFFF77BFB9DF870
:1054600011301846FFF7EAFA0346032B63D801A26E
:1054700052F823F085540000A3540000F1540000BA
:105480002B55000004AB19460198FFF72BFF09903C
:10549000099B062B51D104AB1846FFF774F909900C
:1054A0004BE09DF815308DF822300DF10F029DF87C
:1054B000223011461846FFF7CBF80790079B002BC8
:1054C00002D1102309933AE09DF80F3004AA19463F
:1054D0000798FFF701F90990099B062B2FD19DF83A
:1054E0000F3004AA19460798FFF7DBFC099026E065
:1054F000062309939DF815308DF823309DF823304D
:1055000003F00F03002B07D004AA9DF823301146A7
:105510001846FFF7F1F80990099B062B11D104AB4F
:105520001846FFF729FC09900BE004AB1846FFF77B
:105530002AF9099006E000BF04E000BF02E000BFC6
:1055400000E000BF099B002B0FD1FFF729FB0346AA
:10555000002B07D00DF0AEF90346002B07D10DF05C
:1055600097F904E00DF09AF901E00DF09DF9099B1F
:1055700018460BB05DF804FB00B585B001900091B2
:1055800006230393009B1B780E2B25DC002B40F396
:10559000BD80013B0D2B00F2B98001A252F823F02F
:1055A000DF550000E7550000ED5500000D570000E5
:1055B00033560000B55600000D5700000D5700008F
:1055C0000D5700000D5700003D56000057560000D3
:1055D0007756000095560000852B1DD096E00320DD
:1055E000FFF77CFA99E00023039396E04D4803F01F
:1055F0005EF90346002B02D05C20FFF708FAFFF7A4
:1056000095FA0346002B04D1474940F2424002F08C
:1056100099FF0023039380E0FFF788FA03468DF893
:105620000B309DF80B30032B72D10420FFF756FA94
:105630006EE00198FFF702FF03906EE0FFF776FA45
:105640000346002B04D0384940F2564002F07AFF5E
:105650000023039361E0FFF769FA0346012B04D0AE
:10566000314940F25C4002F06DFF0020FFF736FA4E
:105670000023039351E0FFF75FFA0346002B03D0AA
:105680000220FFF72BFA02E00120FFF727FA0023A0
:10569000039342E0FFF74AFA0346012B04D822495C
:1056A0004FF48E6002F04EFF0120FFF717FA00233F
:1056B000039332E0009BDB78032B2BD0009B9B787D
:1056C000002B08D0009B9B78802B04D0164940F219
:1056D0007E4002F037FF009BDB781846FFF742FA66
:1056E0000390039B002B0ED1FFF75AFA0346002BC1
:1056F00006D0009B9B78002B0ED10DF0C9F80BE073
:105700000DF0CCF808E00DF0CFF805E000BF04E0A4
:1057100000BF02E000BF00E000BF039B184605B0D9
:105720005DF804FBB00800204840020008B50020E6
:10573000FEF750FF8020FEF74DFF00BF08BD08B503
:105740000020FEF765FF8020FEF762FF00BF08BD66
:1057500000B58DB0039002910192039BDB889BB250
:105760000A93019A0A9B934228BF13460993019A10
:105770000A9B9A420ED280200CF0FCFD03461A468A
:10578000019BB3FBF2F101FB02F29B1A002B01D14A
:10579000012300E000238DF823309DF8233003F02F
:1057A00001038DF82330029B0593099B06939DF816
:1057B00023300793002002F045FD05AB19468020F9
:1057C000FFF700F80B900B9B002B04D106498020BB
:1057D00000F00CF80B90002002F048FD0B9B1846DF
:1057E0000DB05DF804FB00BFE840020000B583B0D7
:1057F000034600918DF807300DF05CF803461A4619
:105800009DF80730934201D0102306E0054B009A23
:1058100092E8030083E803000023184603B05DF814
:1058200004FB00BFF408002082B00190019B002B14
:1058300002D0019B40221A60014B184602B070470B
:10584000B408002082B001900091019BDAB2009B65
:105850001A70019B1A0A009B0133D2B21A70019B85
:105860001A0C009B0233D2B21A70019B1A0E009BD5
:105870000333D2B21A700423184602B0704782B0C4
:105880000190019B1B781B021AB2019B01331B780C
:105890001BB213431BB29BB2184602B0704782B0D2
:1058A0000190019B1B781A46019B01331B781B0258
:1058B0001A43019B02331B781B041A43019B0333D9
:1058C0001B781B061343184602B0704782B0019044
:1058D000019B1B781A06019B01331B781B041A439A
:1058E000019B02331B781B021343019A0332127887
:1058F0001343184602B0704784B001900091019B99
:105900000393039B1ABA009B1A600423184604B041
:105910007047000000B585B00190019B002B0AD0B4
:10592000074B43F001030393019B9B010293039BED
:105930000298984700E000BF05B05DF804FB00BF87
:105940000042020082B003468DF807309DF8073010
:1059500003F01F03DBB2184602B0704782B0034663
:105960008DF807309DF807305B0903F00303DBB2C5
:10597000184602B0704782B003468DF807309DF894
:105980000730DB09DBB2184602B0704782B00190E5
:10599000019B1B7A184602B07047000000B585B025
:1059A00001900B468DF80330019B002B04D10F4969
:1059B0004FF4887002F0C6FD0198FFF7E7FF034639
:1059C0001A469DF80330934201D3002309E0019B5E
:1059D000093303939DF8032013465B001344039A95
:1059E0001344184605B05DF804FB00BFFC400200FC
:1059F00082B00190019B1B78184602B0704782B0BC
:105A00000190019B5B78184602B0704700B585B0E5
:105A100001900B468DF80330019B002B04D10D49FA
:105A200040F2431002F08EFD019B5B789DF803204D
:105A30009A4201D3002309E0019B9B781A46019BFF
:105A4000134403939DF80330039A1344184605B09A
:105A50005DF804FBFC40020082B00190019B1B78C2
:105A6000184602B07047000000B585B0039002915F
:105A70000192039B1B681B68002B03D10749F02090
:105A800002F060FD039B1B681B68019A0299039852
:105A900098470346184605B05DF804FB3441020000
:105AA00000B583B00190019B1B685B68002B03D19C
:105AB0000649FD2002F046FD019B1B685B680198CA
:105AC00098470346184603B05DF804FB34410200D2
:105AD00010B582B001900091019B1B689B68002B60
