:1000000000000420750300005D03000009330000B8
:1000100061030000630300006503000000000000AE
:10002000000000000000000000000000891B01002B
:100030006903000000000000AD1B01006D0300001B
:10004000556D00006F030000656D0000A9BD000044
:10005000C1BD00006F030000716A000041AD0000E7
:10006000E1A90000F9A9000011AA0000ED3200008A
:100070006F0300006F0300006F0300006F030000B8
:100080006F030000891D01006F0300006F03000073
:100090006F0300006F0300006F0300006F03000098
:1000A0006F0300006F0300006F0300006F03000088
:1000B0006F0300006F03000000000000000000005C
:1000C0006F0300006F0300006F03000009CC000005
:1000D0006F0300006F0300006F030000E19B00004E
:1000E0006F030000996E00006F0300000000000025
:1000F000000000006F030000000000006F0300001C
:1001000000000000000000000000000000000000EF
:1001100000000000000000000000000000000000DF
:1001200000000000000000000000000000000000CF
:1001300000000000000000000000000000000000BF
:1001400000000000000000000000000000000000AF
:10015000000000000000000000000000000000009F
:10016000000000000000000000000000000000008F
:10017000000000000000000000000000000000007F
:10018000000000000000000000000000000000006F
:10019000000000000000000000000000000000005F
:1001A000000000000000000000000000000000004F
:1001B000000000000000000000000000000000003F
:1001C000000000000000000000000000000000002F
:1001D000000000000000000000000000000000001F
:1001E000000000000000000000000000000000000F
:1001F00000000000000000000000000000000000FF
:10020000354936480A1A02D0072291438D463449AF
:1002100034480A1A06D00722914381F30988022242
:1002200082F3148830483149314A00F044F83148AB
:100230003149324A00F03FF831483249324A00F041
:100240003AF832483249334A00F035F832483349F7
:10025000334A00F030F833483349344A00F02BF881
:1002600033483449344A00F026F8344834490022EF
:1002700000F02CF833483449002200F027F83348C6
:100280003349091A082902DB002202604160314A21
:1002900090471F481F49884205D00268043003B4C4
:1002A000904703BCF7E700208646EC46002000217B
:1002B000294A9047FEE7884207D0521A05D00378B2
:1002C00001300B700131013AF9D17047884202D0F8
:1002D00002700130FAE770470000042000E00320BC
:1002E0000000042000000420F07201000000002043
:1002F000EC000020D0030000D0030000904101007A
:10030000F0720100000000200000002054420100B3
:100310005442010054420100544201005442010081
:10032000544201005442010054420100F0720100A5
:10033000DC730100EC000020EC000020EC00002049
:10034000043200200432002008320020083200204D
:10035000085200209D03000031D20000FEE7FEE7B6
:10036000FEE7FEE7FEE7FEE7FEE7FEE7FEE7FEE765
:1003700000F002B8FFF7FCBF0F484FF007018843B9
:1003800085460E4880470E48016841F470010160BF
:10039000BFF34F8FBFF36F8FFFF732BF09480A4992
:1003A0000A4A884207D0521A05D0037801300B70F0
:1003B0000131013AF9D17047000004209D05010088
:1003C00088ED00E054420100000000200000002001
:1003D00000487047FC31002000B5A1B005900491A1
:1003E00003920293049804F0D4F8039B1593029BA4
:1003F00016930023179300238DF860300023199380
:10040000229B1A9300231F930FA91F9B0C22049871
:1004100004F098F90C231F93119B1293BDF8403000
:10042000ADF84C30BDF84230ADF84E3000238DF8B9
:1004300051309DF83C3003F00303DBB2012B26D191
:100440000F9BC3F395231C939DF83C30C3F3C20369
:10045000DBB28DF85030BDF83C30C3F38313DBB210
:100460001B931B9B9A0009A91F9B049804F06AF92F
:100470001B9B9B001F9A13441F9312AA09A915AB3B
:10048000009313461B9A1C9800F098FF2FE09DF8EC
:100490003C3003F00303DBB2022B28D1BDF83E3021
:1004A000C3F389139BB21E939DF83C30C3F3C20380
:1004B000DBB28DF850301E9B082B28BF08231D93FC
:1004C00007A91F9B1D9A049804F03CF91F9A1D9BD5
:1004D00013441F931E9A1D9BD31A1E9315AB12AA89
:1004E00007A81D9901F00CF81E9B002BE3D104987E
:1004F00004F05EF800BF21B05DF804FB00B583B0E6
:100500000190019B1B781A460C4B9B5C002B05D07D
:10051000019B0433184607F03BFF0BE0019B1B785F
:100520001A46064B9B5C002B04D1019B0C331846EA
:1005300007F0B6F800BF03B05DF804FB40070020E9
:1005400000B587B00390029113468DF80730002361
:100550000593039B1B781A46114B9B5C002B09D01B
:10056000039B04339DF807200299184607F072FF99
:1005700005900FE0039B1B781A46094B9B5C002BF0
:1005800008D1039B0C339DF807200299184607F009
:10059000FFF80590059B184607B05DF804FB00BF07
:1005A0004007002082B001900091034B01221A7095
:1005B00000BF02B0704700BF2C01002030B58DB0E5
:1005C00003468DF807301A4B02AC1D460FCD0FC401
:1005D00095E80F0084E80F00062302934FF0FF33E5
:1005E00003934FF0FF3304934FF0FF3305934FF025
:1005F000EB7308939DF80730002B01D00D4A00E003
:10060000002202AB19460C4805F00EF90B900B9B2B
:100610000A930A9B002B04D0084A43210A9801F050
:1006200033F8074A9DF80730137000BF0DB030BD96
:10063000BC420100A505000000000020544201005A
:100640002D01002000B589B0039002910192019B19
:100650008DF81F30124B00221A709DF81F301A4679
:1006600002991048FFF76CFF0690069B0593059BC7
:10067000002B04D00C4A5321059801F005F800BF67
:100680000A4B1B78002B07D0054B1B78DBB283F09D
:100690000103DBB2002BF3D100BF09B05DF804FB0E
:1006A0002C01002000000020544201002D010020F8
:1006B00000B585B003900291054B00934023054A95
:1006C00002990398FFF788FE00BF05B05DF804FBB0
:1006D00045060000EC00002082B0019000BF02B08F
:1006E0007047000000B583B001900548FFF706FF92
:1006F0000020FFF763FF00BF03B05DF804FB00BFFD
:100700000000002000B583B001900091019B1B68A0
:100710001B6800990198984700BF03B05DF804FB7F
:1007200000B583B00190019B1B685B6801989847F6
:1007300000BF03B05DF804FB00B583B00190019BDE
:100740001B689B680198984700BF03B05DF804FBE5
:1007500082B00190019BDB6801225A7100BF02B098
:10076000704782B00190019BDB685B79184602B04C
:1007700070470000024A034BD31ADB081846704743
:10078000304201009041010000B587B001900B4656
:100790008DF803309DF80330002B1FD0FFF7EAFFE0
:1007A00004900023059313E0059B9B000E4A13441D
:1007B0000393039B1B881A46019B1B689A4204D132
:1007C000019B059A1A60002309E0059B01330593FC
:1007D000059A049B9A42E7D3052300E000231846BC
:1007E00007B05DF804FB00BF0000002000B585B035
:1007F00001900B468DF803309DF8032001AB1146A4
:100800001846FFF7C1FF0346002B07D1019BDB0011
:10081000054A13440393039B1B6800E0002318461A
:1008200005B05DF804FB00BF9041010084B0019069
:100830000B468DF80330019BDB00174A13440293EB
:100840009DF80330013B032B1CD801A252F823F082
:100850006108000069080000710800007B080000C2
:1008600002238DF80F3011E004238DF80F300DE0D6
:10087000029B1B798DF80F3008E0029B5B798DF8A5
:100880000F3003E000238DF80F3000BF9DF80F30CC
:10089000184604B0704700BF9041010084B0019039
:1008A000009100238DF80F30019B1B7803F00403A7
:1008B000DBB2002B24D0019B1B78C3F30103DBB216
:1008C000012B02D0022B0CD017E0009B1B68019A71
:1008D0001288C2F38312D2B21344DA1C009B1A604E
:1008E0000BE0009B1B68019A5288C2F3891292B2F6
:1008F0001344DA1C009B1A6000BF01238DF80F30EF
:100900009DF80F30184604B07047000000B58BB05A
:100910000023ADF826303E4802F091FE3D4802F03B
:100920008EFE3D4B9B6804933C4B1B680693049AD8
:10093000069B134002339B00374A13440433089349
:1009400004AB19460898FFF7A9FF0346002B09D00E
:10095000049A069B134002339B002F4A134404332E
:100960000893EDE700BF0023079311E0049B5A1C96
:100970000492069A1340079A920001A90A44264954
:1009800002339B000B445B681360079B01330793A2
:10099000079B022BEAD99DF80430C3F30103DBB2B5
:1009A000012B10D0022B1CD1BDF80A30ADF8263037
:1009B000BDF80630C3F389139BB203339A08049B36
:1009C0001344049313E0BDF80A30ADF82630BDF8A7
:1009D0000430C3F38313DBB21A46049B134404931D
:1009E00005E00F494FF4C27002F09CFD00BF0948BA
:1009F00002F031FE0590059B002B02D0049B064AB5
:100A00009360BDF8263018460BB05DF804FB00BFBC
:100A10001806002014060020000200201C00002000
:100A20006C43010000B585B00021074802F090FD3D
:100A30000390039B0293029B83F310030193019B9A
:100A4000184605B05DF804FB1C06002010B588B000
:100A50000390029101920093039B1B0C0793FFF7F5
:100A6000E1FF0690FFF786FE0246079B934204D300
:100A7000284940F2A91002F055FD069B1904009B7D
:100A80005A1C0A9B1340079A0A43234902339B00CE
:100A90000B445A60204BD3F80C34009A911C0A9AEC
:100AA00001EA0204984702461B49A31C9B000B4421
:100AB0005A60009A0A9B134002339B00164A134463
:100AC00004330593039B03F00703D9B2059A137807
:100AD00061F3C5031370019B03F00F03D9B2059AAC
:100AE000138861F389131380029BC3F31501059AE0
:100AF000136861F39F231360059A1378012161F352
:100B000001031370059A13786FF38203137000BF0B
:100B100008B010BD6C4301000002002000BF704708
:100B200000B58BB00390029113468DF80730039BFC
:100B30000333089301238DF81F30002002F08EFB51
:100B40003E4B5A68029B1A603D4B1A683B4B9968B2
:100B50003A4B5B68CB1A13440133099314E001212B
:100B6000384802F03CFDFFF7D1FE05900599354865
:100B700002F035FD324B1A68304B99682F4B5B6899
:100B8000CB1A134401330993089A099B9A42E6D879
:100B90009DF81F30002B48D0002304939DF80730A8
:100BA000002B17D09DF81030012262F301038DF85D
:100BB00010309DF8103043F004038DF81030039B83
:100BC00003F00F03DAB2BDF8103062F38913ADF809
:100BD000103016E09DF81030022262F301038DF808
:100BE00010309DF8103043F004038DF81030039B53
:100BF000C3F309039AB2BDF8123062F38F13ADF854
:100C000012300E4B5A680E4B1B68134002339B0088
:100C10000A4A134404330693049A069B1A60074B4E
:100C20005A68089B1344054A5360002002F02AFBCF
:100C30009DF81F3018460BB05DF804FB0002002041
:100C40001C0000201C06002000B58BB0059004910C
:100C500003920293204B1B68079306AB01221946AF
:100C60000298FFF75DFF0346002B24D0069B033359
:100C700009930023089311E0089B9B00039A1A44F0
:100C8000099B591C099107990B40126813490233BB
:100C90009B000B445A60089B01330893089A029BFF
:100CA0009A42E9D3069A079B00931346029A049945
:100CB0000598FFF7CBFE094B1B78002B05D000BF32
:100CC00000F098F80346002BFAD1FFF727FF00BF8A
:100CD0000BB05DF804FB00BF1C00002000020020E8
:100CE00000B583B001900091002300220099019883
:100CF000FFF7AAFF00BF03B05DF804FB00B587B0A3
:100D0000039002910192019B059305AA0123029988
:100D10000398FFF799FF00BF07B05DF804FB00B52B
:100D200087B00390029101920093019B0493009B72
:100D3000059304AA022302990398FFF785FF00BFD9
:100D400007B05DF804FB00B589B0039002910192F1
:100D50000093019B0593009B06930A9B079305AAAA
:100D6000032302990398FFF76FFF00BF09B05DF8F6
:100D700004FB00B589B00390029101920093019B9E
:100D80000493009B05930A9B06930B9B079304AA6D
:100D9000042302990398FFF757FF00BF09B05DF8DD
:100DA00004FB00B58BB00390029101920093019B6C
:100DB0000593009B06930C9B07930D9B08930E9B3A
:100DC000099305AA052302990398FFF73DFF00BF89
:100DD0000BB05DF804FB0000054B9A68044B5B68A0
:100DE0009A420CBF01230023DBB21846704700BFB4
:100DF0000002002000B599B0FFF7EEFF0346002B7C
:100E000001D00023B9E19B4B0022C3F81824BFF3A3
:100E10004F8F00BF974B9B680493974B1B681093B1
:100E2000049A109B134002339B00924A13440433EC
:100E30001193002317930023169300230F9304AB01
:100E400019461198FFF72AFD0346002B19D0894B4C
:100E5000D3F81834002B14D1864B5A68049B9A425D
:100E600005D8844B5B68834A9360002385E1049A2C
:100E7000109B134002339B007E4A134404331193AA
:100E8000DDE70023159311E0049B5A1C0492109A8D
:100E90001340159A920001A90A44764902339B0037
:100EA0000B445B681360159B01331593159B022B54
:100EB000EAD99DF8043003F00303DBB2022B40F0C3
:100EC0009C80BDF80630C3F389139BB20D93BDF827
:100ED0000630C3F389139BB2502B28BF50239BB21B
:100EE0000C930C9BC3F309039AB2BDF8063062F36E
:100EF0008F13ADF806300C9B0C330B939DF8043028
:100F0000C3F3C203DBB20F930B995C4803F0B0FA52
:100F10001790179B002B00F0D380179803F039FB34
:100F200001A9169B0C22179803F0EEFB169B0C33BD
:100F30001693049BDA43109B134001339B000A93E2
:100F40000C9A0A9B9A4242D90A9B002B08D0049A19
:100F5000109B134002339B00464A1344043300E0C5
:100F6000474B08930A9B002B02D00A9BDBB201E09F
:100F70000C9BDBB28DF81F300A9B002B01D0404B3D
:100F800000E0002306930A9B002B06D00C9BDAB2EC
:100F90000A9BDBB2D31ADBB200E000238DF81730D6
:100FA0009DF81F20169B0899179803F0ADFB9DF83C
:100FB0001F30169A13441693069B002B16D09DF8EB
:100FC0001720169B0699179803F09EFB0EE0049AD3
:100FD000109B134002339B00264A134404330993A9
:100FE000169B0C9A0999179803F08EFB0D9B0333FF
:100FF0009A08049B1344049362E09DF8043003F0C4
:101000000303DBB2012B5BD1BDF80430C3F38313C0
:10101000DBB2062B28BF0623DAB2BDF8043062F338
:101020008913ADF80430BDF80430C3F38313DBB289
:1010300003330E939DF80430C3F3C203DBB20F9366
:101040000E9B9B0019460D4803F012FA1790179B50
:10105000002B35D0179803F09CFA01A9169B0C229F
:10106000179803F051FB169B0C331693002315932E
:101070001DE000BF000200201C00002040420100D3
:101080000C020020049B5A1C0492109A1340023355
:101090009B003C4A1344191D169B0422179803F029
:1010A00033FB169B04331693159B01331593BDF840
:1010B0000430C3F38313DBB21A46159B9342E1D38A
:1010C000179B002B39D02F4BD3F8103414932D4B92
:1010D000D3F81834002B1BD0179803F069FA46E0B8
:1010E00000238DF84F301498FFF73BFB0346002B8D
:1010F00002D001238DF84F309DF84F30002B03D0E4
:1011000017991498FFF7FEFA149BDB681B68149379
:10111000149B002BE4D1179803F04AFA002002F048
:101120009DF8184BD3F81834002B02D1049B154AB4
:101130009360002002F0A6F819E0124BD3F81034A7
:10114000129306E01298FFF7F7FA129BDB681B6810
:101150001293129B002BF5D10B4A0C4BD31ADB08D0
:101160001B0443F002030A491846FFF7B9FDFFF7D5
:1011700033FE034683F00103DBB2184619B05DF875
:1011800004FB00BF00020020E84101009041010083
:10119000D043010000B583B00C4BD3F81034019359
:1011A0000A4B01221A7009E00198FFF7D1FA019861
:1011B000FFF7B6FA019BDB681B680193019B002BCC
:1011C000F2D100BF00BF03B05DF804FB00020020B5
:1011D00000B58DB0059004912F4B1B68049AB2FBAB
:1011E000F3F304932D4B1B68049AB2FBF3F30B93B8
:1011F0000B9B2B4AA2FB0323DB0A0A930A9B4FF4A7
:10120000616202FB03F30B9AD31A0B930B9B254AE3
:10121000A2FB03235B090993099A13461B019B1A3E
:101220009B001A460B9B9B1A0B931C4B1A68049B42
:10123000B3FBF2F101FB02F29B1A0893089B4FF4F7
:101240007A7203FB02F2154B1B68B2FBF3F30793B0
:10125000089B4FF47A7203FB02F2104B1B6807994C
:1012600001FB03F3D31A4FF47A7203FB02F20B4B28
:101270001B68B2FBF3F30693069B0293079B019353
:101280000B9B0093099B0A9A0749059802F044FDBD
:1012900000BF0DB05DF804FB2406002020060020EE
:1012A000C5B3A291898888884C44010010B584B0E8
:1012B00003900291039BDB88002B0AD0039BDB8801
:1012C0001A461F4B009313461E4A1F49029802F00C
:1012D00023FD039B1B7A052B2ED0039B5B7A002BEF
:1012E00012D0039B9B881A46039B1B7A1946104613
:1012F000FFF79CFA03461A46144B53F822301A465D
:101300001349029802F008FD039B1B6819460298D6
:10131000FFF75EFF039B1B7A1A460E4B53F82240E1
:10132000039B9B8800211846FFF760FA034622467C
:101330000949029802F0F0FC00BF04B010BD00BFE4
:1013400004440100144401006844010034000020FA
:1013500080440100200000208444010000B585B0D5
:101360000390029113468DF80730039B1B7A052BDF
:101370000FD0039B5B7A002B06D00D4B1B681A46DF
:101380000C49029802F0C8FC0B49029802F0C4FC18
:1013900007E09DF80730002B03D00749029802F0C0
:1013A000BBFC029802F096FC00BF05B05DF804FBA0
:1013B00034000020804401009044010030B58BB01F
:1013C00007900691059204930E9B1B7B8DF82730A6
:1013D0000E9B00221A730E990498FFF767FF059B76
:1013E000062B7FD801A252F823F000BF0914000099
:1013F00013140000231400003714000055140000DB
:101400007D140000AD14000007990E9802F084FCD2
:1014100069E0069B1B681A4607990E9802F07CFC4F
:1014200061E0069B1A68069B04331B6807990E98B7
:1014300002F072FC57E0069B1A68069B0433196899
:10144000069B08331B6800930B4607990E9802F021
:1014500063FC48E0069B1968069B04331868069BEA
:1014600008331B68069A0C321268019200930346F7
:101470000A4607990E9802F04FFC34E0069B186864
:10148000069B04331C68069B08331B68069A0C32C3
:10149000126806991031096802910192009323465F
:1014A000024607990E9802F037FC1CE0069B1C6868
:1014B000069B04331D68069B08331B68069A0C3292
:1014C0001268069910310968069814300068039074
:1014D0000291019200932B46224607990E9802F042
:1014E0001BFC00E000BF00220E990498FFF736FFB6
:1014F0000E9B9DF827201A7300BF0BB030BD00BFB4
:1015000000B587B00390029101920093029B082BD3
:1015100060D8009B1B7B8DF81330009B00221A7350
:1015200000990198FFF7C2FE0023059314E0059A85
:10153000029B9A4209D2039A059B13441B781A46D0
:101540002649009802F0E8FB03E02549009802F0E4
:10155000E3FB059B01330593059B072BE7D9214945
:10156000009802F0D9FB0023059326E0059A029B20
:101570009A421BD2039A059B13441B788DF81230B4
:101580009DF812307E2B0AD89DF81230184611F0C3
:10159000ADFC0346002B02D09DF8123000E02E2354
:1015A0001A461149009802F0B7FB03E00F49009872
:1015B00002F0B2FB059B01330593059B072BD5D9A0
:1015C000012200990198FFF7C9FE009B9DF81320A6
:1015D0001A7300E000BF07B05DF804FB94440100FB
:1015E0009C440100A0440100A4440100A84401005F
:1015F00086B003900291019201238DF817309DF877
:101600001730204A039B13601E4A029B53601D4AF9
:10161000019B9360039B44F20102934212D0039B0F
:1016200044F20202934220D1019B164AD360154B2B
:10163000DB681B68134A9361124BDB685B68114AD5
:10164000D36112E0019B0F4A13610E4B1B699B682B
:101650000C4A53610B4B1B691B680A4A9361094B87
:101660001B695B68074AD36100BF72B600BF00BF49
:101670009DF81730DBB2002BFAD162B600BF00BF75
:1016800006B070472806002000B583B00290009194
:10169000019244F2010071466A4600F003F803B07B
:1016A00000BD00BF30B58BB007900691059272B6B1
:1016B00000BFFFF76FFD00BFFFF79CFB0346002B49
:1016C000FAD1079B44F20102934216D0079B44F2E1
:1016D000020293423ED1059B09932C4A2C4BD31A0C
:1016E000DB081B0443F00100099B5B681A46099B59
:1016F0001B682849FFF713FB39E0059B0893234A31
:10170000234BD31ADB081B0443F00104089B9D689C
:10171000089B9B68184603F035F803461846089B5B
:101720005B681946089B1B68069A02920193009118
:1017300003462A4618492046FFF733FB134A144B49
:10174000D31ADB081B0443F0010314491846FFF7C2
:10175000C7FA0CE00D4A0E4BD31ADB081B0443F00A
:101760000103069A0E491846FFF7C8FA00BF0D4B51
:101770001B6803F00103002B00D000BE059A0699F8
:101780000798FFF735FF00BF0BB030BDE8410100FF
:101790009041010014450100304501005845010009
:1017A0006C450100F0ED00E000B583B00190019BB5
:1017B0001B68184600F0B1F80346002B04D10B4912
:1017C0004FF4F67001F0AEFE019B1B681F2B02D890
:1017D0004FF0A04306E0019B1B6803F01F02019B32
:1017E0001A60034B184603B05DF804FB8445010002
:1017F0000003005000B585B00190084611461A4616
:1018000003468DF803300B468DF8023013468DF8F1
:10181000013001AB1846FFF7C7FF03909DF8032086
:101820009DF802305B001A439DF801309B001A437B
:101830009DF818301B0242EA03019DF81C301B047E
:10184000019A1943039B02F5E07243F8221000BF8E
:1018500005B05DF804FB00B585B00390002301934B
:10186000002300930023012201210398FFF7C2FF08
:1018700000BF05B05DF804FB00B585B003900B46D2
:101880008DF80B309DF80B3000220192002200925F
:10189000002200210398FFF7ADFF00BF05B05DF8FF
:1018A00004FB00B585B0019001AB1846FFF77CFF43
:1018B0000390019B012202FA03F31946039800F0FA
:1018C00018F800BF05B05DF804FB00B585B00190C5
:1018D00001AB1846FFF768FF0390019B012202FA53
:1018E00003F31946039800F00EF800BF05B05DF849
:1018F00004FB82B001900091019B009AC3F8082577
:1019000000BF02B0704782B001900091019B009A25
:10191000C3F80C2500BF02B0704784B00190019B52
:101920005B09029300230393029B002B03D0029BCD
:10193000012B04D007E04FF0FF33039303E04FF691
:10194000FF73039300BF019B03F01F030193039AEE
:10195000019B22FA03F303F00103002B14BF0123C0
:101960000023DBB2184604B0704782B001900091AA
:10197000009A019BC3F8242500BF02B0704700B550
:1019800083B00190019B043318460AF045FF00BF65
:1019900003B05DF804FB00B58FB003900291009393
:1019A00013468DF8073000230D93029B09939DF891
:1019B00007300A93009B0B939DF840300C93039BD8
:1019C000043309A9002218460BF074F80D900D9B02
:1019D00018460FB05DF804FB00B589B0059003927E
:1019E0001A460B468DF8133013468DF812300F4B04
:1019F00093F858301846FFF768FF9DF813209DF8BC
:101A000012300093039B05990948FFF7C4FF079024
:101A1000079B0693069B002B04D0064AF0210698EC
:101A2000FFF732FE00BF09B05DF804FB4806002056
:101A300004460100A845010008B5044B4FF0804161
:101A40001846FFF792FF00BF08BD00BF00300240FC
:101A500088B00190019B1B789B098DF81F309DF881
:101A60001F30022B06D0022B49DC002B02D0012BA9
:101A700030D044E0019B08331B789B09DBB21A4647
:101A8000019B07331B789B001A44019B06331B788C
:101A90009B0203F4406313440593019B05331B78B9
:101AA00003F00F030493019B0A331B78DB09DBB2BD
:101AB0001A46019B09331B785B0003F006031344AD
:101AC0000393059B5A1C0499039B0B44073B02FAA2
:101AD00003F316E0019B09331B781A46019B083378
:101AE0001B781B021A44019B07331B781B0403F469
:101AF0007C1313440693069B01339B0201E000BF55
:101B00000023184608B0704700B585B00346009121
:101B10008DF8073013468DF80630594B93F8233073
:101B2000002B01D01123A7E000238DF80F30544B78
:101B3000012283F823209DF90730002B1EDA0623AB
:101B40008DF80F304E4B022283F823204C4B772226
:101B500083F828204A4B002283F82920484B002292
:101B600083F82A20464B002283F82B20444B002286
:101B700083F82C20424BFF2283F82D209DF80F3054
:101B80009DF8072002F07F02D1B23D4A13440A4675
:101B900083F82820009B1A0E9DF80F300133D1B234
:101BA000374A13440A4683F82820009B1A0C9DF8F4
:101BB0000F300233D1B2324A13440A4683F8282048
:101BC000009B1A0A9DF80F300333D1B22C4A1344FC
:101BD0000A4683F828209DF80F300433009AD1B2CA
:101BE000274A13440A4683F828209DF80730402BE3
:101BF00002D0482B04D007E095238DF80E3007E083
:101C000087238DF80E3003E0FF238DF80E3000BFE0
:101C10009DF80F3005331A4A13449DF80E2083F8BF
:101C200028209DF80630022B02D0032B05D009E0B6
:101C3000134B052283F8242009E0114B052283F879
:101C4000242004E00E4B012283F8242000BF9DF9DC
:101C50000730002B03DB0A4B93F8243000E001230C
:101C60008DF80D309DF80D300E33DBB2054A06219C
:101C70000548FFF7B1FE0023184605B05DF804FBE8
:101C800048060020800600207006002000B589B0BC
:101C9000039001930B468DF80B301346ADF80830D6
:101CA00001238DF81F30AA4BDB8BB3F5F67F00F0D4
:101CB0003281B3F5F67F00F34081B3F5F07F00F099
:101CC0000B81B3F5F07F00F3388140F2D9129342D3
:101CD00000F0E380B3F5ED7F80F22F81002B05D07B
:101CE00040F2C712934200F09E8026E1BDF8083012
:101CF000002B04D197494FF4C87001F013FC944BAA
:101D00009B8A002B04D1934940F2911001F00AFC08
:101D10008F4B9A8A8E4BDA82E7E08D4B00221A8431
:101D20008B4BFF2283F82820894B00221A83884B93
:101D3000032283F823207CE0854B1B8C01339AB26D
:101D4000834B1A84824B1B8C44F6206293420FD93A
:101D5000019B02221A707E4B0022DA830223F3E0F9
:101D6000039B013303939DF80B30013B8DF80B303F
:101D70009DF80B30002B03D0039B1B78FF2BEFD07B
:101D80009DF80B30002B41D0039B1B78FE2B35D1E7
:101D9000039B013303939DF80B30013B8DF80B300F
:101DA0006B4B042283F823209DF80B309BB2BDF8C7
:101DB0000820934228BF1346ADF814300023069341
:101DC0000BE0039A069B1A44614BD968069B0B44AF
:101DD00012781A70069B01330693BDF81430069AE8
:101DE0009A42EED35A4ABDF814301383584BDA683E
:101DF000BDF814301344564AD3601AE0019B052203
:101E00001A70534B0022DA8302239DE01023524ABA
:101E100001215248FFF7E0FD00238DF81F304C4BA5
:101E200040F2C712DA839DF81F30002B01D1012345
:101E30008AE0474B93F82330032B3FF47DAF32E029
:101E4000434B1B8BBDF80820D31AADF81630BDF8F4
:101E50001630F02B02D9F023ADF816303C4BDA687F
:101E6000BDF81630DBB201213C48FFF7B5FD384B19
:101E7000DA68BDF816301344354AD360344B1A8BF8
:101E8000BDF8163013449AB2314B1A8300238DF8F3
:101E90001F302F4B40F2D912DA839DF81F30002BF0
:101EA00001D1012350E02A4B1B8BBDF808209A4238
:101EB000C6D8274BDB8A013B9AB2254BDA82022334
:101EC000254A01212548FFF787FD00238DF81F30A3
:101ED0001F4B4FF4F072DA839DF81F30002B01D1B5
:101EE000012331E000238DF80B30194BDB8A002BE6
:101EF0007FF413AF164BFF2283F828200223164AE3
:101F000001211648FFF768FD00238DF81F30104BA4
:101F10004FF4F672DA839DF81F30002B01D10123B4
:101F200012E00B4B002283F82320019B00221A7041
:101F3000074B0022DA83022306E000238DF81F30CE
:101F4000034B0022DA830323184609B05DF804FB33
:101F500048060020A84501008006002070060020E9
:101F600000B593B003900B4601928DF80B30039BA4
:101F70001B788DF84730039B01331B781A06039BAF
:101F800002331B781B041A43039B03331B781B0289
:101F90001343039A043212781343109301238DF8EC
:101FA0004630BE4B9B8BB3F51C7F00F3EB82B3F541
:101FB000137F16DCB3F50E7F00F08C81B3F50E7F36
:101FC00000F3E082002B00F09380002BC0F2DA8255
:101FD00040F22622934200F3D582B3F5047F51DA12
:101FE000D0E2A3F24D23232B00F2CC8201A252F8BF
:101FF00023F000BF95230000852500008525000003
:10200000852500008525000085250000FB230000B4
:102010008525000085250000852500008525000018
:102020008525000085250000852500008525000008
:1020300085250000852500008525000085250000F8
:1020400085250000772400008525000085250000F7
:1020500085250000852500008525000085250000D8
:10206000852500008525000085250000DB24000073
:1020700085250000852500008525000085250000B8
:1020800021250000A3F50473162B00F27B8201A228
:1020900052F823F02121000085250000852500004D
:1020A0005D210000852500008525000085250000B4
:1020B0008525000085250000B7210000852500004A
:1020C0008525000085250000852500008525000068
:1020D0008525000085250000852500008525000058
:1020E000852500008525000085250000452200008B
:1020F000012200214020FFF707FD0F900F9B0E9358
:102100000E9B002B05D0664A40F20F210E98FFF778
:10211000BBFA00238DF84630604B4FF404729A836B
:102120009DF84630002B01D1012332E2012200212B
:102130004020FFF7E9FC0F900F9B0D930D9B002BA8
:1021400005D0574A40F212210D98FFF79DFA00235F
:102150008DF84630514B40F213229A839DF8463059
:10216000002B01D1012314E29DF8473023F0030333
:10217000002B07D0019B04221A70484B00229A833F
:10218000022306E203224FF4D5714820FFF7BCFC7E
:102190000F900F9B0C930C9B002B05D0404A4FF4E3
:1021A00006710C98FFF770FA00238DF846303B4B10
:1021B00040F219229A839DF84630002B01D1012369
:1021C000E7E19DF8473003F00403002B13D1334AB5
:1021D000937A032161F3020393729DF8473023F051
:1021E0000303002B07D0019B04221A702B4B002203
:1021F0009A830223CDE1294B00221A84274B9B7A34
:1022000003F00703DBB2032B02D14FF0804300E061
:1022100000230B9302220B99E920FFF775FC0F9026
:102220000F9B0A930A9B002B05D01D4A40F22521E3
:102230000A98FFF729FA00238DF84630174B40F231
:1022400026229A839DF84630002B01D10123A0E17C
:102250009DF8473003F00403002B56D00F4A937AC1
:10226000012161F3020393729DF8473023F00403C8
:102270008DF84730094B1B8C01339AB2074B1A84F7
:10228000064B1B8CB3F5FA6F0CD9019B02221A7016
:10229000024B00229A8302237BE100BF4806002004
:1022A000A8450100022200214120FFF72DFC0F90DC
:1022B0000F9B0793079B002B05D0A64A40F23721BE
:1022C0000798FFF7E1F900238DF84630A24B4FF451
:1022D0000E729A839DF84630002B01D1012358E1FC
:1022E0009DF8473023F00303002B07D0019B042205
:1022F0001A70994B00229A8302234AE19DF84730D5
:1023000003F00103002BB5D195E09DF8473023F091
:102310000303002B52D0019B04221A708E4B002223
:102320009A83022335E18C4B1B8C01339AB28A4B82
:102330001A84894B1B8CB3F5FA6F07D9019B0222D3
:102340001A70854B00229A83022322E1824B9B7AEA
:1023500003F00703DBB2032B02D14FF0804300E010
:1023600000230B9302220B99E920FFF7CDFB0F907E
:102370000F9B0893089B002B05D0764A4FF41371EE
:102380000898FFF781F900238DF84630724B40F230
:102390004D229A839DF84630002B01D10123F8E0AD
:1023A0009DF8473023F00303002B08D0019B042243
:1023B0001A70694B00229A830223EAE000BF9DF85D
:1023C000473003F00103002BADD1022200217A2017
:1023D000FFF79AFB0F900F9B0993099B002B05D0E9
:1023E0005C4A40F252210998FFF74EF900238DF81C
:1023F0004630594B40F253229A839DF84630002BC9
:1024000001D10123C5E09DF8473023F00303002BE1
:1024100007D0019B04221A704F4B00229A8302239B
:10242000B7E0109B03F08043002B04D04A4A937A14
:1024300043F008039372484B9B7A03F00703DBB227
:10244000032B2CD001224FF400715020FFF75CFBCE
:102450000F900F9B0693069B002B05D03D4A4FF42F
:1024600018710698FFF710F900238DF846303A4BA3
:1024700040F261229A839DF84630002B01D101235E
:1024800087E09DF8473023F00303002B07D0019B22
:1024900004221A70304B00229A83022379E02E4BDB
:1024A0002E4ADA602C4B01229A8201220021492017
:1024B000FFF72AFB0F900F9B0593059B002B05D080
:1024C000244A40F26A210598FFF7DEF800238DF8D0
:1024D0004630214B40F26B229A839DF84630002B08
:1024E00001D1012355E09DF8473023F00303002B71
:1024F00007D0019B04221A70174B00229A830223F3
:1025000047E0039B013303939DF80B30013B8DF8AB
:102510000B30114B0022DA830F4B4FF41C729A835D
:102520000DF113039DF80B1010220398FFF7AEFB7B
:102530000346012B01D800232BE09DF81330002B1C
:102540000ED09DF81320019B1A70034B00229A8332
:1025500002231EE0A8450100480600209006002046
:102560000E48FFF775FA03460D4A53600C4B4FF4C3
:1025700000721A81019B00221A70094B00229A8373
:10258000022306E000238DF84630054B00229A8393
:102590000323184613B05DF804FB00BF900600202B
:1025A0004806002000B589B003900B4601928DF8D3
:1025B0000B3001238DF81F30404B9B8B40F2A22241
:1025C000934261D040F2A22293426BDC002B03D0F5
:1025D000B3F5267F21D065E0039B1B788DF81E3074
:1025E0009DF81E3023F00303002B07D0019B04222B
:1025F0001A70324B00229A8302235AE0039B013364
:1026000003939DF80B30013B8DF80B302B4B0022D0
:10261000DA832A4B4FF426729A830DF113039DF847
:102620000B104FF400720398FFF730FB0346012BA9
:1026300001D800233DE09DF81330002B08D09DF811
:102640001320019B1A701D4B00229A83022330E055
:102650001A4B9B8A012B1DD9012200214C20FFF728
:1026600053FA0690069B0593059B002B05D0144A50
:1026700040F2A1210598FFF707F800238DF81F30DD
:102680000E4B40F2A2229A839DF81F30002B01D1FD
:1026900001230EE0019B00221A70084B00229A834E
:1026A000022306E000238DF81F30044B00229A839A
:1026B0000323184609B05DF804FB00BF480600205C
:1026C000A845010000B58DB003900B4601928DF82E
:1026D0000B3001238DF82F30AC4B9B8BB3F54C7F27
:1026E00000F0C781B3F54C7F00F3EC81B3F5487F70
:1026F00000F09081B3F5487F00F3E48140F20A32A4
:10270000934200F03A8140F20A32934200F3DA81B8
:10271000B3F53B7F00F0E380B3F53B7F00F3D2815C
:10272000B3F5397F00F0B880B3F5397F00F3CA8183
:1027300040F2D322934200F08180B3F5357F80F2DE
:10274000C181002B04D040F2C322934237D0B9E1BB
:10275000039B1B788DF823309DF8233023F003036F
:10276000002B07D0019B04221A70884B00229A8309
:102770000223AEE1854B9B7A03F00703DBB2012B0A
:1027800035D0824B9B8A012B31D9804B1B690122AA
:1027900019465920FFF7B8F90790079B0693069B47
:1027A000002B05D07A4A40F2C2210698FEF76CFF52
:1027B00000238DF82F30754B40F2C3229A839DF889
:1027C0002F30002B01D1012383E1039B1B788DF86F
:1027D00023309DF8233023F00303002B07D0019B07
:1027E00004221A70694B00229A83022371E1674B1D
:1027F0009A8A664BDA82EFE0644B00221A83634BBD
:10280000042283F82320614BFF2283F828205F4BAA
:102810009B8A012B01D9FC2200E0FE225B4B83F84E
:10282000292002235B4A02215B48FFF7D5F80023E9
:102830008DF82F30554B40F2D3229A839DF82F30DC
:10284000002B2FD1012344E1504B1B8BC3F50073A8
:10285000ADF82C30BDF82C30F02B02D9F023ADF8B8
:102860002C304A4BDB68494A128B9818BDF82C3043
:10287000D9B20123474AFFF7AFF8444B1A8BBDF892
:102880002C3013449AB2414B1A8300238DF82F3019
:102890003E4B4FF439729A839DF82F30002B02D1B2
:1028A000012316E100BF394B1B8BB3F5007FCBD35F
:1028B000364BDB6803F50073344AD360334B032295
:1028C00083F823200323334A01213348FFF784F898
:1028D00000238DF82F302D4B4FF43B729A839DF8D7
:1028E0002F30002B01D10123F3E0284B93F83A302D
:1028F00003F01F038DF817309DF81730052B17D004
:102900009DF817300B2B03D09DF817300D2B07D1F6
:10291000019B05221A701D4B00229A830223D8E0E6
:10292000019B04221A70194B00229A830223D0E0E3
:10293000164B00221A8444E0144B1B8C01339AB2CC
:10294000124B1A84114B1B8C44F62062934207D918
:10295000019B02221A700D4B00229A830223B8E0D9
:1029600010230C4A01210C48FFF736F800238DF89C
:102970002F30064B40F20A329A839DF82F30002BFD
:1029800001D10123A5E000230A9315E048060020A9
:10299000A84501008006002070060020039A0A9BCB
:1029A00013441B78002B04D04C4B002283F82320C7
:1029B00007E00A9B01330A939DF80B300A9A9A426A
:1029C000ECD3464B93F82330032BB5D0434BDB8A33
:1029D000013B9AB2414BDA82404BDB8A002B7FF4F9
:1029E0000BAF3E4B9B8A012B64D93C4BFF2283F8F3
:1029F00028203A4BFD2283F829200323384A02215C
:102A00003848FEF7E9FF00238DF82F30334B4FF4A1
:102A100048729A839DF82F30002B01D1012358E092
:102A20002E4B00221A842D4B032283F823203CE0F6
:102A30002A4B1B8C01339AB2284B1A84274B1B8CD0
:102A400044F62062934207D9019B02221A70234B5D
:102A500000229A8302233CE01023214A01212148CD
:102A6000FEF7BAFF00238DF82F301C4B4FF44C7249
:102A70009A839DF82F30002B01D1012329E00023F8
:102A800009930DE0039A099B13441B78002B04D093
:102A9000124B002283F8232007E0099B013309939E
:102AA0009DF80B30099A9A42ECD30C4B93F82330E3
:102AB000032BBDD0019B00221A70084B00229A8381
:102AC000022306E000238DF82F30044B00229A8366
:102AD000032318460DB05DF804FB00BF4806002034
:102AE000800600207006002000B58BB00190009198
:102AF000019BDB680993019B1B7C8DF82330A24B63
:102B0000DB8A002B05D1A04B93F858301846FEF70E
:102B1000C8FE9D4B93F82330022B05D09A4B93F8B7
:102B20002330012B40F0C0809DF82330062B04D8C1
:102B3000964940F2573000F0F5FC9DF82330063BF3
:102B40008DF82330099B06330993019B5B681B7842
:102B50004C2B14D19DF82330002B10D09DF823303E
:102B6000013B8DF82330099B0133099307E09DF861
:102B70002330013B8DF82330099B013309939DF8E5
:102B80002330002B03D0099B1B78FF2BEFD09DF83F
:102B90002330002B0FD1019B5B681B784C2B08D195
:102BA0009DF8233001338DF82330099B013B0993B5
:102BB00001E000230993099B002B53D1724B93F83A
:102BC0002230DBB2012B4DD001238DF809306E4B42
:102BD00093F82230DBB2052B21D0052B23DC022B0E
:102BE00002DC002B03DC1EE0042B14D01BE00023CE
:102BF0008DF80830644B032283F8222000F0C2FADB
:102C00000790079B002B1AD0604A40F28331079847
:102C1000FEF73AFD13E001238DF8083012E002239D
:102C20008DF808300EE003230693069B002B08D096
:102C3000564A4FF463710698FEF726FD01E000BF87
:102C400000E000BF504B93F858301846FEF729FEBD
:102C50004D4B032283F822204B4B1B6802AA1046DF
:102C60009847D9E0484B93F82330022B18D1464BB4
:102C7000012283F82320099B1B788DF817309DF8DB
:102C8000173023F00103002B0AD141483E4B93F843
:102C900024300E33DBB23F4A0621FEF79DFEBBE037
:102CA000394B002283F8232006238DF80F30364B52
:102CB00093F82230DBB2013B042B00F2998001A291
:102CC00052F823F0D92C0000E72C0000F12D000071
:102CD000312D0000992D00002B4B022283F8222079
:102CE000294B00229A830DF10F029DF823301946DB
:102CF0000998FFF735F90346012B40F28580002340
:102D00008DF80C309DF80F308DF80D301E4B0322DE
:102D100083F822201C4B93F858301846FEF7C1FD6B
:102D2000FEF78AFE184B1B6803AA104698476BE013
:102D30000DF10F029DF8233019460998FFF732FC78
:102D40000346012B62D901238DF80C309DF80F301A
:102D50008DF80D300C4B032283F822200A4B002201
:102D60009A82094B0022DA82074B002283F8232043
:102D7000054B93F858301846FEF793FD024B1B683D
:102D800003AA1046984741E048060020A8450100E4
:102D900076060020800600200DF10F029DF82330FA
:102DA00019460998FFF78EFC0346012B30D9022300
:102DB0008DF80C309DF80F308DF80D30184B032234
:102DC00083F82220164B002283F82320144B002284
:102DD0009A82134B0022DA82114B93F8583018462E
:102DE000FEF75FFD0E4B1B6803AA104698470FE0E5
:102DF00003230493049B002B0CD00A4A40F2D331E6
:102E00000498FEF741FC05E000BF04E000BF02E0CB
:102E100000BF00E000BF00BF0BB05DF804FB00BFC7
:102E200048060020A845010000B589B00390029132
:102E30001346ADF80630039B002B04D12E4940F217
:102E4000DD3000F06FFB2D4B93F82230DBB2002B0E
:102E500001D108234CE0294B93F82230DBB2032B3D
:102E600001D0112344E0BDF80630002B01D1072327
:102E70003EE0224B042283F82220204B9B7A03F071
:102E80000803DBB2002B04D1029B5B021B4A1361D7
:102E900002E01A4A029B1361184A039BD360174A47
:102EA000BDF806309382154ABDF80630D382134B25
:102EB00000229A83BDF80630012B01D9522300E08D
:102EC00051238DF81F300D4B19699DF81F300122D9
:102ED0001846FEF719FE0690069B0593059B002BEE
:102EE00005D0054A40F2FD310598FEF7CDFB0023E1
:102EF000184609B05DF804FBA8450100480600200B
:102F000000B589B0039002911346ADF80630039BDB
:102F1000002B04D13E4940F2054000F003FB3D4B3D
:102F200093F82230DBB2002B01D108236BE0394B40
:102F300093F82230DBB2032B01D0112363E0BDF8FC
:102F40000630002B01D107235DE0324B052283F8C8
:102F50002220304B9B7A03F00803DBB2002B04D114
:102F6000029B5B022B4A136102E02A4A029B136117
:102F7000284A039BD360274ABDF806309382254A2E
:102F8000BDF80630D382234B00229A83BDF8063069
:102F9000012B14D11F4B1B69012219465820FEF743
:102FA000B3FD0790079B0593059B002B05D0184A9E
:102FB0004FF485610598FEF767FB002323E0154B6E
:102FC0009B7A03F00703DBB2012B08D1114B1B697D
:102FD000012219465920FEF797FD079007E0BDF83A
:102FE000063001221946D720FEF78EFD0790079B79
:102FF0000693069B002B05D0054A40F23741069800
:10300000FEF742FB0023184609B05DF804FB00BF41
:10301000A84501004806002000B58DB0039002913C
:10302000524B93F82230DBB2002B01D0082398E0FA
:10303000029B002B0FD0039BDB78FF2B0BD0039B55
:103040005B78FF2B07D0039B1B78FF2B03D0039BE0
:103050009B78FF2B01D1072383E0039BDB78002BB8
:103060000BD0039B5B78002B07D0039B1B78002BB6
:1030700003D0039B9B78002B04D13D4940F24C4088
:1030800000F050FA039BDA78384B83F85820374B1E
:1030900093F858301846FEF7DEFB344B93F858305F
:1030A0001846FEF7FEFB039B9B788DF81430039BBC
:1030B0001B788DF81530039B5B788DF81630FF2355
:1030C0008DF8173006238DF81830FF238DF819304E
:1030D0004FF08063079300238DF8203000238DF894
:1030E000213005A90023234A234802F0F7FA0B9068
:1030F0000B9B0A930A9B002B05D01D4A4FF48C6151
:103100000A98FEF7C1FA194A029B1360174B012275
:1031100083F82220154A937A6FF302039372134ABD
:10312000937A6FF3C3039372104B002283F823202A
:103130000E4BFF2283F828200A2300930F4B012215
:103140000F490D48FEF727FC0B900B9B0993099B39
:10315000002B05D0064A40F26C410998FEF794FA1C
:10316000002318460DB05DF804FB00BF48060020A0
:10317000A8450100E92A000004460100800600205D
:103180007006002008B5124B93F82230DBB2002BFA
:1031900001D108231AE00E4B93F82230DBB2032B47
:1031A00001D0112312E00B48FEF7E9FB084B93F81E
:1031B000583000211846FEF75FFB054B002283F8CC
:1031C0002320034B002283F822200023184608BD49
:1031D0004806002004460100094B93F82230DBB278
:1031E000032B07D0064B93F82230DBB2002B01D023
:1031F000012300E0002303F00103DBB2184670470F
:1032000048060020054B93F82230DBB2022B01D98F
:10321000034B00E000231846704700BF480600201B
:103220004C06002072B600BF034B1B680133024AF4
:10323000136000BF704700BFA4060020064B1B6848
:10324000013B054A1360044B1B68002B01D162B699
:1032500000BF00BF704700BFA406002000B583B0C8
:10326000019000F025F80346012B03D004494320C8
:1032700000F058F9FFF7D6FF00BF03B05DF804FB7C
:10328000A449010000B583B003468DF8073000F073
:103290000FF80346012B03D00449512000F042F9F6
:1032A000FFF7CCFF00BF03B05DF804FBA4490100A9
:1032B00084B0EFF305830193019BC3F308030393E9
:1032C000039B002B0DD1EFF314830093009B02931B
:1032D000029B03F00103002B0CBF01230023DBB290
:1032E00000E00123184604B07047000008B5044B05
:1032F0001B68044A12681046984700BF08BD00BF0B
:10330000A8060020AC0600201EF0040F1CBFEFF33F
:1033100009800AE0EFF308800549064A884201D88F
:10332000904202D88D464FF00000034B1847000032
:103330000000042000E003207533000000BF00BF40
:10334000BFF34F8F00BF064BDB6803F4E062044914
:10335000044B1343CB60BFF34F8F00BF00BFFDE7AB
:1033600000ED00E00400FA0500B583B00190FFF71E
:10337000E7FF000010B588B00390FDF70BFF00BF1A
:10338000FDF738FD0346002BFAD1039B0693584BFB
:103390009B6A0593069B002B35D0564A564BD31A91
:1033A000DB081B0443F00100069B9B691A46534946
:1033B000FDF7A4FC4F4A504BD31ADB081B0443F023
:1033C0000100069B1968069B5C68069B9B68069A31
:1033D000D2680192009323460A464949FDF7C9FC89
:1033E000444A454BD31ADB081B0443F00100069BFB
:1033F0001A69069B5969069BDB6900930B46414994
:10340000FDF7A1FC0AE03B4A3B4BD31ADB081B0447
:1034100043F001033C491846FDF762FC344BDB6A7C
:1034200003F00203002B0AD0324A334BD31ADB08D5
:103430001B0443F0010335491846FDF751FC0023F6
:10344000079320E00122079B02FA03F31A46059B2B
:103450001340002B14D02E4A079B52F82330002B28
:103460000ED0244A244BD31ADB081B0443F001007E
:10347000274A079B52F823301A462649FDF73EFC9F
:10348000079B01330793079B192BDBD9059B03F09F
:103490008003002B0CD0174A174BD31ADB081B04F0
:1034A00043F00103124A526B1B491846FDF726FCF4
:1034B000059B03F40043002B0CD00E4A0E4BD31A8D
:1034C000DB081B0443F00103094A926B13491846B9
:1034D000FDF714FC124B1B6803F00103002B00D016
:1034E00000BE0398FFF740FF00BF08B010BD00BF4B
:1034F00000ED00E01842010090410100104A010077
:10350000284A0100604A0100884A0100BC4A0100C3
:1035100058000020004B01000C4B01002C4B010017
:10352000F0ED00E000B585B003460091ADF806303F
:10353000BDF806300293009B039302AB1A460021AC
:1035400044F20200FEF7AEF800BF05B05DF804FBE0
:1035500010B487B001900091019B009A53E8004F8E
:10356000104643E8000191F0000FF7D10594049054
:103570000391059B184607B05DF8044B704710B4E3
:1035800087B001900091019B009A53E8004F44EAF4
:10359000020043E8000191F0000FF6D10594049079
:1035A0000391049B184607B05DF8044B704710B4B4
:1035B00087B001900091019B009A53E8004F04EA04
:1035C000020043E8000191F0000FF6D10594049049
:1035D0000391059B184607B05DF8044B704710B483
:1035E00087B001900091019B009A53E8004F04EBD3
:1035F000020043E8000191F0000FF6D10594049019
:103600000391049B184607B05DF8044B704710B453
:1036100087B001900091019B009A53E8004FA4EB02
:10362000020043E8000191F0000FF6D105940490E8
:103630000391049B184607B05DF8044B704700B532
:1036400083B0019001210198FFF799FF03461846C6
:1036500003B05DF804FB00B583B001900021019830
:10366000FFF7A5FF0346184603B05DF804FB000012
:1036700000B583B001900B468DF80330019B002B01
:1036800003D10849E820FFF74DFF019BDA689DF858
:1036900003300199098A01FB03F31344184603B070
:1036A0005DF804FB1C50010000B583B0019000914F
:1036B000019B002B03D10849F520FFF733FF009B46
:1036C000019AD2689B1A019A128AB3FBF2F3DBB219
:1036D000184603B05DF804FB1C50010000B585B02E
:1036E0000190019B002B04D11C494FF49270FFF70D
:1036F00019FF002303930020FFF7B0FD019B1B6817
:103700001A68019B5B689A421FD9019B1B681A6863
:10371000013A1A601B681B7819460198FFF7A8FF49
:103720000390019B9A68019B1B681B68D31A8DF854
:103730000B30019B1B681B799DF80B209A4204D922
:10374000019B1B689DF80B201A710020FFF79AFD62
:10375000039B184605B05DF804FB00BF1C50010038
:1037600010B584B001900091019B002B04D1114948
:1037700040F24710FFF7D6FE009B002B04D10D4905
:103780004FF4A470FFF7CEFE009B03930020FFF7D9
:1037900065FD019B1B681C68621C1A6003990198F7
:1037A000FFF782FF034623700020FFF76BFD00BF89
:1037B00004B010BD1C50010000BF704708B501E007
:1037C000FFF7FAFFFFF708FD0346002BF8D100BF13
:1037D00000BF08BD00B593B00190019B5A78514BD2
:1037E0001A70514B1B681193119B9B691093019B9D
:1037F0001B78022B61D0022B7EDC002B02D0012B28
:103800003CD079E0019B5B78002B0FD0119B0F938C
:103810000F9800F0F5F80E900E9B0D930D9B002B6A
:1038200004D0424A58210D98FDF72EFFFFF7EAFC1D
:1038300003461A68109B1A60109B4FF400725A607E
:10384000394B1B689B699B68002B60D000238DF867
:103850002430019B5B78002B14BF01230023DBB2D3
:103860008DF8253000230A93109B9B690B93109BC6
:103870009B68119A09A91046984748E02A4B1B6893
:103880009B699B68002B44D002238DF81830019B64
:103890005B78002B14BF01230023DBB28DF81930B5
:1038A000109B0C330793109B9B690893109B9B689C
:1038B000119A06A9104698472BE01B4B1B689B6981
:1038C0009B68002B27D003238DF80C30019B5B787D
:1038D000002B14BF01230023DBB28DF80D30109BA9
:1038E0000C330493109B9B690593109B9B68119A62
:1038F00003A9104698470EE003230C930C9B002B62
:103900000BD00A4A88210C98FDF7BEFE05E000BFE7
:1039100004E000BF02E000BF00E000BF13B05DF8AC
:1039200004FB00BFB4060020B80600207850010058
:1039300000B58BB0039002910192039B002B03D141
:103940002B499220FFF7EEFD039B0893089B9B6990
:103950000793089B1B69B3F5007F01D0062343E062
:10396000244B1B68002B01D011233DE0079B019ADB
:103970009A61079B029A9A601E4A089B1360002373
:103980000993089B14331C491846FFF745FB09901F
:10399000099B002B0DD1029B002B0AD1FFF70EFFD4
:1039A000164B1B78DBB2002B01D1002300E00D2366
:1039B0000993099B002B16D00E4B00221A60029B24
:1039C000002B10D000238DF8103001238DF811301A
:1039D00000230593079B9B690693079B9B6804AA9A
:1039E000114603989847099B18460BB05DF804FBF5
:1039F00078500100B8060020D5370000B40600203A
:103A000000B589B00190019B002B03D11F49CA204A
:103A1000FFF788FD019B0793079B9B6906931C4B4F
:103A20001B68079A9A4201D011232AE0FFF7D4FBC2
:103A30000346002B01D0112323E0FFF7A3FB0590E1
:103A4000059B002B02D1124B00221A60069B9B683B
:103A5000002B15D001238DF80830059B002B14BFD7
:103A600001230023DBB28DF8093000230393069B6A
:103A70009B690493069B9B6802AA1146019898478C
:103A8000059B184609B05DF804FB00BF78500100A3
:103A9000B806002000B589B001900091019B002B71
:103AA00003D13049F620FFF73DFD009B002B03D1E9
:103AB0002C49F720FFF736FD019B0693069B9B6977
:103AC000059300230793284B1B68069A9A4201D05E
:103AD000112343E0FFF780FB0346002B01D01123A5
:103AE0003CE0059B009A0C3307CA83E80700009B63
:103AF0009868009B1968009B5B689BB21A46FFF7A9
:103B000093F90790079B002B0ED1059B9B68002B18
:103B10000AD1FFF753FE154B1B78DBB2002B01D106
:103B2000002300E00D230793059B9B68002B14D016
:103B3000079B002B11D002238DF8083001238DF84C
:103B40000930059B0C330393059B9B690493059BEC
:103B50009B6802AA114601989847079B184609B02E
:103B60005DF804FB78500100B8060020B406002080
:103B700000B589B001900091019B002B04D131491F
:103B80004FF49470FFF7CEFC009B002B04D12D491D
:103B900040F22910FFF7C6FC019B0693069B9B6928
:103BA000059300230793284B1B68069A9A4201D07D
:103BB000112343E0FFF710FB0346002B01D0112334
:103BC0003CE0059B009A0C3307CA83E80700009B82
:103BD0009868009B1968009B5B689BB21A46FFF7C8
:103BE0008FF90790079B002B0ED1059B9B68002B3C
:103BF0000AD1FFF7E3FD154B1B78DBB2002B01D197
:103C0000002300E00D230793059B9B68002B14D035
:103C1000079B002B11D002238DF8083001238DF86B
:103C20000930059B0C330393059B9B690493059B0B
:103C30009B6802AA114601989847079B184609B04D
:103C40005DF804FB78500100B8060020B40600209F
:103C500088B003900B4601928DF80B30039B0793BD
:103C60009DF80B30002B04D0012B0CD000BF062395
:103C700015E0019B0593059B002B02D0059B0022BC
:103C80001A7000230BE0019B002B01D1072306E0F3
:103C9000019B0693079B1A1D069B1A60002318467A
:103CA00008B0704700B585B00190019B002B04D18E
:103CB000074940F27D10FFF735FC019B0393039BFE
:103CC0009B690293029B184605B05DF804FB00BF98
:103CD0007850010000B583B00190019B002B03D107
:103CE0000C493120FFF71EFC019B9B68002B0CD078
:103CF000019B5B69019A1069019A1168019A9268A7
:103D00009847019B00229A6000E000BF03B05DF875
:103D100004FB00BFF85001000EB400B584B0019060
:103D2000019B002B03D118494220FFF7FBFB019BAD
:103D30005B69002B03D114494320FFF7F3FB019B80
:103D40001B68002B03D110494420FFF7EBFB019BBC
:103D50005B68002B03D10C494520FFF7E3FB059B73
:103D6000002B0AD00023039306AB039303AB1A4640
:103D70000599019800F0B8F900E000BF04B05DF8C3
:103D800004EB03B0704700BFF850010000B583B0EA
:103D900001900B468DF803309DF803300A2B03D1B8
:103DA0000D210198FFF7F2FF019B1A68019B9B68A8
:103DB000581C0199886013449DF803201A70019BD8
:103DC0009A68019B5B689A4202D30198FFF782FFD1
:103DD00000BF03B05DF804FB00B587B0039002910B
:103DE0000192009300230593009B03F00103002B35
:103DF00024D00BE0029B01330293059B0133059312
:103E00009DF8133019460398FFF7C0FF029B1B78FB
:103E10008DF813309DF81330002BEBD106E0019B99
:103E2000013B019320210398FFF7B0FF019A059B06
:103E30009A422ED9019B002BF1D12AE0029B002B44
:103E40000BD002980FF0FFF8059006E0019B013BB4
:103E5000019320210398FFF799FF019A059B9A424D
:103E60000FD9019B002BF1D10BE0029B0133029390
:103E7000059B013305939DF8133019460398FFF70E
:103E800085FF029B1B788DF813309DF81330002BB3
:103E9000EBD100BF07B05DF804FB000000B589B0AE
:103EA0000390029101920093029B079301230693D2
:103EB00007E0079A019BB2FBF3F30793069B0133DC
:103EC0000693079A019B9A42F3D2009A069B9A4264
:103ED00001D9009B06930B9B03F00103002B22D119
:103EE0000A9B002B1FD00B9B03F00203002B06D074
:103EF000009B002B03D130238DF8173002E02023E4
:103F00008DF8173008E00A9B013B0A939DF81730A3
:103F100019460398FFF73AFF0A9B002B03D0069A35
:103F20000A9B9A42EFD301230793009B012B03D9ED
:103F3000009B013B009309E0029A079BB2FBF3F35D
:103F40000493049A019B9A4200D205E0079B019AD0
:103F500002FB03F30793E8E7029A079BB2FBF3F334
:103F60000493049B079A02FB03F3029AD31A029369
:103F7000154A049B13441B7819460398FFF706FF64
:103F8000079A019BB2FBF3F30793079B002BE3D146
:103F90000B9B03F00103002B11D00A9B002B0ED0CA
:103FA00006E00A9B013B0A9320210398FFF7EEFEEF
:103FB0000A9B002B03D0069A0A9B9A42F1D300BFBA
:103FC00009B05DF804FB00BFA051010000B589B045
:103FD0000590049103920293049B002BB8BF5B42AF
:103FE00006930123079307E0039B069A92FBF3F3E2
:103FF0000693079B01330793039B069A9A42F3DAD1
:10400000029A079B9A4201D9029B07930A9B002BB5
:104010000AD0049B002B04DB0B9B03F00403002B52
:1040200002D00A9B013B0A930B9B03F00203002B77
:1040300002D0029B002B16D00B9B03F00103002B38
:1040400011D10A9B002B0ED006E00A9B013B0A937C
:1040500020210598FFF79AFE0A9B002B03D0079AB0
:104060000A9B9A42F1D3049B002B07DA049B5B4224
:1040700004932D210598FFF789FE08E00B9B03F0C0
:104080000403002B03D02B210598FFF77FFE0B9B29
:1040900003F00203002B19D00B9B03F00103002B4C
:1040A00014D1029B002B11D10A9B002B0ED006E0ED
:1040B0000A9B013B0A9330210598FFF767FE0A9B94
:1040C000002B03D0079A0A9B9A42F1D304990B9BC9
:1040D00001930A9B0093029B039A0598FFF7DEFE6B
:1040E00000BF09B05DF804FB00B58FB005900491E6
:1040F0000392059B002B04D1AD4940F25220FFF7FB
:1041000011FA059B5B69002B04D1A9494FF4157086
:10411000FFF708FA059B1B68002B04D1A44940F265
:104120005520FFF7FFF9059B5B68002B04D1A049E0
:1041300040F25620FFF7F6F9049B002B00F0938124
:10414000049B1B788DF83730049B013304939DF852
:104150003730002B00F07E819DF83730252B40F062
:104160006D8100230A9301230C93049B1B788DF827
:1041700037309DF83730302B0DD0302B1BDC2B2BFC
:1041800011D02D2B17D10A9B43F001030A93049BF6
:104190000133049312E00A9B43F002030A93049B49
:1041A000013304930AE00A9B43F004030A93049B3F
:1041B0000133049302E000230C9300BF0C9B002BFF
:1041C000D3D1002309939DF837302A2B0CD1039BC0
:1041D0001B68191D039A11601B68099A13440993FF
:1041E000049B013304931AE0049B1B788DF837304D
:1041F0009DF837302F2B12D99DF83730392B0ED838
:10420000049B01330493099A13469B0013445B00FB
:104210001A469DF837301344303B0993D3E7002307
:104220000B93049B1B788DF837309DF837302E2B7D
:104230001DD1049B01330493049B1B788DF8373008
:104240009DF837302F2B12D99DF83730392B0ED8E7
:10425000049B013304930B9A13469B0013445B00A9
:104260001A469DF837301344303B0B93E4E7049B28
:104270001B788DF837309DF837306C2B03D09DF8C4
:104280003730682B07D1049B01330493049B1B78C0
:104290008DF83730EFE79DF83730252B00F0C480DC
:1042A000252BC0F2C680782B00F3C380582BC0F2B8
:1042B000C080583B202B00F2BC8001A252F823F0B2
:1042C000B543000033440000334400003344000091
:1042D0003344000033440000334400003344000002
:1042E00033440000334400003344000045430000E1
:1042F00067430000334400003344000033440000AF
:10430000334400006743000033440000334400009E
:1043100033440000334400003344000033440000C1
:10432000F54300003344000033440000D94300004B
:10433000334400008B43000033440000334400004A
:10434000B5430000039B1B68191D039A11601B688D
:104350000C930C9B8DF81F309DF81F301946059863
:10436000FFF714FD66E0039B1B68191D039A11609B
:104370001B680C930A9B0193099B00930B9B0A22D9
:104380000C990598FFF722FE54E0039B1B68191D4A
:10439000039A11601B680C930C990A9B0193099B6B
:1043A00000930B9B0A220598FFF778FD42E000BFBF
:1043B00048510100039B1B68191D039A11601B687B
:1043C0000C930C990A9B0193099B00930B9B102261
:1043D0000598FFF763FD2DE0039B1B68191D039AE9
:1043E00011601B6808930A9B099A08990598FFF7C2
:1043F000F3FC1FE0039B1B68191D039A11601B68E7
:104400000C9330210598FFF7C1FC78210598FFF740
:10441000BDFC0C990023019308230093082310226C
:104420000598FFF73BFD05E025210598FFF7AEFC59
:1044300000E000BF049B0133049305E09DF8373092
:1044400019460598FFF7A2FC049B1B78002B7FF40C
:1044500077AE00E000BF059B1B7B002B04D00598C6
:10446000FFF738FC00E000BF0FB05DF804FB00BFB1
:1044700000B58BB001900091019B1B8A043B079310
:10448000009A079B1344DA1C079BB2FBF3F38DF8E9
:104490001B300198FFF722F90590059B002B01D1F5
:1044A000002338E0059B00221A71059B01225A71F6
:1044B000079B9AB2059BDA80059B09939DF81B30F8
:1044C000013B0493099B019A1A60002308931DE0A5
:1044D0000198FFF703F90390039B002B0ED0059B77
:1044E0005B790133DAB2059B5A71099B039A1A6012
:1044F000039B019A1A60039B099304E0059800F05E
:104500000EF8002307E0089B01330893089A049BE8
:104510009A42DDD3059B18460BB05DF804FB00B54D
:104520008BB00190019B0793079B5B798DF81B3043
:10453000019B08939DF81B30013B059300230993D1
:1045400005E0089B1B680893099B01330993099AAE
:10455000059B9A42F5D3089B1B680493019B089323
:10456000002309930BE0089B1B68039308990498A8
:10457000FFF7F6F8039B0893099B013309939DF815
:104580001B30099A9A42EED300BF00BF0BB05DF812
:1045900004FB00B585B00190019B0393039B04339A
:1045A00001211846FFF71BF800BF05B05DF804FBBA
:1045B00000B587B00190019B0593059B0433012151
:1045C0001846FFF724F80346039303AB0493049BB8
:1045D0001B78002B02D10198FFF7A1FF00BF07B0A5
:1045E0005DF804FB00B591B0039002910192009335
:1045F000039B002B03D14349B620FEF793FF039B97
:104600000993039B0F93099BDB881A46099B5B79EF
:1046100002FB03F3043B0893009A089B9A4203D3DE
:104620003849C420FEF77EFF099BDB880793009B77
:104630001A1D079BB2FBF3F30E93009B0433079AFA
:10464000B3FBF2F2079901FB02F29B1A0D93019B57
:104650001A68009B1344089A9A4203D2089A009B56
:10466000D31A01E0019B1B680C93019B0C9A1A6002
:1046700005E00F9B1B680F930E9B013B0E930E9B57
:10468000002BF6D100230B93079A0D9BD31A0A93A4
:104690000A9A0C9B934228BF13460A932AE0029A77
:1046A0000B9B134406930F9A0D9B134404330593FD
:1046B0009DF84830002B05D00A9A059906980EF00F
:1046C00044FC04E00A9A069905980EF03EFC00238B
:1046D0000D930F9B1B680F930C9A0A9BD31A0C9394
:1046E0000B9A0A9B13440B93079A0C9B934228BF87
:1046F00013460A930C9B002BD1D100BF00BF11B011
:104700005DF804FBB051010000B589B0059004913B
:1047100003920293039B079307AA00230093029B33
:1047200004990598FFF75EFF079B039A9A4203D00E
:104730000349F620FEF7F6FE00BF09B05DF804FB62
:10474000B051010000B589B0059004910392029325
:10475000039B079307AA01230093029B04990598E2
:10476000FFF740FF079B039A9A4204D004494FF495
:104770008070FEF7D7FE00BF09B05DF804FB00BFF4
:10478000B051010000B585B00190019800F00EF81D
:104790000390039B002B01D0039B00E0024B1846C3
:1047A00005B05DF804FB00BF7852010086B00190AF
:1047B000164B0593164B04931FE0049A059BD31ADE
:1047C000DB10DA0F13445B10DB00059A13440393EC
:1047D000039B1B680293029A019B9A4202D9039B96
:1047E00004930AE0029A019B9A4203D2039B083386
:1047F000059302E0039B5B6804E0059A049B9A42E0
:10480000DBD30023184606B0704700BF4C560100AA
:104810006457010082B001900B46ADF80230BDF83C
:104820000230019A1344184602B0704782B00190DA
:10483000019BD3F81035DBB2184602B0704782B046
:1048400001900B468DF803309DF80320019B02F583
:10485000A87253F82230184602B0704782B0019017
:10486000019B9B0003F5A0739BB2184602B07047F2
:10487000F0B587B001900B468DF803309DF80330FA
:104880000593019B00221E4617464FF000024FF091
:1048900000033B0143EA167332010599C1F120067A
:1048A000A1F1200022FA01F403FA06F6344323FAB8
:1048B00000F0044323FA01F5CDE90245DDE90223C6
:1048C000012B04D3044940F2B920FEF72BFE029BD2
:1048D000184607B0F0BD00BF6457010010B582B0A4
:1048E00001900091019B5B791A46009B934204D38F
:1048F000094940F27110FEF715FE019B1C680098F3
:10490000FFF7ACFF034619462046FFF783FF034637
:10491000184602B010BD00BF8857010000B583B033
:1049200001900B468DF80330019B1B689DF8032016
:1049300011461846FFF783FF0346184603B05DF89B
:1049400004FB00B583B001900091019B1B681846E1
:10495000FFF76CFF034619460098FFF789FF0346EF
:10496000184603B05DF804FB00B583B00190019BCD
:104970001B68184600F05AF80346002B04D10B4977
:104980004FF4F670FEF7CEFD019B1B681F2B02D87B
:104990004FF0A04306E0019B1B6803F01F02019B40
:1049A0001A60034B184603B05DF804FBBC570100C6
:1049B0000003005000B585B0019001AB1846FFF729
:1049C000D3FF0390019B012202FA03F319460398D7
:1049D00000F018F800BF05B05DF804FB00B585B025
:1049E000019001AB1846FFF7BFFF0390019B012226
:1049F00002FA03F31946039800F00EF800BF05B061
:104A00005DF804FB82B001900091019B009AC3F80D
:104A1000082500BF02B0704782B001900091019B51
:104A2000009AC3F80C2500BF02B0704784B0019013
:104A3000019B5B09029300230393029B002B03D08D
:104A4000029B012B04D007E04FF0FF33039303E0F8
:104A50004FF6FF73039300BF019B03F01F03019305
:104A6000039A019B22FA03F303F00103002B14BF06
:104A700001230023DBB2184604B0704782B00190D6
:104A80000B468DF8033000BF02B0704700B585B00B
:104A90000190019B5B681B791A461A4B9B5C8DF851
:104AA0000E3001238DF80F309DF80E30FF2B20D0F3
:104AB0009DF80E30FE2B1FD0019B5B689DF80E20E9
:104AC00011461846FFF72AFF0246019B5B681B79D7
:104AD00019460D4B53F821309A420DD1019B5B686A
:104AE0001B791A46074BFF21995400238DF80F308C
:104AF00002E000238DF80F309DF80F30184605B006
:104B00005DF804FBC0060020C806002000B583B095
:104B10000190019B5B680221184605F0ADFE00BFC5
:104B200003B05DF804FB00B583B00190019B5B68A6
:104B30000221184605F0DAFE00BF03B05DF804FB61
:104B400000B587B003460091ADF80630009B049392
:104B500001238DF8173000238DF816303AE09DF8C8
:104B600016302649049A52000A4413441B78DBB2DB
:104B7000002B2AD09DF816302049049A52000A448E
:104B80001A441278D2B2013AD0B21C49049A5200A7
:104B90000A44134402461A709DF816301749049AC5
:104BA00052000A4413441B78DBB2002B0AD1144A8A
:104BB000049B52F823301B680393039BDB69049822
:104BC000984702E000238DF817309DF81630013326
:104BD0008DF816309DF81630012BC0D99DF817308E
:104BE000002B06D0064A049B52F823301846FFF7E4
:104BF0009AFF00BF07B05DF804FB00BFDC06002091
:104C0000E806002000B585B00190019B1B68029367
:104C1000029B93F82030184605F0CAF900238DF85E
:104C20000F306CE000238DF80E3031E09DF80F203E
:104C30009DF80E10029813465B0013449B0003443A
:104C40000B4408331B78FF2B1DD09DF80F209DF8D7
:104C50000E10029813465B0013449B0003440B4460
:104C600008331B78184605F0A3F99DF80F209DF82E
:104C70000E10029813465B0013449B0003440B4440
:104C80000833FF221A709DF80E3001338DF80E3074
:104C90009DF80E30012BC9D99DF80F2002991346BB
:104CA0005B0013449B000B441B68B3F1FF3F16D01D
:104CB0009DF80F20029913465B0013449B000B44A0
:104CC0001B68184601F00AFD9DF80F200299134653
:104CD0005B0013449B000B444FF0FF321A609DF8B9
:104CE0000F20029913465B0013449B000B440B33C7
:104CF00000221A709DF80F3001338DF80F309DF8A7
:104D00000F30012B8ED9019B5B68184605F09EFC85
:104D100000BF05B05DF804FB30B587B001900B46CD
:104D20008DF803301346ADF80030019B1B680593E6
:104D30009DF8032013465B0013449B00059A13441F
:104D400004939DF803308DF80F30059B93F82030C5
:104D5000184605F0C5F9BDF80030002B11D1049BB1
:104D60005B7A184605F0BCF9049B1B7A184605F0DF
:104D700082F9019B5B681B791A46484BFF219954C5
:104D800085E0BDF80020059B9B699A4215D3059BE1
:104D90009B69ADF80030049B1B7A184605F0A0F91A
:104DA000049B5B7A184605F066F9019B5B681B79EA
:104DB0001A463A4BFF21995469E0049B5A68059BB7
:104DC0009B699A4249D0049B5B68002B45D0BDF893
:104DD0000020049B5B689A423FD2019B5868049B69
:104DE0005A680023032105F0DFFC059B93F820405F
:104DF000019B5B6803211846FFF770FD0546049B85
:104E00009B7A002B06D0049B1B68184601F044FDDA
:104E1000034605E0049B1B68184601F001FD0346AC
:104E20001A462946204605F0EDF8059B93F82030F8
:104E3000184605F020F9019B5B681B791946174A53
:104E40009DF803305354019B5B681B791946BDF8EC
:104E50000030134A42F8213006E0019B5B681B7961
:104E60001A460E4BFF219954019B5868BDF800204B
:104E70009DF80F10002305F097FC049B1B7A184641
:104E800005F0F9F8049B5B7A184605F0F4F8BDF8D4
:104E90000020049B5A6000BF07B030BDC006002050
:104EA000C806002000B585B001900B468DF8033090
:104EB0001346ADF80030019B1B6803939DF8032057
:104EC00013465B0013449B00039A134402939DF81E
:104ED0000330012B04D92C4940F25B20FEF722FB62
:104EE000029BDB7A012B04D027494FF41770FEF7A1
:104EF00019FB039B93F82130022B01D008233EE0DD
:104F0000BDF80020029B5B689A420CD1039BDB69D1
:104F1000002B06D0039BDB69019A52681279104678
:104F2000984700232BE00198FFF7B0FD0346002BC4
:104F300001D0112323E0019B5B681B791A46134BB8
:104F4000FE219954BDF800209DF8033019460198C0
:104F5000FFF7E2FE019B1B68DB69002B0ED0019B73
:104F60005B681B791A469DF80330094952000A44D0
:104F7000134402221A700198FFF7C8FD0023184657
:104F800005B05DF804FB00BFE0570100C00600203B
:104F9000DC06002084B00190019B1B680393039BF7
:104FA0009B699BB2184604B07047000000B585B0FD
:104FB00001900B468DF803301346ADF80030019890
:104FC000FFF7E8FF03461A46BDF8003002FB03F383
:104FD000084AA2FB03235B090393039B9AB29DF843
:104FE000033019460198FFF75DFF0346184605B0E8
:104FF0005DF804FB1F85EB5110B58CB00390019256
:105000001A460B468DF80B3013468DF80A309DF882
:105010000B30012B04D968494FF42B70FEF782FA4C
:10502000039B1B680A939DF80B2013465B001344F7
:105030009B000A9A134409930A9B93F82130002B92
:1050400001D00823B4E0099B00225A60099B9DF817
:105050000A209A7203238DF81430039B19689DF877
:105060000B2013465B0013449B000B440A331B7850
:10507000002B0CBF01230023DBB28DF81530012378
:105080008DF8163005AB1946019801F0BDFA08906D
:10509000089B002B01D004238AE09DF80B200A997D
:1050A00013465B0013449B000B44019A1A609DF861
:1050B0000A30002B03D00198FFF790FC02E0019822
:1050C000FFF778FC00238DF82F3011E09DF82F308A
:1050D0000833099A1344184604F016FF0346002BC0
:1050E00001D0042364E09DF82F3001338DF82F3078
:1050F0009DF82F30012BE9D9099B1B7A184604F043
:10510000EFFF099B5B7A184604F0EAFF9DF80A302E
:10511000002B06D0099B1B68184601F0BDFB034617
:1051200005E0099B1B68184601F07AFB03460793CC
:105130009DF80A30002B06D0099B1B68184601F029
:105140006FFB034605E0099B1B68184601F0A4FBB2
:1051500003460693099B1C7A039B5B689DF80B2012
:1051600011461846FFF7BAFB0346079A1946204630
:1051700004F048FF099B5C7A039B5B680221184698
:10518000FFF7ACFB0346069A1946204604F03AFFA7
:10519000099B0122DA72039B5B681B791A469DF812
:1051A0000B30064952000A44134400221A700023AF
:1051B00018460CB010BD00BFE0570100DC0600200F
:1051C00084B00190002303930923029305E0019B1F
:1051D0005B080193039B01330393019BB3F5805F4D
:1051E00003D3039A029B9A42F1D3074B1B78002BFF
:1051F00004D0039B002B01D101230393039BDBB25B
:10520000184604B0704700BFBC06002000B58FB040
:10521000059004910392059B002B04D18F4940F225
:105220001130FEF77FF9049B002B01D10B2310E115
:10523000059B1B680C930C9B93F82130002B01D02D
:10524000082306E105F0F0FB0B900B9B002B04D02C
:105250000B9B852B01D00423FBE001F0C9F9034629
:1052600083F00103DBB2002B07D001F05DF90B9056
:105270000B9B002B01D00323EBE0794B1B6803F061
:10528000F003302B03D1774B00221A7002E0754BEC
:1052900001221A700C9BFF2283F8202000238DF836
:1052A000373030E09DF837200C9913465B001344EB
:1052B0009B000B440B3300221A709DF837200C9989
:1052C00013465B0013449B000B440833FF221A7003
:1052D0009DF837200C9913465B0013449B000B4448
:1052E0000933FF221A709DF837200C9913465B0092
:1052F00013449B000B444FF0FF321A609DF8373087
:1053000001338DF837309DF83730012BCAD90C9B0B
:105310002033184604F0F8FD0346002B04D005980E
:10532000FFF770FC042394E000238DF836302CE066
:105330009DF83620049B53F82230B3F1FF3F1FD075
:105340009DF83620049B53F822009DF83630049ACD
:1053500013441B7A9DF8361002460598FFF74CFE61
:105360000B900B9B002B04D00598FFF74BFC0B9B7D
:105370006FE09DF83630002219460598FFF792FD40
:105380009DF8363001338DF836309DF83630012BDC
:10539000CED9049B1B691846FFF712FF03468DF810
:1053A0002B309DF82B308DF81C3000238DF81D30EC
:1053B00000238DF81E3007238DF81F30059B5B6896
:1053C0001B790893059B5B6807A9274A184605F0D7
:1053D00041F80B900B9B002B04D00598FFF712FCB3
:1053E0000B9B36E0059B5A68049B1B6919461046C7
:1053F000FFF7A7FA09900C9B099A9A61059B5B68D5
:10540000184605F0AFF9059B586801230093042363
:10541000099A022105F001FA059B5B6802211846F2
:1054200005F064FA0C9B039ADA61059B5B681B79B3
:1054300019460E4A059B42F82130059B5B681B7993
:105440001A460B4BFF2199540C9B012283F8212013
:10545000002318460FB05DF804FB00BFE0570100C1
:10546000E80F00F0BC060020414B0000E8060020D9
:10547000C006002000B587B00190019B1B68049313
:10548000049B93F82130002B04D1304940F297302F
:10549000FEF748F80023059334E0059A13465B00B5
:1054A00013449B00049A13440393019B5B681B798C
:1054B000274A5B001A44059B134400221A70039B81
:1054C000DB7A002B1BD0039B1868019B1968059A97
:1054D00013465B0013449B000B440A331B78002BDC
:1054E0000CBF01230023DBB2194601F0E9F9039B4D
:1054F0001B68184601F036F9039B00225A60059B91
:1055000001330593059B012BC7D9019B5B681B7970
:105510001A46104BFF219954019B5B681B680121BF
:105520001846FFF7ABFA019B5B68184605F01AF9BD
:10553000019B5B68184605F0B9F8049B022283F8CA
:10554000212000BF07B05DF804FB00BFE057010059
:10555000DC060020C0060020044BD3F80034002BEA
:1055600014BF01230023DBB218467047000001403E
:1055700000B583B000230193144B1B78002B02D09D
:105580008523019314E0114B00229A600F4B0022F7
:105590005A600E4B00221A610C4B0022DA600C4854
:1055A00000F0CAFA019000F0EDFA084B01221A70DF
:1055B000FFF7D2FF0346002B02D0044B01229A7062
:1055C000019B184603B05DF804FB00BFFC060020F9
:1055D0004156000084B00190019B1B680393039B1C
:1055E000002B03D0039B1A68019B1A60039B18468B
:1055F00004B0704700B585B003468DF807309DF8BC
:105600000730002B02D10C4B039301E00B4B0393AB
:105610000398FFF7DFFF0290029B002B06D0029B4E
:105620005B689DF8072010469847F1E700BF00BF70
:1056300005B05DF804FB00BF040700200C07002044
:1056400000B583B003468DF807309DF80730002B76
:1056500005D10A4B01225A700020FFF7CBFF9DF8BD
:105660000730012B05D1054B01229A700120FFF76D
:10567000C1FF00BF03B05DF804FB00BFFC060020C3
:1056800000B589B001900091009B0793019B1B78A6
:105690008DF80830019B5B680393019B9B68DBB22C
:1056A0008DF81030019BDB680593019B1B69DBB211
:1056B0008DF81830074A079B52F823300649079A9D
:1056C00051F8221002AA1046984700BF09B05DF8B1
:1056D00004FB00BF100700202007002010B58AB08F
:1056E0000390029101920093039B1B780993224936
:1056F000099B019A41F823202049099B009A41F80F
:105700002320002308931E4B04AC0FCB84E80F002A
:10571000029B1B788DF81030029B5B788DF811305E
:10572000029B9B788DF81230029BDB788DF813304A
:10573000029B1B798DF81530029B5B798DF8163032
:10574000029B9B680693029B1B7B8DF81C30029B7F
:105750005B7B8DF81D30039B181D019B002B01D036
:10576000084A00E00022099B04A906F06DFF08909A
:10577000089B18460AB010BD100700202007002023
:10578000985801008156000000B589B00190009141
:10579000009B0793019B1B788DF80C30019B5B6885
:1057A0000493019B9B68DBB28DF81430019BDB688E
:1057B0000693074A079B52F823300649079A51F887
:1057C000221003AA1046984700BF09B05DF804FBF9
:1057D000300700203807002000B589B00190009103
:1057E000009B0793019B1B788DF80C30019B5B6835
:1057F0000493019B9B68DBB28DF81430019BDB683E
:105800000693074A079B52F823300649079A51F836
:10581000221003AA1046984700BF09B05DF804FBA8
:10582000300700203807002030B58FB00390029178
:105830000192039B1B780C932C490C9B019A41F815
:105840002320029B1A692A490C9B41F823200C9BB8
:10585000012B07D1029B5B7F002B03D125497620CA
:10586000FDF760FE029B5B7F1946234A0C9B1344A5
:105870000A461A70029B04AC1D460FCD0FC495E872
:105880000F0084E80F000C9B089300230D93039BEB
:105890001B781A46184B9B5C002B0DD0039B181DE0
:1058A000019B002B01D0154A00E0002204AB1946F1
:1058B00002F008FD0D9014E0039B1B781A460E4B76
:1058C0009B5C002B0DD1039B03F10C00019B002B73
:1058D00001D00B4A00E0002204AB194601F076FE2D
:1058E0000D900D9B18460FB030BD00BF3007002053
:1058F00038070020A8580100400700208957000001
:10590000D957000010B487B001900091019B009A14
:1059100053E8004F04EA020043E8000191F0000F51
:10592000F6D1059404900391059B184607B05DF8E5
:10593000044B704782B003468DF807309DF907305D
:10594000002B0CDB9DF8073003F01F0205499DF981
:1059500007305B09012000FA02F241F8232000BF62
:1059600002B0704700E100E082B0034600918DF87C
:1059700007309DF90730002B0ADB009BDAB20C4997
:105980009DF907305201D2B20B4483F800230BE09B
:10599000009BDAB207499DF8073003F00F03043B80
:1059A0005201D2B20B441A7600BF02B0704700BF5A
:1059B00000E100E000ED00E082B00190019B1B0BD4
:1059C0005BB2184602B0704700B583B003460A4682
:1059D0008DF8073013468DF806309DF80630072BFA
:1059E00003D908496B20FDF79DFD9DF806209DF920
:1059F000073011461846FFF7B7FF00BF03B05DF848
:105A000004FB00BF0059010000B583B003468DF8C8
:105A100007309DF907301846FFF78CFF00BF03B031
:105A20005DF804FB82B003468DF807300F4A9DF9FC
:105A30000730002B00DA1F335B115BB252F82320D2
:105A40009DF90730594203F01F0301F01F0158BFB1
:105A50004B425BB222FA03F303F00103002B14BFA5
:105A600001230023DBB2184602B0704700E100E0DA
:105A700082B001904FF08042019BC2F8083300BF12
:105A800002B0704784B00346ADF80630BDF806306A
:105A900003F1804300221A60BDF8063003F1804311
:105AA0001B680393039B00BF04B0704782B003469A
:105AB000ADF80630BDF8063003F180431B68002BBB
:105AC00014BF01230023DBB2184602B0704782B036
:105AD00001904FF08042019BC2F8183500BF02B020
