:1000000000000420750300005D0300008D1800004F
:1000100061030000630300006503000000000000AE
:10002000000000000000000000000000A9E800003F
:100030006903000000000000CDE800006D0300002F
:10004000ED4D00006F030000FD4D000061A10000B8
:1000500079A100006F030000094B0000D98D00005A
:10006000798A0000918A0000A98A000071180000B6
:100070006F0300006F0300006F0300006F030000B8
:100080006F03000081ED00006F0300006F030000AC
:100090006F0300006F0300006F0300006F03000098
:1000A0006F0300006F0300006F0300006F03000088
:1000B0006F0300006F03000000000000000000005C
:1000C0006F0300006F0300006F0300006F03000068
:1000D0006F0300006F0300006F030000797C0000D5
:1000E0006F030000314F00006F03000000000000AC
:1000F000000000006F030000000000006F0300001C
:1001000000000000000000000000000000000000EF
:1001100000000000000000000000000000000000DF
:1001200000000000000000000000000000000000CF
:1001300000000000000000000000000000000000BF
:1001400000000000000000000000000000000000AF
:10015000000000000000000000000000000000009F
:10016000000000000000000000000000000000008F
:10017000000000000000000000000000000000007F
:10018000000000000000000000000000000000006F
:10019000000000000000000000000000000000005F
:1001A000000000000000000000000000000000004F
:1001B000000000000000000000000000000000003F
:1001C000000000000000000000000000000000002F
:1001D000000000000000000000000000000000001F
:1001E000000000000000000000000000000000000F
:1001F00000000000000000000000000000000000FF
:10020000354936480A1A02D0072291438D463449AF
:1002100034480A1A06D00722914381F30988022242
:1002200082F3148830483149314A00F044F83148AB
:100230003149324A00F03FF831483249324A00F041
:100240003AF832483249334A00F035F832483349F7
:10025000334A00F030F833483349344A00F02BF881
:1002600033483449344A00F026F8344834490022EF
:1002700000F02CF833483449002200F027F83348C6
:100280003349091A082902DB002202604160314A21
:1002900090471F481F49884205D00268043003B4C4
:1002A000904703BCF7E700208646EC46002000217B
:1002B000294A9047FEE7884207D0521A05D00378B2
:1002C00001300B700131013AF9D17047884202D0F8
:1002D00002700130FAE770470000042000E00320BC
:1002E0000000042000000420AC33010000000020C6
:1002F000DC000020D0030000D0030000C80801008B
:10030000AC3301000000002000000020840901003F
:1003100084090100840901008409010084090100A5
:10032000840901008409010084090100AC33010043
:1003300088340100DC000020DC000020DC0000200C
:100340008C2E00208C2E0020902E0020902E00203D
:10035000904E00209D030000C9AA0000FEE7FEE7C2
:10036000FEE7FEE7FEE7FEE7FEE7FEE7FEE7FEE765
:1003700000F002B8FFF7FCBF0F484FF007018843B9
:1003800085460E4880470E48016841F470010160BF
:10039000BFF34F8FBFF36F8FFFF732BF09480A4992
:1003A0000A4A884207D0521A05D0037801300B70F0
:1003B0000131013AF9D170470000042015C6000050
:1003C00088ED00E08409010000000020000000200A
:1003D00000487047842E002000B5A1B0059004911C
:1003E00003920293049802F008F9039B1593029B71
:1003F00016930023179300238DF860300023199380
:10040000229B1A9300231F930FA91F9B0C22049871
:1004100002F0CCF90C231F93119B1293BDF84030CE
:10042000ADF84C30BDF84230ADF84E3000238DF8B9
:1004300051309DF83C3003F00303DBB2012B26D191
:100440000F9BC3F395231C939DF83C30C3F3C20369
:10045000DBB28DF85030BDF83C30C3F38313DBB210
:100460001B931B9B9A0009A91F9B049802F09EF9FD
:100470001B9B9B001F9A13441F9312AA09A915AB3B
:10048000009313461B9A1C9800F098FF2FE09DF8EC
:100490003C3003F00303DBB2022B28D1BDF83E3021
:1004A000C3F389139BB21E939DF83C30C3F3C20380
:1004B000DBB28DF850301E9B082B28BF08231D93FC
:1004C00007A91F9B1D9A049802F070F91F9A1D9BA3
:1004D00013441F931E9A1D9BD31A1E9315AB12AA89
:1004E00007A81D9901F00CF81E9B002BE3D104987E
:1004F00002F092F800BF21B05DF804FB00B583B0B4
:100500000190019B1B781A460C4B9B5C002B05D07D
:10051000019B0433184605F087FF0BE0019B1B7815
:100520001A46064B9B5C002B04D1019B0C331846EA
:1005300005F002F900BF03B05DF804FBAC06002033
:1005400000B587B00390029113468DF80730002361
:100550000593039B1B781A46114B9B5C002B09D01B
:10056000039B04339DF807200299184605F0BEFF4F
:1005700005900FE0039B1B781A46094B9B5C002BF0
:1005800008D1039B0C339DF807200299184605F00B
:100590004BF90590059B184607B05DF804FB00BFBA
:1005A000AC06002082B001900091034B01221A702A
:1005B00000BF02B0704700BF1C01002030B58DB0F5
:1005C00003468DF807301A4B02AC1D460FCD0FC401
:1005D00095E80F0084E80F00062302934FF0FF33E5
:1005E00003934FF0FF3304934FF0FF3305934FF025
:1005F000EB7308939DF80730002B01D00D4A00E003
:10060000002202AB19460C4803F028F90B900B9B13
:100610000A930A9B002B04D0084A43210A9801F050
:1006200033F8074A9DF80730137000BF0DB030BD96
:10063000E0090100A5050000000000208409010078
:100640001D01002000B589B0039002910192019B29
:100650008DF81F30124B00221A709DF81F301A4679
:1006600002991048FFF76CFF0690069B0593059BC7
:10067000002B04D00C4A5321059801F005F800BF67
:100680000A4B1B78002B07D0054B1B78DBB283F09D
:100690000103DBB2002BF3D100BF09B05DF804FB0E
:1006A0001C01002000000020840901001D01002021
:1006B00000B585B003900291054B00934023054A95
:1006C00002990398FFF788FE00BF05B05DF804FBB0
:1006D00045060000DC00002082B0019000BF02B09F
:1006E0007047000000B583B001900548FFF706FF92
:1006F0000020FFF763FF00BF03B05DF804FB00BFFD
:100700000000002000B583B001900091019B1B68A0
:100710001B6800990198984700BF03B05DF804FB7F
:1007200000B583B00190019B1B685B6801989847F6
:1007300000BF03B05DF804FB00B583B00190019BDE
:100740001B689B680198984700BF03B05DF804FBE5
:1007500082B00190019BDB6801225A7100BF02B098
:10076000704782B00190019BDB685B79184602B04C
:1007700070470000024A034BD31ADB081846704743
:1007800060090100C808010000B587B001900B4660
:100790008DF803309DF80330002B1FD0FFF7EAFFE0
:1007A00004900023059313E0059B9B000E4A13441D
:1007B0000393039B1B881A46019B1B689A4204D132
:1007C000019B059A1A60002309E0059B01330593FC
:1007D000059A049B9A42E7D3052300E000231846BC
:1007E00007B05DF804FB00BF0000002000B585B035
:1007F00001900B468DF803309DF8032001AB1146A4
:100800001846FFF7C1FF0346002B07D1019BDB0011
:10081000054A13440393039B1B6800E0002318461A
:1008200005B05DF804FB00BFC808010084B001906A
:100830000B468DF80330019BDB00174A13440293EB
:100840009DF80330013B032B1CD801A252F823F082
:100850006108000069080000710800007B080000C2
:1008600002238DF80F3011E004238DF80F300DE0D6
:10087000029B1B798DF80F3008E0029B5B798DF8A5
:100880000F3003E000238DF80F3000BF9DF80F30CC
:10089000184604B0704700BFC808010084B001903A
:1008A000009100238DF80F30019B1B7803F00403A7
:1008B000DBB2002B24D0019B1B78C3F30103DBB216
:1008C000012B02D0022B0CD017E0009B1B68019A71
:1008D0001288C2F38312D2B21344DA1C009B1A604E
:1008E0000BE0009B1B68019A5288C2F3891292B2F6
:1008F0001344DA1C009B1A6000BF01238DF80F30EF
:100900009DF80F30184604B07047000000B58BB05A
:100910000023ADF826303E4801F053F93D4801F080
:1009200050F93D4B9B6804933C4B1B680693049A1B
:10093000069B134002339B00374A13440433089349
:1009400004AB19460898FFF7A9FF0346002B09D00E
:10095000049A069B134002339B002F4A134404332E
:100960000893EDE700BF0023079311E0049B5A1C96
:100970000492069A1340079A920001A90A44264954
:1009800002339B000B445B681360079B01330793A2
:10099000079B022BEAD99DF80430C3F30103DBB2B5
:1009A000012B10D0022B1CD1BDF80A30ADF8263037
:1009B000BDF80630C3F389139BB203339A08049B36
:1009C0001344049313E0BDF80A30ADF82630BDF8A7
:1009D0000430C3F38313DBB21A46049B134404931D
:1009E00005E00F494FF4C27001F05EF800BF0948FE
:1009F00001F0F3F80590059B002B02D0049B064AFA
:100A00009360BDF8263018460BB05DF804FB00BFBC
:100A10000806002004060020F00100201C00002031
:100A2000840A010000B585B00021074801F052F8A2
:100A30000390039B0293029B83F310030193019B9A
:100A4000184605B05DF804FB0C06002010B588B010
:100A50000390029101920093039B1B0C0793FFF7F5
:100A6000E1FF0690FFF786FE0246079B934204D300
:100A7000284940F2A91001F017F8069B1904009BC1
:100A80005A1C0A9B1340079A0A43234902339B00CE
:100A90000B445A60204BD3F80C34009A911C0A9AEC
:100AA00001EA0204984702461B49A31C9B000B4421
:100AB0005A60009A0A9B134002339B00164A134463
:100AC00004330593039B03F00703D9B2059A137807
:100AD00061F3C5031370019B03F00F03D9B2059AAC
:100AE000138861F389131380029BC3F31501059AE0
:100AF000136861F39F231360059A1378012161F352
:100B000001031370059A13786FF38203137000BF0B
:100B100008B010BD840A0100F001002000BF70473A
:100B200000B58BB00390029113468DF80730039BFC
:100B30000333089301238DF81F30002000F050FE8E
:100B40003E4B5A68029B1A603D4B1A683B4B9968B2
:100B50003A4B5B68CB1A13440133099314E001212B
:100B6000384800F0FEFFFFF7D1FE059005993548A3
:100B700000F0F7FF324B1A68304B99682F4B5B68D7
:100B8000CB1A134401330993089A099B9A42E6D879
:100B90009DF81F30002B48D0002304939DF80730A8
:100BA000002B17D09DF81030012262F301038DF85D
:100BB00010309DF8103043F004038DF81030039B83
:100BC00003F00F03DAB2BDF8103062F38913ADF809
:100BD000103016E09DF81030022262F301038DF808
:100BE00010309DF8103043F004038DF81030039B53
:100BF000C3F309039AB2BDF8123062F38F13ADF854
:100C000012300E4B5A680E4B1B68134002339B0088
:100C10000A4A134404330693049A069B1A60074B4E
:100C20005A68089B1344054A5360002000F0ECFD0D
:100C30009DF81F3018460BB05DF804FBF001002052
:100C40001C0000200C06002000B58BB0059004911C
:100C500003920293204B1B68079306AB01221946AF
:100C60000298FFF75DFF0346002B24D0069B033359
:100C700009930023089311E0089B9B00039A1A44F0
:100C8000099B591C099107990B40126813490233BB
:100C90009B000B445A60089B01330893089A029BFF
:100CA0009A42E9D3069A079B00931346029A049945
:100CB0000598FFF7CBFE094B1B78002B05D000BF32
:100CC00000F098F80346002BFAD1FFF727FF00BF8A
:100CD0000BB05DF804FB00BF1C000020F0010020F9
:100CE00000B583B001900091002300220099019883
:100CF000FFF7AAFF00BF03B05DF804FB00B587B0A3
:100D0000039002910192019B059305AA0123029988
:100D10000398FFF799FF00BF07B05DF804FB00B52B
:100D200087B00390029101920093019B0493009B72
:100D3000059304AA022302990398FFF785FF00BFD9
:100D400007B05DF804FB00B589B0039002910192F1
:100D50000093019B0593009B06930A9B079305AAAA
:100D6000032302990398FFF76FFF00BF09B05DF8F6
:100D700004FB00B589B00390029101920093019B9E
:100D80000493009B05930A9B06930B9B079304AA6D
:100D9000042302990398FFF757FF00BF09B05DF8DD
:100DA00004FB00B58BB00390029101920093019B6C
:100DB0000593009B06930C9B07930D9B08930E9B3A
:100DC000099305AA052302990398FFF73DFF00BF89
:100DD0000BB05DF804FB0000054B9A68044B5B68A0
:100DE0009A420CBF01230023DBB21846704700BFB4
:100DF000F001002000B599B0FFF7EEFF0346002B8D
:100E000001D00023B9E19B4B0022C3F81824BFF3A3
:100E10004F8F00BF974B9B680493974B1B681093B1
:100E2000049A109B134002339B00924A13440433EC
:100E30001193002317930023169300230F9304AB01
:100E400019461198FFF72AFD0346002B19D0894B4C
:100E5000D3F81834002B14D1864B5A68049B9A425D
:100E600005D8844B5B68834A9360002385E1049A2C
:100E7000109B134002339B007E4A134404331193AA
:100E8000DDE70023159311E0049B5A1C0492109A8D
:100E90001340159A920001A90A44764902339B0037
:100EA0000B445B681360159B01331593159B022B54
:100EB000EAD99DF8043003F00303DBB2022B40F0C3
:100EC0009C80BDF80630C3F389139BB20D93BDF827
:100ED0000630C3F389139BB2502B28BF50239BB21B
:100EE0000C930C9BC3F309039AB2BDF8063062F36E
:100EF0008F13ADF806300C9B0C330B939DF8043028
:100F0000C3F3C203DBB20F930B995C4801F0E4FA20
:100F10001790179B002B00F0D380179801F06DFB02
:100F200001A9169B0C22179801F022FC169B0C338A
:100F30001693049BDA43109B134001339B000A93E2
:100F40000C9A0A9B9A4242D90A9B002B08D0049A19
:100F5000109B134002339B00464A1344043300E0C5
:100F6000474B08930A9B002B02D00A9BDBB201E09F
:100F70000C9BDBB28DF81F300A9B002B01D0404B3D
:100F800000E0002306930A9B002B06D00C9BDAB2EC
:100F90000A9BDBB2D31ADBB200E000238DF81730D6
:100FA0009DF81F20169B0899179801F0E1FB9DF80A
:100FB0001F30169A13441693069B002B16D09DF8EB
:100FC0001720169B0699179801F0D2FB0EE0049AA1
:100FD000109B134002339B00264A134404330993A9
:100FE000169B0C9A0999179801F0C2FB0D9B0333CD
:100FF0009A08049B1344049362E09DF8043003F0C4
:101000000303DBB2012B5BD1BDF80430C3F38313C0
:10101000DBB2062B28BF0623DAB2BDF8043062F338
:101020008913ADF80430BDF80430C3F38313DBB289
:1010300003330E939DF80430C3F3C203DBB20F9366
:101040000E9B9B0019460D4801F046FA1790179B1E
:10105000002B35D0179801F0D0FA01A9169B0C226D
:10106000179801F085FB169B0C33169300231593FC
:101070001DE000BFF00100201C00002070090100ED
:10108000FC010020049B5A1C0492109A1340023366
:101090009B003C4A1344191D169B0422179801F02B
:1010A00067FB169B04331693159B01331593BDF80C
:1010B0000430C3F38313DBB21A46159B9342E1D38A
:1010C000179B002B39D02F4BD3F8103414932D4B92
:1010D000D3F81834002B1BD0179801F09DFA46E086
:1010E00000238DF84F301498FFF73BFB0346002B8D
:1010F00002D001238DF84F309DF84F30002B03D0E4
:1011000017991498FFF7FEFA149BDB681B68149379
:10111000149B002BE4D1179801F07EFA002000F018
:101120005FFB184BD3F81834002B02D1049B154AEF
:101130009360002000F068FB19E0124BD3F81034E4
:10114000129306E01298FFF7F7FA129BDB681B6810
:101150001293129B002BF5D10B4A0C4BD31ADB08D0
:101160001B0443F002030A491846FFF7B9FDFFF7D5
:1011700033FE034683F00103DBB2184619B05DF875
:1011800004FB00BFF001002018090100C80801009D
:10119000DC0A010000B583B00C4BD3F81034019386
:1011A0000A4B01221A7009E00198FFF7D1FA019861
:1011B000FFF7B6FA019BDB681B680193019B002BCC
:1011C000F2D100BF00BF03B05DF804FBF0010020C6
:1011D00000B58DB0059004912F4B1B68049AB2FBAB
:1011E000F3F304932D4B1B68049AB2FBF3F30B93B8
:1011F0000B9B2B4AA2FB0323DB0A0A930A9B4FF4A7
:10120000616202FB03F30B9AD31A0B930B9B254AE3
:10121000A2FB03235B090993099A13461B019B1A3E
:101220009B001A460B9B9B1A0B931C4B1A68049B42
:10123000B3FBF2F101FB02F29B1A0893089B4FF4F7
:101240007A7203FB02F2154B1B68B2FBF3F30793B0
:10125000089B4FF47A7203FB02F2104B1B6807994C
:1012600001FB03F3D31A4FF47A7203FB02F20B4B28
:101270001B68B2FBF3F30693069B0293079B019353
:101280000B9B0093099B0A9A0749059800F078FD8B
:1012900000BF0DB05DF804FB14060020100600200E
:1012A000C5B3A29189888888580B010010B584B015
:1012B00003900291039BDB88002B0AD0039BDB8801
:1012C0001A461F4B009313461E4A1F49029800F00E
:1012D00057FD039B1B7A052B2ED0039B5B7A002BBB
:1012E00012D0039B9B881A46039B1B7A1946104613
:1012F000FFF79CFA03461A46144B53F822301A465D
:101300001349029800F03CFD039B1B6819460298A4
:10131000FFF75EFF039B1B7A1A460E4B53F82240E1
:10132000039B9B8800211846FFF760FA034622467C
:101330000949029800F024FD00BF04B010BD00BFB1
:10134000100B0100200B0100740B01003400002081
:101350008C0B010020000020900B010000B585B02F
:101360000390029113468DF80730039B1B7A052BDF
:101370000FD0039B5B7A002B06D00D4B1B681A46DF
:101380000C49029800F0FCFC0B49029800F0F8FCB4
:1013900007E09DF80730002B03D00749029800F0C2
:1013A000EFFC029800F0CAFC00BF05B05DF804FB3A
:1013B000340000208C0B01009C0B010030B58BB079
:1013C00007900691059204930E9B1B7B8DF82730A6
:1013D0000E9B00221A730E990498FFF767FF059B76
:1013E000062B7FD801A252F823F000BF0914000099
:1013F00013140000231400003714000055140000DB
:101400007D140000AD14000007990E9800F0B8FCA0
:1014100069E0069B1B681A4607990E9800F0B0FC1D
:1014200061E0069B1A68069B04331B6807990E98B7
:1014300000F0A6FC57E0069B1A68069B0433196867
:10144000069B08331B6800930B4607990E9800F023
:1014500097FC48E0069B1968069B04331868069BB6
:1014600008331B68069A0C321268019200930346F7
:101470000A4607990E9800F083FC34E0069B186832
:10148000069B04331C68069B08331B68069A0C32C3
:10149000126806991031096802910192009323465F
:1014A000024607990E9800F06BFC1CE0069B1C6836
:1014B000069B04331D68069B08331B68069A0C3292
:1014C0001268069910310968069814300068039074
:1014D0000291019200932B46224607990E9800F044
:1014E0004FFC00E000BF00220E990498FFF736FF82
:1014F0000E9B9DF827201A7300BF0BB030BD00BFB4
:1015000000B587B00390029101920093029B082BD3
:1015100060D8009B1B7B8DF81330009B00221A7350
:1015200000990198FFF7C2FE0023059314E0059A85
:10153000029B9A4209D2039A059B13441B781A46D0
:101540002649009800F01CFC03E02549009800F0B3
:1015500017FC059B01330593059B072BE7D9214910
:10156000009800F00DFC0023059326E0059A029BED
:101570009A421BD2039A059B13441B788DF81230B4
:101580009DF812307E2B0AD89DF8123018460EF0C6
:10159000A1FD0346002B02D09DF8123000E02E235F
:1015A0001A461149009800F0EBFB03E00F49009840
:1015B00000F0E6FB059B01330593059B072BD5D96E
:1015C000012200990198FFF7C9FE009B9DF81320A6
:1015D0001A7300E000BF07B05DF804FBA00B010028
:1015E000A80B0100AC0B0100B00B0100B40B010013
:1015F00086B003900291019201238DF817309DF877
:101600001730204A039B13601E4A029B53601D4AF9
:10161000019B9360039B44F20102934212D0039B0F
:1016200044F20202934220D1019B164AD360154B2B
:10163000DB681B68134A9361124BDB685B68114AD5
:10164000D36112E0019B0F4A13610E4B1B699B682B
:101650000C4A53610B4B1B691B680A4A9361094B87
:101660001B695B68074AD36100BF72B600BF00BF49
:101670009DF81730DBB2002BFAD162B600BF00BF75
:1016800006B070471806002000B583B002900091A4
:10169000019244F2010071466A4600F003F803B07B
:1016A00000BD00BF30B58BB007900691059272B6B1
:1016B00000BFFFF76FFD00BFFFF79CFB0346002B49
:1016C000FAD1079B44F20102934216D0079B44F2E1
:1016D000020293423ED1059B09932C4A2C4BD31A0C
:1016E000DB081B0443F00100099B5B681A46099B59
:1016F0001B682849FFF713FB39E0059B0893234A31
:10170000234BD31ADB081B0443F00104089B9D689C
:10171000089B9B68184601F069F803461846089B29
:101720005B681946089B1B68069A02920193009118
:1017300003462A4618492046FFF733FB134A144B49
:10174000D31ADB081B0443F0010314491846FFF7C2
:10175000C7FA0CE00D4A0E4BD31ADB081B0443F00A
:101760000103069A0E491846FFF7C8FA00BF0D4B51
:101770001B6803F00103002B00D000BE059A0699F8
:101780000798FFF735FF00BF0BB030BD1809010007
:10179000C8080100180C0100340C01005C0C0100A9
:1017A000700C0100F0ED00E072B600BF034B1B6847
:1017B0000133024A136000BF704700BF38060020A3
:1017C000064B1B68013B054A1360044B1B68002B4A
:1017D00001D162B600BF00BF704700BF38060020CD
:1017E00000B583B0019000F025F80346012B03D02B
:1017F0000449432000F058F9FFF7D6FF00BF03B0BB
:101800005DF804FBD00F010000B583B003468DF8EE
:10181000073000F00FF80346012B03D00449512094
:1018200000F042F9FFF7CCFF00BF03B05DF804FB06
:10183000D00F010084B0EFF305830193019BC3F344
:1018400008030393039B002B0DD1EFF31483009344
:10185000009B0293029B03F00103002B0CBF0123AA
:101860000023DBB200E00123184604B070470000FB
:1018700008B5044B1B68044A12681046984700BF1D
:1018800008BD00BF3C060020400600201EF0040FEB
:101890001CBFEFF309800AE0EFF308800549064A10
:1018A000884201D8904202D88D464FF00000034B89
:1018B000184700000000042000E00320F918000091
:1018C00000BF00BFBFF34F8F00BF064BDB6803F4C0
:1018D000E0620449044B1343CB60BFF34F8F00BF5A
:1018E00000BFFDE700ED00E00400FA0500B583B09D
:1018F0000190FFF7E7FF000010B588B00390FFF7F5
:1019000049FC00BFFFF776FA0346002BFAD1039B90
:101910000693584B9B6A0593069B002B35D0564A7D
:10192000564BD31ADB081B0443F00100069B9B694E
:101930001A465349FFF7E2F94F4A504BD31ADB08D6
:101940001B0443F00100069B1968069B5C68069B1C
:101950009B68069AD2680192009323460A46494939
:10196000FFF707FA444A454BD31ADB081B0443F040
:101970000100069B1A69069B5969069BDB69009367
:101980000B464149FFF7DFF90AE03B4A3B4BD31ACC
:10199000DB081B0443F001033C491846FFF7A0F99C
:1019A000344BDB6A03F00203002B0AD0324A334B7C
:1019B000D31ADB081B0443F0010335491846FFF72F
:1019C0008FF90023079320E00122079B02FA03F31B
:1019D0001A46059B1340002B14D02E4A079B52F841
:1019E0002330002B0ED0244A244BD31ADB081B04CF
:1019F00043F00100274A079B52F823301A46264934
:101A0000FFF77CF9079B01330793079B192BDBD961
:101A1000059B03F08003002B0CD0174A174BD31AF9
:101A2000DB081B0443F00103124A526B1B491846A2
:101A3000FFF764F9059B03F40043002B0CD00E4A1A
:101A40000E4BD31ADB081B0443F00103094A926BC7
:101A500013491846FFF752F9124B1B6803F00103B4
:101A6000002B00D000BE0398FFF740FF00BF08B076
:101A700010BD00BF00ED00E048090100C8080100EA
:101A8000341001004C10010084100100AC10010062
:101A9000E010010058000020241101003011010065
:101AA00050110100F0ED00E000B585B00346009153
:101AB000ADF80630BDF806300293009B039302ABED
:101AC0001A46002144F20200FFF7ECFD00BF05B00A
:101AD0005DF804FB10B487B001900091019B009A5F
:101AE00053E8004F104643E8000191F0000FF7D192
:101AF000059404900391059B184607B05DF8044BCC
:101B0000704710B487B001900091019B009A53E890
:101B1000004F44EA020043E8000191F0000FF6D1C3
:101B2000059404900391049B184607B05DF8044B9C
:101B3000704710B487B001900091019B009A53E860
:101B4000004F04EA020043E8000191F0000FF6D1D3
:101B5000059404900391059B184607B05DF8044B6B
:101B6000704710B487B001900091019B009A53E830
:101B7000004F04EB020043E8000191F0000FF6D1A2
:101B8000059404900391049B184607B05DF8044B3C
:101B9000704710B487B001900091019B009A53E800
:101BA000004FA4EB020043E8000191F0000FF6D1D2
:101BB000059404900391049B184607B05DF8044B0C
:101BC000704700B583B0019001210198FFF799FF9C
:101BD0000346184603B05DF804FB00B583B00190DE
:101BE00000210198FFF7A5FF0346184603B05DF8F2
:101BF00004FB000000B583B001900B468DF8033064
:101C0000019B002B03D10849E820FFF74DFF019B02
:101C1000DA689DF803300199098A01FB03F3134444
:101C2000184603B05DF804FB4016010000B583B010
:101C300001900091019B002B03D10849F520FFF78B
:101C400033FF009B019AD2689B1A019A128AB3FB58
:101C5000F2F3DBB2184603B05DF804FB4016010056
:101C600000B585B00190019B002B04D11C494FF4B5
:101C70009270FFF719FF002303930020FFF7B0FDD8
:101C8000019B1B681A68019B5B689A421FD9019BE4
:101C90001B681A68013A1A601B681B78194601987C
:101CA000FFF7A8FF0390019B9A68019B1B681B68C4
:101CB000D31A8DF80B30019B1B681B799DF80B2004
:101CC0009A4204D9019B1B689DF80B201A710020D1
:101CD000FFF79AFD039B184605B05DF804FB00BFB3
:101CE0004016010010B584B001900091019B002BBB
:101CF00004D1114940F24710FFF7D6FE009B002B9C
:101D000004D10D494FF4A470FFF7CEFE009B03935E
:101D10000020FFF765FD019B1B681C68621C1A60B0
:101D200003990198FFF782FF034623700020FFF715
:101D30006BFD00BF04B010BD4016010000B583B0BC
:101D40000190019B002B03D10C493120FFF7ACFE21
:101D5000019B9B68002B0CD0019B5B69019A106969
:101D6000019A1168019A92689847019B00229A6033
:101D700000E000BF03B05DF804FB00BF9416010053
:101D80000EB400B584B00190019B002B03D118491B
:101D90004220FFF789FE019B5B69002B03D11449A8
:101DA0004320FFF781FE019B1B68002B03D11049E4
:101DB0004420FFF779FE019B5B68002B03D10C499F
:101DC0004520FFF771FE059B002B0AD000230393EB
:101DD00006AB039303AB1A460599019800F0B8F9D6
:101DE00000E000BF04B05DF804EB03B0704700BF33
:101DF0009416010000B583B001900B468DF80330B6
:101E00009DF803300A2B03D10D210198FFF7F2FF53
:101E1000019B1A68019B9B68581C019988601344B8
:101E20009DF803201A70019B9A68019B5B689A4297
:101E300002D30198FFF782FF00BF03B05DF804FBF7
:101E400000B587B00390029101920093002305939F
:101E5000009B03F00103002B24D00BE0029B013315
:101E60000293059B013305939DF81330194603989F
:101E7000FFF7C0FF029B1B788DF813309DF81330DD
:101E8000002BEBD106E0019B013B0193202103983D
:101E9000FFF7B0FF019A059B9A422ED9019B002BB8
:101EA000F1D12AE0029B002B0BD002980EF0BFF973
:101EB000059006E0019B013B019320210398FFF769
:101EC00099FF019A059B9A420FD9019B002BF1D1F2
:101ED0000BE0029B01330293059B013305939DF8B0
:101EE000133019460398FFF785FF029B1B788DF886
:101EF00013309DF81330002BEBD100BF07B05DF815
:101F000004FB000000B589B0039002910192009398
:101F1000029B07930123069307E0079A019BB2FBFC
:101F2000F3F30793069B01330693079A019B9A42AA
:101F3000F3D2009A069B9A4201D9009B06930B9B11
:101F400003F00103002B22D10A9B002B1FD00B9B17
:101F500003F00203002B06D0009B002B03D130239B
:101F60008DF8173002E020238DF8173008E00A9B27
:101F7000013B0A939DF8173019460398FFF73AFF83
:101F80000A9B002B03D0069A0A9B9A42EFD30123A7
:101F90000793009B012B03D9009B013B009309E0B1
:101FA000029A079BB2FBF3F30493049A019B9A42B3
:101FB00000D205E0079B019A02FB03F30793E8E7D1
:101FC000029A079BB2FBF3F30493049B079A02FB6C
:101FD00003F3029AD31A0293154A049B13441B7805
:101FE00019460398FFF706FF079A019BB2FBF3F32C
:101FF0000793079B002BE3D10B9B03F00103002BFE
:1020000011D00A9B002B0ED006E00A9B013B0A93DD
:1020100020210398FFF7EEFE0A9B002B03D0069ABF
:102020000A9B9A42F1D300BF09B05DF804FB00BFE0
:102030002C17010000B589B005900491039202931A
:10204000049B002BB8BF5B4206930123079307E074
:10205000039B069A92FBF3F30693079B01330793C6
:10206000039B069A9A42F3DA029A079B9A4201D995
:10207000029B07930A9B002B0AD0049B002B04DBD6
:102080000B9B03F00403002B02D00A9B013B0A9335
:102090000B9B03F00203002B02D0029B002B16D0F7
:1020A0000B9B03F00103002B11D10A9B002B0ED0D8
:1020B00006E00A9B013B0A9320210598FFF79AFE50
:1020C0000A9B002B03D0079A0A9B9A42F1D3049BE8
:1020D000002B07DA049B5B4204932D210598FFF740
:1020E00089FE08E00B9B03F00403002B03D02B2197
:1020F0000598FFF77FFE0B9B03F00203002B19D01E
:102100000B9B03F00103002B14D1029B002B11D178
:102110000A9B002B0ED006E00A9B013B0A9330215C
:102120000598FFF767FE0A9B002B03D0079A0A9BCE
:102130009A42F1D304990B9B01930A9B0093029B53
:10214000039A0598FFF7DEFE00BF09B05DF804FBB7
:1021500000B58FB0059004910392059B002B04D12C
:10216000AD4940F25220FFF79FFC059B5B69002BB5
:1021700004D1A9494FF41570FFF796FC059B1B6825
:10218000002B04D1A44940F25520FFF78DFC059B9C
:102190005B68002B04D1A04940F25620FFF784FC75
:1021A000049B002B00F09381049B1B788DF8373043
:1021B000049B013304939DF83730002B00F07E819F
:1021C0009DF83730252B40F06D8100230A930123C1
:1021D0000C93049B1B788DF837309DF83730302BEB
:1021E0000DD0302B1BDC2B2B11D02D2B17D10A9BA4
:1021F00043F001030A93049B0133049312E00A9B0A
:1022000043F002030A93049B013304930AE00A9B00
:1022100043F004030A93049B0133049302E0002378
:102220000C9300BF0C9B002BD3D1002309939DF886
:1022300037302A2B0CD1039B1B68191D039A1160A0
:102240001B68099A13440993049B013304931AE011
:10225000049B1B788DF837309DF837302F2B12D91F
:102260009DF83730392B0ED8049B01330493099A1B
:1022700013469B0013445B001A469DF83730134405
:10228000303B0993D3E700230B93049B1B788DF815
:1022900037309DF837302E2B1DD1049B013304932A
:1022A000049B1B788DF837309DF837302F2B12D9CF
:1022B0009DF83730392B0ED8049B013304930B9AC9
:1022C00013469B0013445B001A469DF837301344B5
:1022D000303B0B93E4E7049B1B788DF837309DF877
:1022E00037306C2B03D09DF83730682B07D1049B17
:1022F00001330493049B1B788DF83730EFE79DF88A
:102300003730252B00F0C480252BC0F2C680782BF7
:1023100000F3C380582BC0F2C080583B202B00F242
:10232000BC8001A252F823F01D2400009B24000071
:102330009B2400009B2400009B2400009B240000A1
:102340009B2400009B2400009B2400009B24000091
:102350009B240000AD230000CF2300009B2400003D
:102360009B2400009B2400009B240000CF2300003E
:102370009B2400009B2400009B2400009B24000061
:102380009B2400009B2400005D2400009B2400008F
:102390009B240000412400009B240000F323000044
:1023A0009B2400009B2400001D240000039B1B684D
:1023B000191D039A11601B680C930C9B8DF81F303C
:1023C0009DF81F3019460598FFF714FD66E0039B42
:1023D0001B68191D039A11601B680C930A9B0193DB
:1023E000099B00930B9B0A220C990598FFF722FE8C
:1023F00054E0039B1B68191D039A11601B680C9322
:102400000C990A9B0193099B00930B9B0A22059848
:10241000FFF778FD42E000BFDC160100039B1B685C
:10242000191D039A11601B680C930C990A9B019368
:10243000099B00930B9B10220598FFF763FD2DE08D
:10244000039B1B68191D039A11601B6808930A9B64
:10245000099A08990598FFF7F3FC1FE0039B1B6896
:10246000191D039A11601B680C9330210598FFF722
:10247000C1FC78210598FFF7BDFC0C99002301935E
:1024800008230093082310220598FFF73BFD05E081
:1024900025210598FFF7AEFC00E000BF049B013347
:1024A000049305E09DF8373019460598FFF7A2FC24
:1024B000049B1B78002B7FF477AE00E000BF059BE8
:1024C0001B7B002B04D00598FFF738FC00E000BF11
:1024D0000FB05DF804FB00BF00B58BB00190009118
:1024E000019B1B8A043B0793009A079B1344DA1C49
:1024F000079BB2FBF3F38DF81B300198FFF7B0FB9D
:102500000590059B002B01D1002338E0059B00229C
:102510001A71059B01225A71079B9AB2059BDA80BA
:10252000059B09939DF81B30013B0493099B019A7D
:102530001A60002308931DE00198FFF791FB0390B8
:10254000039B002B0ED0059B5B790133DAB2059B10
:102550005A71099B039A1A60039B019A1A60039BA4
:10256000099304E0059800F00EF8002307E0089BAB
:1025700001330893089A049B9A42DDD3059B1846C1
:102580000BB05DF804FB00B58BB00190019B079385
:10259000079B5B798DF81B30019B08939DF81B30DE
:1025A000013B05930023099305E0089B1B680893F2
:1025B000099B01330993099A059B9A42F5D3089B1D
:1025C0001B680493019B0893002309930BE0089B6D
:1025D0001B68039308990498FFF784FB039B0893F7
:1025E000099B013309939DF81B30099A9A42EED357
:1025F00000BF00BF0BB05DF804FB00B585B00190D3
:10260000019B0393039B043301211846FFF7A9FAAA
:1026100000BF05B05DF804FB00B587B00190019BD9
:102620000593059B043301211846FFF7B2FA0346D0
:10263000039303AB0493049B1B78002B02D10198F6
:10264000FFF7A1FF00BF07B05DF804FB00B591B034
:102650000390029101920093039B002B03D1434905
:10266000B620FFF721FA039B0993039B0F93099B65
:10267000DB881A46099B5B7902FB03F3043B089352
:10268000009A089B9A4203D33849C420FFF70CFAFA
:10269000099BDB880793009B1A1D079BB2FBF3F392
:1026A0000E93009B0433079AB3FBF2F2079901FBE8
:1026B00002F29B1A0D93019B1A68009B1344089A1F
:1026C0009A4203D2089A009BD31A01E0019B1B682F
:1026D0000C93019B0C9A1A6005E00F9B1B680F93EB
:1026E0000E9B013B0E930E9B002BF6D100230B9308
:1026F000079A0D9BD31A0A930A9A0C9B934228BF00
:1027000013460A932AE0029A0B9B134406930F9AEE
:102710000D9B1344043305939DF84830002B05D0DE
:102720000A9A059906980DF004FD04E00A9A0699A4
:1027300005980DF0FEFC00230D930F9B1B680F9373
:102740000C9A0A9BD31A0C930B9A0A9B13440B9373
:10275000079A0C9B934228BF13460A930C9B002BAD
:10276000D1D100BF00BF11B05DF804FB3C170100E0
:1027700000B589B00590049103920293039B0793DF
:1027800007AA00230093029B04990598FFF75EFFB8
:10279000079B039A9A4203D00349F620FFF784F976
:1027A00000BF09B05DF804FB3C17010000B589B01B
:1027B0000590049103920293039B079307AA0123B8
:1027C0000093029B04990598FFF740FF079B039A2B
:1027D0009A4204D004494FF48070FFF765F900BFB6
:1027E00009B05DF804FB00BF3C17010000B585B0DF
:1027F0000190019800F00EF80390039B002B01D08C
:10280000039B00E0024B184605B05DF804FB00BFD7
:10281000F417010086B00190164B0593164B0493F4
:102820001FE0049A059BD31ADB10DA0F13445B10E8
:10283000DB00059A13440393039B1B680293029ADF
:10284000019B9A4202D9039B04930AE0029A019BDE
:102850009A4203D2039B0833059302E0039B5B6813
:1028600004E0059A049B9A42DBD30023184606B085
:10287000704700BFC81B0100E01C010082B001903E
:102880000B46ADF80230BDF80230019A13441846E9
:1028900002B0704782B00190019BD3F81035DBB2D3
:1028A000184602B0704782B001900B468DF8033095
:1028B0009DF80320019B02F5A87253F822301846B8
:1028C00002B0704782B00190019B9B0003F5A0739A
:1028D0009BB2184602B07047F0B587B001900B4626
:1028E0008DF803309DF803300593019B00221E46AE
:1028F00017464FF000024FF000033B0143EA167306
:1029000032010599C1F12006A1F1200022FA01F45B
:1029100003FA06F6344323FA00F0044323FA01F5E0
:10292000CDE90245DDE90223012B04D3044940F23D
:10293000B920FFF7B9F8029B184607B0F0BD00BFF9
:10294000E01C010010B582B001900091019B5B7901
:102950001A46009B934204D3094940F27110FFF7D5
:10296000A3F8019B1C680098FFF7ACFF03461946CB
:102970002046FFF783FF0346184602B010BD00BF94
:10298000041D010000B583B001900B468DF80330A3
:10299000019B1B689DF8032011461846FFF783FF33
:1029A0000346184603B05DF804FB00B583B0019000
:1029B0000091019B1B681846FFF76CFF0346194600
:1029C0000098FFF789FF0346184603B05DF804FB43
:1029D00000B583B00190019B1B68184600F05AF8BF
:1029E0000346002B04D10B494FF4F670FFF75CF857
:1029F000019B1B681F2B02D84FF0A04306E0019BF0
:102A00001B6803F01F02019B1A60034B184603B0BA
:102A10005DF804FB381D01000003005000B585B0CF
:102A2000019001AB1846FFF7D3FF0390019B0122F1
:102A300002FA03F31946039800F018F800BF05B036
:102A40005DF804FB00B585B0019001AB1846FFF7B7
:102A5000BFFF0390019B012202FA03F3194603987A
:102A600000F00EF800BF05B05DF804FB82B00190E5
:102A70000091019B009AC3F8082500BF02B070477F
:102A800082B001900091019B009AC3F80C2500BF11
:102A900002B0704784B00190019B5B090293002350
:102AA0000393029B002B03D0029B012B04D007E071
:102AB0004FF0FF33039303E04FF6FF73039300BF20
:102AC000019B03F01F030193039A019B22FA03F376
:102AD00003F00103002B14BF01230023DBB21846CF
:102AE00004B0704782B001900B468DF8033000BFF0
:102AF00002B0704700B585B00190019B5B681B79FF
:102B00001A461A4B9B5C8DF80E3001238DF80F305E
:102B10009DF80E30FF2B20D09DF80E30FE2B1FD0DD
:102B2000019B5B689DF80E2011461846FFF72AFFAF
:102B30000246019B5B681B7919460D4B53F8213007
:102B40009A420DD1019B5B681B791A46074BFF2106
:102B5000995400238DF80F3002E000238DF80F30D8
:102B60009DF80F30184605B05DF804FB4C060020B8
:102B70005406002000B583B00190019B5B680221E0
:102B8000184605F0C5FE00BF03B05DF804FB00B5B4
:102B900083B00190019B5B680221184605F0F2FEAC
:102BA00000BF03B05DF804FB00B587B00346009199
:102BB000ADF80630009B049301238DF817300023F5
:102BC0008DF816303AE09DF816302649049A5200E6
:102BD0000A4413441B78DBB2002B2AD09DF8163030
:102BE0002049049A52000A441A441278D2B2013A97
:102BF000D0B21C49049A52000A44134402461A7087
:102C00009DF816301749049A52000A4413441B7861
:102C1000DBB2002B0AD1144A049B52F823301B6804
:102C20000393039BDB690498984702E000238DF827
:102C300017309DF8163001338DF816309DF8163098
:102C4000012BC0D99DF81730002B06D0064A049BF3
:102C500052F823301846FFF79AFF00BF07B05DF81F
:102C600004FB00BF680600207406002000B585B094
:102C70000190019B1B680293029B93F82030184639
:102C800005F0E2F900238DF80F306CE000238DF899
:102C90000E3031E09DF80F209DF80E10029813467B
:102CA0005B0013449B0003440B4408331B78FF2B49
:102CB0001DD09DF80F209DF80E10029813465B0062
:102CC00013449B0003440B4408331B78184605F05B
:102CD000BBF99DF80F209DF80E10029813465B007B
:102CE00013449B0003440B440833FF221A709DF8E1
:102CF0000E3001338DF80E309DF80E30012BC9D9FE
:102D00009DF80F20029913465B0013449B000B446F
:102D10001B68B3F1FF3F16D09DF80F2002991346B0
:102D20005B0013449B000B441B68184601F022FD16
:102D30009DF80F20029913465B0013449B000B443F
:102D40004FF0FF321A609DF80F20029913465B0086
:102D500013449B000B440B3300221A709DF80F3074
:102D600001338DF80F309DF80F30012B8ED9019B68
:102D70005B68184605F0B6FC00BF05B05DF804FBC3
:102D800030B587B001900B468DF803301346ADF88F
:102D90000030019B1B6805939DF8032013465B00E0
:102DA00013449B00059A134404939DF803308DF857
:102DB0000F30059B93F82030184605F0DDF9BDF87B
:102DC0000030002B11D1049B5B7A184605F0D4F932
:102DD000049B1B7A184605F09AF9019B5B681B79E6
:102DE0001A46484BFF21995485E0BDF80020059B09
:102DF0009B699A4215D3059B9B69ADF80030049BF3
:102E00001B7A184605F0B8F9049B5B7A184605F062
:102E10007EF9019B5B681B791A463A4BFF21995456
:102E200069E0049B5A68059B9B699A4249D0049BC0
:102E30005B68002B45D0BDF80020049B5B689A427C
:102E40003FD2019B5868049B5A680023032105F078
:102E5000F7FC059B93F82040019B5B680321184613
:102E6000FFF770FD0546049B9B7A002B06D0049B60
:102E70001B68184601F05CFD034605E0049B1B68D7
:102E8000184601F019FD03461A462946204605F06A
:102E900005F9059B93F82030184605F038F9019B99
:102EA0005B681B791946174A9DF803305354019B00
:102EB0005B681B791946BDF80030134A42F821308F
:102EC00006E0019B5B681B791A460E4BFF21995463
:102ED000019B5868BDF800209DF80F10002305F0F5
:102EE000AFFC049B1B7A184605F011F9049B5B7A32
:102EF000184605F00CF9BDF80020049B5A6000BF8D
:102F000007B030BD4C0600205406002000B585B047
:102F100001900B468DF803301346ADF80030019B4D
:102F20001B6803939DF8032013465B0013449B002A
:102F3000039A134402939DF80330012B04D92C49C2
:102F400040F25B20FEF7B0FD029BDB7A012B04D040
:102F500027494FF41770FEF7A7FD039B93F8213024
:102F6000022B01D008233EE0BDF80020029B5B68E5
:102F70009A420CD1039BDB69002B06D0039BDB69D3
:102F8000019A526812791046984700232BE0019865
:102F9000FFF7B0FD0346002B01D0112323E0019B76
:102FA0005B681B791A46134BFE219954BDF800202B
:102FB0009DF8033019460198FFF7E2FE019B1B685C
:102FC000DB69002B0ED0019B5B681B791A469DF8CC
:102FD0000330094952000A44134402221A7001982E
:102FE000FFF7C8FD0023184605B05DF804FB00BFDD
:102FF0005C1D01004C0600206806002084B0019092
:10300000019B1B680393039B9B699BB2184604B00A
:103010007047000000B585B001900B468DF8033075
:103020001346ADF800300198FFF7E8FF03461A4653
:10303000BDF8003002FB03F3084AA2FB03235B093F
:103040000393039B9AB29DF8033019460198FFF74A
:103050005DFF0346184605B05DF804FB1F85EB5184
:1030600010B58CB0039001921A460B468DF80B30C8
:1030700013468DF80A309DF80B30012B04D96849AE
:103080004FF42B70FEF710FD039B1B680A939DF80D
:103090000B2013465B0013449B000A9A13440993C8
:1030A0000A9B93F82130002B01D00823B4E0099B40
:1030B00000225A60099B9DF80A209A7203238DF81A
:1030C0001430039B19689DF80B2013465B001344D2
:1030D0009B000B440A331B78002B0CBF01230023F9
:1030E000DBB28DF8153001238DF8163005AB19468B
:1030F000019801F0D5FA0890089B002B01D0042319
:103100008AE09DF80B200A9913465B0013449B004C
:103110000B44019A1A609DF80A30002B03D00198E5
:10312000FFF790FC02E00198FFF778FC00238DF890
:103130002F3011E09DF82F300833099A13441846B8
:1031400004F02EFF0346002B01D0042364E09DF819
:103150002F3001338DF82F309DF82F30012BE9D916
:10316000099B1B7A184605F007F8099B5B7A1846FD
:1031700005F002F89DF80A30002B06D0099B1B6869
:10318000184601F0D5FB034605E0099B1B6818466D
:1031900001F092FB034607939DF80A30002B06D0FE
:1031A000099B1B68184601F087FB034605E0099B55
:1031B0001B68184601F0BCFB03460693099B1C7A6A
:1031C000039B5B689DF80B2011461846FFF7BAFB7E
:1031D0000346079A1946204604F060FF099B5C7A73
:1031E000039B5B6802211846FFF7ACFB0346069A77
:1031F0001946204604F052FF099B0122DA72039B14
:103200005B681B791A469DF80B30064952000A4448
:10321000134400221A70002318460CB010BD00BFE2
:103220005C1D01006806002084B001900023039318
:103230000923029305E0019B5B080193039B013383
:103240000393019BB3F5805F03D3039A029B9A42D9
:10325000F1D3074B1B78002B04D0039B002B01D12B
:1032600001230393039BDBB2184604B0704700BFF1
:103270004806002000B58FB0059004910392059B8D
:10328000002B04D18F4940F21130FEF70DFC049B56
:10329000002B01D10B2310E1059B1B680C930C9BA9
:1032A00093F82130002B01D0082306E105F008FC3B
:1032B0000B900B9B002B04D00B9B852B01D0042380
:1032C000FBE001F0E1F9034683F00103DBB2002BE0
:1032D00007D001F075F90B900B9B002B01D0032355
:1032E000EBE0794B1B6803F0F003302B03D1774BF5
:1032F00000221A7002E0754B01221A700C9BFF220B
:1033000083F8202000238DF8373030E09DF83720F7
:103310000C9913465B0013449B000B440B330022B3
:103320001A709DF837200C9913465B0013449B00DC
:103330000B440833FF221A709DF837200C9913466E
:103340005B0013449B000B440933FF221A709DF865
:1033500037200C9913465B0013449B000B444FF03D
:10336000FF321A609DF8373001338DF837309DF801
:103370003730012BCAD90C9B2033184604F010FEBD
:103380000346002B04D00598FFF770FC042394E05B
:1033900000238DF836302CE09DF83620049B53F83E
:1033A0002230B3F1FF3F1FD09DF83620049B53F825
:1033B00022009DF83630049A13441B7A9DF836108B
:1033C00002460598FFF74CFE0B900B9B002B04D098
:1033D0000598FFF74BFC0B9B6FE09DF83630002201
:1033E00019460598FFF792FD9DF8363001338DF8A8
:1033F00036309DF83630012BCED9049B1B69184618
:10340000FFF712FF03468DF82B309DF82B308DF817
:103410001C3000238DF81D3000238DF81E3007234B
:103420008DF81F30059B5B681B790893059B5B68D3
:1034300007A9274A184605F059F80B900B9B002B5B
:1034400004D00598FFF712FC0B9B36E0059B5A68E9
:10345000049B1B6919461046FFF7A7FA09900C9BBD
:10346000099A9A61059B5B68184605F0C7F9059BA8
:103470005868012300930423099A022105F019FAE0
:10348000059B5B680221184605F07CFA0C9B039AA9
:10349000DA61059B5B681B7919460E4A059B42F869
:1034A0002130059B5B681B791A460B4BFF21995411
:1034B0000C9B012283F82120002318460FB05DF8F1
:1034C00004FB00BF5C1D0100E80F00F0480600206F
:1034D000A92B0000740600204C06002000B587B020
:1034E0000190019B1B680493049B93F82130002BEF
:1034F00004D1304940F29730FEF7D6FA0023059305
:1035000034E0059A13465B0013449B00049A13446D
:103510000393019B5B681B79274A5B001A44059B58
:10352000134400221A70039BDB7A002B1BD0039BF1
:103530001868019B1968059A13465B0013449B00A9
:103540000B440A331B78002B0CBF01230023DBB292
:10355000194601F001FA039B1B68184601F04EF969
:10356000039B00225A60059B01330593059B012BA9
:10357000C7D9019B5B681B791A46104BFF219954F0
:10358000019B5B681B6801211846FFF7ABFA019BA2
:103590005B68184605F032F9019B5B68184605F038
:1035A000D1F8049B022283F8212000BF07B05DF808
:1035B00004FB00BF5C1D0100680600204C060020D3
:1035C000044BD3F80034002B14BF01230023DBB2DB
:1035D000184670470000014000B583B000230193F6
:1035E000144B1B78002B02D08523019314E0114B60
:1035F00000229A600F4B00225A600E4B00221A6183
:103600000C4B0022DA600C4800F0C8FA019000F080
:10361000EBFA084B01221A70FFF7D2FF0346002B8A
:1036200002D0044B01229A70019B184603B05DF84A
:1036300004FB00BF880600207D37000084B00190A5
:103640000091019B1B68039306E0039A009B9A423A
:103650000DD0039B1B680393039B002BF5D1019BAB
:103660001A68009B1A60019B009A1A6000E000BF74
:1036700004B0704784B00190019B1B680393039BC7
:10368000002B03D0039B1A68019B1A60039B18460A
:1036900004B0704700B583B00190224B1B78002B1B
:1036A00003D12149F620FEF7FFF91E4B9B78DBB2D0
:1036B000002B12D0019B002B03D0019B5B680120E3
:1036C00098470020FEF78CF8164BDB680133154A4B
:1036D000D3600020FEF798F817E00020FEF780F88E
:1036E000019B002B03D001991048FFF7A7FF0D4B5A
:1036F000DB68002B01D100F091FA0A4BDB68013343
:10370000084AD3600020FEF77FF8064BDB68002BE9
:1037100004D105494FF48970FEF7C6F900BF03B024
:103720005DF804FB88060020B01D0100980600200B
:1037300000B585B003468DF807309DF80730002BA3
:1037400002D10C4B039301E00B4B03930398FFF75B
:1037500091FF0290029B002B06D0029B5B689DF8B4
:10376000072010469847F1E700BF00BF05B05DF89D
:1037700004FB00BF900600209806002000B583B02F
:1037800003468DF807309DF80730002B05D10A4B12
:1037900001225A700020FFF7CBFF9DF80730012B64
:1037A00005D1054B01229A700120FFF7C1FF00BF30
:1037B00003B05DF804FB00BF8806002000B589B0A7
:1037C00001900091009B0793019B1B788DF80C30B2
:1037D000019B5B680493019B9B68DBB28DF81430FE
:1037E000019BDB680693074A079B52F82330064982
:1037F000079A51F8221003AA1046984700BF09B053
:103800005DF804FB9C060020A406002000B589B0EA
:1038100001900091009B0793019B1B788DF80C3061
:10382000019B5B680493019B9B68DBB28DF81430AD
:10383000019BDB680693074A079B52F82330064931
:10384000079A51F8221003AA1046984700BF09B002
:103850005DF804FB9C060020A406002030B58FB064
:10386000039002910192039B1B780C932C490C9BB3
:10387000019A41F82320029B1A692A490C9B41F8BE
:1038800023200C9B012B07D1029B5B7F002B03D1D4
:1038900025497620FEF708F9029B5B7F1946234AEB
:1038A0000C9B13440A461A70029B04AC1D460FCDB4
:1038B0000FC495E80F0084E80F000C9B08930023C9
:1038C0000D93039B1B781A46184B9B5C002B0DD065
:1038D000039B181D019B002B01D0154A00E000221C
:1038E00004AB194602F03AFD0D9014E0039B1B78DF
:1038F0001A460E4B9B5C002B0DD1039B03F10C0071
:10390000019B002B01D00B4A00E0002204AB1946BA
:1039100001F0A8FE0D900D9B18460FB030BD00BF02
:103920009C060020A4060020001E0100AC0600201A
:10393000BD3700000D38000010B487B00190009131
:10394000019B009A53E8004F04EA020043E800019B
:1039500091F0000FF6D1059404900391059B184651
:1039600007B05DF8044B704782B003468DF807300E
:103970009DF90730002B0CDB9DF8073003F01F0288
:1039800005499DF907305B09012000FA02F241F870
:10399000232000BF02B0704700E100E082B0034680
:1039A00000918DF807309DF90730002B0ADB009B52
:1039B000DAB20C499DF907305201D2B20B4483F8B8
:1039C00000230BE0009BDAB207499DF8073003F0B3
:1039D0000F03043B5201D2B20B441A7600BF02B06F
:1039E000704700BF00E100E000ED00E082B0019010
:1039F000019B1B0B5BB2184602B0704700B583B049
:103A000003460A468DF8073013468DF806309DF8B8
:103A10000630072B03D908496B20FEF745F89DF8BF
:103A200006209DF9073011461846FFF7B7FF00BF83
:103A300003B05DF804FB00BF501E010000B583B069
:103A400003468DF807309DF907301846FFF78CFFC5
:103A500000BF03B05DF804FB82B003468DF8073069
:103A60000F4A9DF90730002B00DA1F335B115BB260
:103A700052F823209DF90730594203F01F0301F04B
:103A80001F0158BF4B425BB222FA03F303F001035C
:103A9000002B14BF01230023DBB2184602B070478D
:103AA00000E100E082B001904FF08042019BC2F83B
:103AB000043300BF02B0704782B001904FF08042E3
:103AC000019BC2F8083300BF02B0704782B00346C2
:103AD0008DF807309DF8073003F1804301221A600A
:103AE00000BF02B0704784B00346ADF80630BDF8A1
:103AF000063003F1804300221A60BDF8063003F15E
:103B000080431B680393039B00BF04B0704782B0DF
:103B10000346ADF80630BDF8063003F180431B685C
:103B2000002B14BF01230023DBB2184602B07047FC
:103B300082B001904FF08042019BC2F8183500BF5F
:103B400002B0704700B583B006238DF807304FF000
:103B50008040FFF74BFF03461846FFF77DFF034603
:103B600083F00103DBB2002B13D04FF08040FFF74E
:103B70003DFF03461A469DF8073019461046FFF7E9
:103B80003DFF4FF08040FFF731FF03461846FFF737
:103B900055FF00BF03B05DF804FB000000B585B021
:103BA0000190019B002B03D10D49A420FDF77CFF60
:103BB000002303930B4B1B79002B02D08523039327
:103BC00008E0084A019B1360064B01221A71054B5D
:103BD00000225A71039B184605B05DF804FB00BF34
:103BE0007C1E0100B006002008B5094B1B79002B94
:103BF00003D10849BD20FDF757FFFFF7A3FF0120C0
:103C0000FFF796FF044B01221A7000BF08BD00BFEA
:103C1000B00600207C1E0100B806002008B50A4B43
:103C20001B79002B03D10949EA20FDF73DFF4FF432
:103C30008270FFF758FF0220FFF734FF0820FFF7DC
:103C400045FF00BF08BD00BFB00600207C1E01007C
:103C500008B54FF48070FFF75AFF0346002B14D0CD
:103C60004FF48070FFF73FFF0120FFF725FF114B56
:103C70005B7983F00103DBB2002B06D00D4B0122F0
:103C80005A710C4B1B68002098474FF48270FFF765
:103C90003EFF0346002B0AD04FF48270FFF723FF4C
:103CA0000220FFF709FF034B1B680120984700BF64
:103CB00008BD00BFB006002082B003468DF8073073
:103CC0009DF90730002B0CDB9DF8073003F01F0235
:103CD00005499DF907305B09012000FA02F241F81D
:103CE000232000BF02B0704700E100E082B003462D
:103CF00000918DF807309DF90730002B0ADB009BFF
:103D0000DAB20C499DF907305201D2B20B4483F864
:103D100000230BE0009BDAB207499DF8073003F05F
:103D20000F03043B5201D2B20B441A7600BF02B01B
:103D3000704700BF00E100E000ED00E082B00190BC
:103D4000019B1B0B5BB2184602B0704700B583B0F5
:103D500003460A468DF8073013468DF806309DF865
:103D60000630072B03D908496B20FDF79DFE9DF80F
:103D700006209DF9073011461846FFF7B7FF00BF30
:103D800003B05DF804FB00BFCC1E010000B583B09A
:103D900003468DF807309DF907301846FFF78CFF72
:103DA00000BF03B05DF804FB82B003468DF8073016
:103DB0009DF8073003F1804303F5C043184602B075
:103DC000704700B583B00346ADF80630BDF8063045
:103DD000184600F026F803461B68012B0CBF012390
:103DE0000023DBB2184603B05DF804FB00B585B0D4
:103DF0000346ADF80630BDF80630184600F011F85D
:103E000003461A4600231360BDF80630184600F03A
:103E100008F803461B680393039B00BF05B05DF8D9
:103E200004FB82B00346ADF80630BDF8063003F15E
:103E3000804303F5C043184602B0704782B001903A
:103E4000034A019BC2F8043300BF02B0704700BFB1
:103E50000060004082B00190034BD3F80423019B23
:103E60001340184602B070470060004082B00190D5
:103E7000054A019B03F5A27352F823301B0A03F095
:103E80003F03184602B070470060004082B00190C6
:103E9000064A019B03F5A27352F823301B0C03F072
:103EA0000303DBB2184602B0704700BF0060004059
:103EB00084B00190094A019B03F5A27352F82330A4
:103EC00043F0030303930549019B03F5A273039A8F
:103ED00041F8232000BF04B0704700BF00600040DD
:103EE00084B00390029111461A460B468DF80730B4
:103EF00013468DF80630184A039B03F5A27352F857
:103F00002330154923F4991323F4F853039A02F547
:103F1000A27241F82230104A039B03F5A27352F8B3
:103F20002320029B1B0203F47C519DF807301B04E5
:103F300003F4403319439DF806301B0503F4801346
:103F40000B4305491A43039B03F5A27341F8232051
:103F500000BF04B0704700BF0060004082B0019015
:103F60000B468DF803300B4A019B03F5A27352F800
:103F7000233023F480129DF803301B0503F48013D3
:103F800004491A43019B03F5A27341F8232000BFA3
:103F900002B070470060004082B00190044A019B6B
:103FA00003F5A273002142F8231000BF02B070474E
:103FB0000060004000B583B00190019B1B6818466B
:103FC00000F03AF90346002B04D10B494FF4F67088
:103FD000FDF76AFD019B1B681F2B02D84FF0A04321
:103FE00006E0019B1B6803F01F02019B1A60034B54
:103FF000184603B05DF804FBF01E010000030050FA
:1040000000B585B00190084611461A4603468DF862
:1040100003300B468DF8023013468DF8013001ABAA
:104020001846FFF7C7FF03909DF803209DF8023064
:104030005B001A439DF801309B001A439DF818302D
:104040001B0242EA03019DF81C301B04019A19432C
:10405000039B02F5E07243F8221000BF05B05DF843
:1040600004FB00B585B00390002301930023009367
:104070000023012201210398FFF7C2FF00BF05B012
:104080005DF804FB00B585B0039000230193002385
:1040900000930023012200210398FFF7B1FF00BF26
:1040A00005B05DF804FB00B585B001900B468DF8B6
:1040B000033001AB1846FFF77DFF0390019A039B85
:1040C00002F5E07253F82230019A23F44031039B49
:1040D00002F5E07243F82210019A039B02F5E072A8
:1040E00053F822309DF8032012041146019A194317
:1040F000039B02F5E07243F8221000BF05B05DF8A3
:1041000004FB00B585B0019001AB1846FFF752FFE4
:104110000390019B012202FA03F31946039800F071
:104120002EF800BF05B05DF804FB00B585B0019026
:1041300001AB1846FFF73EFF0390019B012202FAF4
:1041400003F31946039800F024F800BF05B05DF8AA
:1041500004FB00B585B0019001AB1846FFF72AFFBC
:104160000390019A039B02F5E07253F822301B0C76
:1041700003F00303DBB2184605B05DF804FB82B020
:1041800001900091019B009AC3F8082500BF02B07E
:10419000704782B001900091019B009AC3F80C25F2
:1041A00000BF02B07047000088B0039002910192F6
:1041B000164A05AB92E8030083E80300039B0793CC
:1041C00019E0079B9B0008AA134453F80C3CD3F852
:1041D0002025019B1A60079B9B0008AA134453F8F3
:1041E0000C3C019A1268C3F82025019B043301930B
:1041F000079B01330793039A029B1344079A9A4241
:10420000DFD300BF00BF08B0704700BF141F01001C
:1042100000B585B0019001AB1846FFF7CBFE0390C7
:10422000019B012202FA03F31A46039BC3F82025DF
:1042300000BF05B05DF804FB84B00190019B5B09F1
:10424000029300230393029B002B03D0029B012BBC
:1042500004D007E04FF0FF33039303E04FF6FF7302
:10426000039300BF019B03F01F030193039A019B7B
:1042700022FA03F303F00103002B14BF01230023F0
:10428000DBB2184604B0704784B001900091009BE7
:104290000393019BDB080293019B03F00703019347
:1042A0000122019B02FA03F30399029A0A4412784D
:1042B0001340184604B0704784B001900091009BF1
:1042C0000393019BDB080293019B03F00703019317
:1042D000039A029B13441B785AB20121019B01FAF5
:1042E00003F35BB2134359B2039A029B1344CAB25D
:1042F0001A7000BF04B0704784B001900091009B19
:104300000393019BDB080293019B03F007030193D6
:10431000039A029B13441B785AB20121019B01FAB4
:1043200003F35BB2DB435BB2134059B2039A029BC7
:104330001344CAB21A7000BF04B0704782B0019033
:10434000074A019B1344303393F90030B3F1FF3F28
:1043500014BF01230023DBB2184602B0704700BF30
:10436000BC06002082B001900C4A019B13443033FC
:1043700093F90030002B09DB084A019B13443033CA
:1043800093F90030072B01DC012300E0002303F048
:104390000103DBB2184602B0704700BFBC06002024
:1043A00084B00390029101928DF80330029B59B2C0
:1043B0000E4A039B134430330A461A700B49029B82
:1043C000019A41F823209DF8033083F00103DBB20A
:1043D000002B08D0029B083B039A51B2034A1344B6
:1043E0000A4683F8602000BF04B07047BC06002076
:1043F00082B00190044A019B13443033FE221A70AC
:1044000000BF02B0704700BFBC06002082B0019020
:10441000044A019B13443033FF221A7000BF02B0DC
:10442000704700BFBC06002000B583B0019004496E
:104430000198FFF741FF00BF03B05DF804FB00BF28
:104440002007002000B583B0019004490198FFF7D0
:1044500053FF00BF03B05DF804FB00BF200700203E
:1044600000B583B0019007490198FFF70DFF03469F
:10447000002B14BF01230023DBB2184603B05DF804
:1044800004FB00BF2007002082B00190044A019B7A
:104490001344303393F90030184602B0704700BF20
:1044A000BC06002082B00190034A019B52F82330E1
:1044B000184602B0704700BFBC06002084B00190CF
:1044C000074A019B1344603393F900308DF80F3095
:1044D0009DF80F3023F0C003184604B0704700BFAA
:1044E000BC06002084B00190074A019B134460334E
:1044F00093F900308DF80F309DF80F309B09DBB237
:10450000184604B0704700BFBC06002000B589B053
:104510000390029113468DF80730FF238DF81F306A
:104520009DF80730002B01D0002300E008230593FD
:104530009DF80730002B01D0082300E00C230493E2
:10454000059B069314E00F4A069B52F82330B3F103
:10455000FF3F0AD19DF80730029A06990398FFF7AA
:104560001FFF069B8DF81F3006E0069B0133069364
:10457000069A049B9A42E6D39DF91F30184609B06B
:104580005DF804FBBC06002082B003468DF80730BE
:104590009DF80730094A4FF0FF3142F823109DF88B
:1045A0000730072B07D99DF80730083B034A13440F
:1045B000FF2283F8602000BF02B07047BC060020D5
:1045C00000B583B02D4B93F86A30002B03D008233D
:1045D0000093009B4EE000238DF8073011E09DF81A
:1045E00007301846FFF728FE0346002B04D09DF83D
:1045F00007301846FFF70AFF9DF8073001338DF8A2
:1046000007309DF807302F2BE9D900238DF80730AC
:1046100009E09DF807301846FFF7B6FF9DF8073010
:1046200001338DF807309DF807300B2BF1D90622A6
:10463000002113480BF0A6FD1248FFF77FFB03464D
:1046400006211846FFF782FB0E48FFF777FB03466B
:104650001846FFF79BFB4FF4BE70FFF7C7FB4FF008
:104660000040FFF7EBFB054B012283F86A20002393
:104670000093009B184603B05DF804FBBC060020C5
:104680002007002000600040044B93F86A30002BA4
:1046900014BF01230023DBB218467047BC0600207C
:1046A00000B585B0019000910198FFF7C5FD034664
:1046B000002B04D12D4940F24910FDF7F5F92C4BA0
:1046C00093F86A30012B04D028494FF4A570FDF708
:1046D000EBF9009B002B04D1244940F24B10FDF76D
:1046E000E3F9002303930198FFF728FE0346002B0C
:1046F00002D00823039334E0009B9B78002B19D051
:10470000012200210198FFF701FF03468DF80B30CD
:104710009DF90B30B3F1FF3F09D09DF90B00009BD1
:104720001A78009B5B780199FFF7DAFB05E0042318
:10473000039302E00198FFF75BFE039B002B10D16F
:10474000009B5B78012B03D10198FFF7DAFC02E0B4
:104750000198FFF7EAFC0198FFF783FC0198FFF747
:1047600063FE039B184605B05DF804FB241F01009F
:10477000BC06002000B583B001900198FFF75CFDF6
:104780000346002B04D11C4940F28110FDF78CF93F
:104790000198FFF7D3FD0346002B04D116494FF4CF
:1047A000C170FDF781F90198FFF7DCFD0346002B8E
:1047B0000ED00198FFF768FE0346DBB21846FFF7FC
:1047C000E3FE0198FFF760FE03461846FFF7E4FB9F
:1047D0000198FFF71BFE0198FFF742FE0346002BEE
:1047E00005D00198FFF74EFC0198FFF72BFE00BFA4
:1047F00003B05DF804FB00BF241F010000B583B0C7
:1048000001900198FFF718FD0346002B04D11449CD
:1048100040F2B310FDF748F90198FFF78FFD03460A
:10482000002B04D10E494FF4DA70FDF73DF90198E1
:10483000FFF798FD0346002B04D1094940F2B5105B
:10484000FDF732F9074A019B1344303393F90030E6
:104850001846FFF72DFB00BF03B05DF804FB00BF57
:10486000241F0100BC06002000B583B00190019810
:10487000FFF7E2FC0346002B04D10E494FF4EC7025
:10488000FDF712F90198FFF76DFD0346002B04D1E7
:10489000084940F2D910FDF707F90198FFF7F4FD38
:1048A0000346DBB20C33DBB29B00DBB2184603B02D
:1048B0005DF804FB241F010000B585B0019001984C
:1048C000FFF7D2FF03468DF80F309DF80F301846E2
:1048D000FFF76AFA0346184605B05DF804FB0000CE
:1048E00000B583B001900198FFF7A6FC0346002BAA
:1048F00004D10E494FF4F570FDF7D6F80198FFF793
:1049000031FD0346002B04D1084940F2EB10FDF7BE
:10491000CBF80198FFF7B8FD0346DBB21833DBB2E2
:104920009B00DBB2184603B05DF804FB241F0100B6
:1049300000B585B001900198FFF7D2FF03468DF8CE
:104940000F309DF80F301846FFF72EFA0346184631
:1049500005B05DF804FB000000B585B001900B4682
:104960008DF803300198FFF767FC0346002B04D154
:104970001A4940F2FB10FDF797F80198FFF7DEFCAB
:104980000346002B04D115494FF4FE70FDF78CF857
:104990000198FFF7E7FC0346002B04D10F4940F2D2
:1049A000FD10FDF781F89DF80330002B14BF0123A3
:1049B0000023DBB28DF80F30094A019B13443033DA
:1049C00093F900301A469DF80F3019461046FFF74C
:1049D000C5FA00BF05B05DF804FB00BF241F01004D
:1049E000BC06002000B585B00190019A022100208C
:1049F000FFF7DAFB002303930BE0039B9B00019A74
:104A000013441B68002B01D0012306E0039B0133F4
:104A10000393039B012BF0D90023184605B05DF8E2
:104A200004FB000000B587B00190002305935BE014
:104A3000344A059B1344603393F90030B3F1FF3FD0
:104A40004ED00598FFF73AFD049001990498FFF7BE
:104A50001BFC0346002B44D00598FFF743FD03469B
:104A60008DF80F300498FFF774FB03468DF80E3075
:104A70009DF80E30022B01D1032300E002238DF8B4
:104A80000D309DF80D3019460498FFF70CFB049883
:104A9000FFF7BEFB0498FFF7F7FC03461846FFF745
:104AA00001FD0290029B002B1BD09DF80F30032BC1
:104AB0000FD09DF80E30022B03D19DF80F30012B43
:104AC00007D09DF80E30032B0BD19DF80F30022B31
:104AD00007D19DF80F20029B11460498984700E0EB
:104AE00000BF059B01330593059B032BA0D90198BB
:104AF000FFF778FF0346002B97D100BF00BF07B038
:104B00005DF804FBBC06002000B58BB000230893C1
:104B100001AB00221A605A604FF48073ADF81A306E
:104B2000012309930023079321E0BDF81A301846AA
:104B3000FFF747F90346002B0ED00998FFF78AF9D3
:104B40000346002B08D0BDF81A301846FFF74EF97F
:104B5000089A099B13430893099B5B000993BDF8CE
:104B60001A300433ADF81A30079B01330793079BC3
:104B7000072BDAD94FF4BE70FFF723F90346002B59
:104B80000DD04FF4BE70FFF731F9089B43F000439E
:104B9000089301AB1A4602210020FFF705FB089B92
:104BA000DBB2002B29D0012309930023079321E0D6
:104BB000099A089B1340002B16D00798FFF756F967
:104BC00005900798FFF762F903468DF813300798B0
:104BD000FFF768FC0390039B002B05D09DF8132082
:104BE000039B114605989847099B5B000993079B17
:104BF00001330793079B072BDAD9089B002B03DAB5
:104C000001AB1846FFF70EFF00BF0BB05DF804FBC9
:104C100084B00346ADF80630BDF8063003F180439A
:104C200000221A60BDF8063003F180431B6803932D
:104C3000039B00BF04B0704782B00346ADF8063056
:104C4000BDF8063003F180431B68002B14BF01231D
:104C50000023DBB2184602B0704700B585B00346AA
:104C6000ADF80630BDF806301846FFF7E5FF0346FD
:104C70008DF80F309DF80F30002B04D0BDF80630B2
:104C80001846FFF7C5FF9DF80F30184605B05DF8D0
:104C900004FB4FF08043D3F80433184670470000FC
:104CA00000B583B0FFF7F5FF0190019B03F004030B
:104CB000002B12D04FF48470FFF7CFFF0346002B78
:104CC0000BD0464B1B68002B04D145494FF48B7029
:104CD000FCF7EAFE414B1B689847019B03F0200359
:104CE000002B13D04FF48A70FFF7B7FF0346002B59
:104CF0000CD03C4B1B68002B04D1394940F21F10EB
:104D0000FCF7D2FE374B1B6800209847019B03F04D
:104D10004003002B13D04FF48C70FFF79EFF034627
:104D2000002B0CD02F4B1B68002B04D12C494FF4C7
:104D30009370FCF7B9FE2B4B1B6801209847019B31
:104D400003F08003002B13D04FF48E70FFF785FF24
:104D50000346002B0CD0244B1B68002B04D12049A8
:104D600040F22F10FCF7A0FE1F4B1B680020984755
:104D7000019B03F48073002B13D04FF49070FFF766
:104D80006CFF0346002B0CD0174B1B68002B04D183
:104D900013494FF49B70FCF787FE134B1B680120EF
:104DA0009847019B03F40073002B13D04FF49270CB
:104DB000FFF753FF0346002B0CD00B4B1B68002B57
:104DC00004D1074940F23D10FCF76EFE064B1B680C
:104DD0000220984700BF03B05DF804FB28070020BD
:104DE000BC1F01002C0700203007002008B5FFF78A
:104DF00057FFFEF72DFF00BF08BD000008B5064BAA
:104E00001B68002B03D105495120FCF74DFE024BD6
:104E10001B68984700BF08BD340700201020010020
:104E200082B00190019B044A934201D1034B00E000
:104E30000023184602B070470020004034070020CD
:104E400000B587B001900091019B002B03D1184958
:104E50007720FCF729FE0198FFF7E2FF0590059BFC
:104E6000002B1ED000238DF813300020FCF7B8FC77
:104E7000059B1B79002B03D001238DF8133005E02F
:104E8000059B009A1A60059B01221A710020FCF70D
:104E9000BBFC9DF81330002B03D011230393039B1D
:104EA00002E000230393039B184607B05DF804FB60
:104EB0001020010000B585B00190019B002B03D1AB
:104EC0000A499B20FCF7F0FD0198FFF7A9FF03902A
:104ED000039B002B05D0039B00221A60039B00223A
:104EE0001A7100BF05B05DF804FB00BF102001007F
:104EF00082B001900B46ADF80230BDF80230019A45
:104F0000134400221A6000BF02B0704782B00190C3
:104F10000B46ADF80230BDF80230019A13441B680D
:104F2000002B14BF01230023DBB2184602B07047E8
:104F300008B54FF480710B48FFF7E8FF0346002BDC
:104F40000ED0094B00225A714FF480710548FFF7CB
:104F5000CFFF054B1B68044A926811460020984712
:104F600000BF08BD009002403C07002082B003460D
:104F70008DF807309DF90730002B0CDB9DF80730CA
:104F800003F01F0205499DF907305B09012000FA73
:104F900002F241F8232000BF02B0704700E100E0B8
:104FA00082B003468DF807309DF90730002B13DBE4
:104FB0009DF8073003F01F0209499DF907305B098E
:104FC000012000FA02F2203341F82320BFF34F8F73
:104FD00000BFBFF36F8F00BF00BF02B0704700BFBC
:104FE00000E100E082B0034600918DF807309DF9A2
:104FF0000730002B0ADB009BDAB20C499DF9073021
:105000005201D2B20B4483F800230BE0009BDAB2CA
:1050100007499DF8073003F00F03043B5201D2B259
:105020000B441A7600BF02B0704700BF00E100E0F9
:1050300000ED00E082B00190019B1B0B5BB21846B3
:1050400002B0704700B583B003460A468DF80730BA
:1050500013468DF806309DF80630072B03D9084912
:105060006B20FCF721FD9DF806209DF907301146C5
:105070001846FFF7B7FF00BF03B05DF804FB00BFA1
:105080006020010000B583B003468DF807309DF91C
:1050900007301846FFF76AFF00BF03B05DF804FB56
:1050A00000B583B003468DF807309DF907301846E8
:1050B000FFF776FF00BF03B05DF804FB84B00190FA
:1050C0000B46ADF80230BDF80230019A13440022BD
:1050D0001A60BDF80230019A13441B680393039BC6
:1050E00000BF04B0704782B001900B46ADF80230AB
:1050F000BDF80230019A13441B68002B14BF012332
:105100000023DBB2184602B0704782B001900091D4
:10511000019B009AC3F8042300BF02B0704782B01D
:1051200001900091019BD3F80423009B1340002BB6
:1051300014BF01230023DBB2184602B0704782B0CF
:1051400001900091019B009AC3F8082300BF02B0B0
:10515000704784B00190019BD3F880340393019B86
:10516000039AC3F88024039B184604B0704782B0AA
:105170000190019B0422C3F8002500BF02B07047D4
:1051800082B00190019B0022C3F8002500BF02B04D
:10519000704784B0039002910192039B019AC3F877
:1051A0001425039B029AC3F80C2500BF04B0704776
:1051B00000B583B001904FF0FF324FF0FF310198FE
:1051C000FFF7E7FF00BF03B05DF804FB82B001907A
:1051D000019BD3F80C35184602B0704782B001909D
:1051E000019BD3F81435184602B0704782B0019085
:1051F000019BD3F80835184602B0704782B0019081
:10520000019BD3F81035184602B0704784B0039064
:1052100002910192039B029AC3F80825039B019A0D
:10522000C3F8102500BF04B0704700B583B00190EB
:105230004FF0FF324FF0FF310198FFF7E7FF00BF5B
:1052400003B05DF804FB82B00190019BD3F81835E0
:10525000DBB2184602B0704782B001900B468DF861
:1052600003309DF80320019BC3F81C2500BF02B04A
:10527000704782B001900B468DF803309DF80330E3
:10528000019A134401221A6000BF02B0704782B035
:1052900001900B468DF8033013468DF802309DF8CF
:1052A00003209DF802301343DBB21A46019BC3F87A
:1052B0006C2500BF02B0704782B001900091019B45
:1052C000009AC3F8242500BF02B0704700B583B030
:1052D0000190019B1B68184600F0A4F80346002BC0
:1052E00004D10B494FF4F670FCF7DEFB019B1B6801
:1052F0001F2B02D84FF0A04306E0019B1B6803F070
:105300001F02019B1A60034B184603B05DF804FBB3
:10531000842001000003005000B585B001900846CC
:1053200011461A4603468DF803300B468DF80230BD
:1053300013468DF8013001AB1846FFF7C7FF039005
:105340009DF803209DF802305B001A439DF8013060
:105350009B001A439DF818301B0242EA03019DF896
:105360001C301B04019A1943039B02F5E07243F8B9
:10537000221000BF05B05DF804FB00B585B00390B6
:1053800000230193002300930023012201210398AD
:10539000FFF7C2FF00BF05B05DF804FB00B585B0A4
:1053A00003900B468DF80B309DF80B3000220192D4
:1053B00000220092002200210398FFF7ADFF00BFFA
:1053C00005B05DF804FB00B585B0039000230193A0
:1053D000002300930023012200210398FFF79CFF84
:1053E00000BF05B05DF804FB00B585B0019001ABCE
:1053F0001846FFF76BFF0390019B012202FA03F3AB
:105400001946039800F004F800BF05B05DF804FBEE
:1054100082B001900091019B009AC3F8082500BF5B
:1054200002B0704784B00190019B5B090293002396
:105430000393029B002B03D0029B012B04D007E0B7
:105440004FF0FF33039303E04FF6FF73039300BF66
:10545000019B03F01F030193039A019B22FA03F3BC
:1054600003F00103002B14BF01230023DBB2184615
:1054700004B0704700B583B001900091009B1B6899
:10548000B3F1FF3F09D0009B1B681846FFF7ACFF44
:10549000009B1B681846FFF770FF009B5B68B3F129
:1054A000FF3F05D0009B5B6800211846FFF776FFA1
:1054B000019B1A68009B9B6919461046FFF7FCFE8A
:1054C000019B1868009B597D009B1B7D1A46FFF7C6
:1054D000DEFE019B1868009B1968009B5B681A46FA
:1054E000FFF757FE009B1B7D012B22D1009B9B6881
:1054F000B3F1FF3F05D0009B9B6800211846FFF7E2
:105500004DFF009BDB68B3F1FF3F09D0009BDB68D8
:105510001846FFF769FF009BDB681846FFF72DFF71
:10552000019B1868009BD968009B9B681A46FFF78F
:105530006DFE00BF03B05DF804FB000000B583B052
:1055400001900B468DF80330019B1B684FF48E7160
:105550001846FFF7B3FD019B1B684FF4A271184674
:10556000FFF7ACFD019B1B680E491846FFF7CDFD08
:10557000019B1B681846FFF75DFD03461A469DF820
:10558000033019461046FFF75DFD019B1B68184666
:10559000FFF750FD03461846FFF774FD00BF03B048
:1055A0005DF804FB8000020000B583B00190019B10
:1055B0001B6808491846FFF7C2FD019B1B68184687
:1055C000FFF738FD03461846FFF76AFD00BF03B03A
:1055D0005DF804FB8402020000B587B00190019BD6
:1055E0001B681846FFF7F2FD0590019B1B681846E3
:1055F000FFF7F4FD0490019B1B681846FFF7F6FDCA
:105600000390019B1B681846FFF7F8FD0290019B71
:105610001B681846FFF7CCFD019B1B681846FFF777
:1056200004FE059BB3F1FF3F02D00598FFF7CBFEC8
:10563000049BB3F1FF3F02D00498FFF7C4FE029B26
:10564000B3F1FF3F02D00298FFF7BDFE039BB3F119
:10565000FF3F02D00398FFF7B6FE00BF07B05DF82A
:1056600004FB000000B587B0039002910192029BF9
:10567000002B03D12D49AA20FCF716FA039B1B79B6
:105680001A462C2302FB03F3294A134404930023F4
:105690000593049B93F82A30002B03D0082305932D
:1056A000059B3EE0039B1A68039B1B791946214B1F
:1056B00053F8213019461046FFF7C2FB0346002B72
:1056C00003D011230593059B2BE002990398FFF764
:1056D000D1FE049B019A5A60029B1A69049B1A60CE
:1056E000049B5B68002B05D0029B1B7F1946039827
:1056F000FFF724FF039B1B681846FFF738FD049B48
:1057000000229A61049B0022DA61049B002283F844
:105710002920049B00225A61049B012283F82A203D
:10572000059B184607B05DF804FB00BFB0200100E0
:10573000480700200021010000B585B00190019BC1
:105740001B791A462C2302FB03F3114A13440393DB
:10575000019B1B681846FFF713FD039B5B68002B3A
:1057600002D00198FFF720FF0198FFF735FF019B5A
:105770001B681846FFF79EFB039B002283F82A2034
:10578000039B00225A6000BF05B05DF804FB00BF18
:105790004807002000B585B0019000914FF48E714C
:1057A0000198FFF78BFC009B9A68009B1B6A1344CF
:1057B0001B788DF80F30009B1B6A5A1C009B1A62E5
:1057C0009DF80F3019460198FFF746FD00BF05B060
:1057D0005DF804FB00B585B001900091009B5B690A
:1057E000039316E0009B93F82830DBB2002B01D026
:1057F000002314E04FF48E710198FFF774FC034608
:1058000083F00103DBB2002BECD100990198FFF784
:10581000C1FF009B1B6A039A9A42EBD801231846EA
:1058200005B05DF804FB000000B587B0039002915D
:105830000192039B1B791A462C2302FB03F33C4A7B
:1058400013440493049B93F82A30012B04D0394964
:105850004FF48C70FCF728F9029B002B04D13549DA
:1058600040F21910FCF720F9019B002B04D13149BB
:105870004FF48D70FCF718F9039800F05DF80346BB
:10588000002B03D011230593059B4CE0049B019A48
:105890005A61049B029A9A60049B00221A62049B3C
:1058A000002283F8282000230593039B1B684FF4F4
:1058B0008E711846FFF702FC039B1B6808211846EF
:1058C000FFF7D7FC039B1B6804991846FFF762FF9C
:1058D000049B5B68002B25D1039B1B680499184629
:1058E000FFF778FF034683F00103DBB2002B02D001
:1058F0000F23059313E000BF039B1B684FF48E71C9
:105900001846FFF7F0FB034683F00103DBB2002BE0
:10591000F2D1039B1B680C211846FFF7AAFC049BDD
:1059200000225A61059B184607B05DF804FB00BFD2
:1059300048070020B020010082B00190019B1B7934
:105940001946074A2C2301FB03F3134414331B6845
:10595000002B14BF01230023DBB2184602B07047AE
:105960004807002010B582B001900091009B9B6910
:10597000002B08D14FF484710198FFF79FFB019829
:10598000FFF761FC13E04FF484710198FFF796FB79
:10599000009BDA68009B5B6AD4180198FFF753FC00
:1059A00003462370009B5B6A5A1C009B5A6202B03C
:1059B00010BD00B589B003900291019201238DF8CA
:1059C0001030029B0693019B0593039B5B68039A2F
:1059D000116804AA1046984700BF09B05DF804FB9F
:1059E00000B587B00190009100238DF80830009B2E
:1059F0000493019B9B680393019B00225A61019BC6
:105A00005B68019A116802AA1046984700BF07B068
:105A10005DF804FB00B58BB0019000914FF400716C
:105A20000198FFF77CFB0346002B39D04FF49271AD
:105A30000198FFF758FB0346002B31D04FF49271C9
:105A40000198FFF73BFB4FF401710198FFF777FBDB
:105A5000009B93F8293083F00103DBB2002B03D0C5
:105A600004210198FFF705FC02238DF80C30019802
:105A7000FFF76FFB03460693009B9B690593009B12
:105A8000DB680493009B00229A61009B0022DA618C
:105A9000009B5B68009A116803AA1046984752E081
:105AA00004210198FFF73BFB0346002B4BD04FF43A
:105AB00084710198FFF717FB0346002B43D0009930
:105AC0000198FFF74FFF009B9A69009B5B6A9A421F
:105AD00039D1009BDB69002B19D0009BDB6809934F
