:1000000000000420750300005D0300005F03000092
:1000100061030000630300006503000000000000AE
:100020000000000000000000000000006936000031
:1000300069030000000000008D3600006D03000021
:10004000F50C00006F030000050D00006F030000B9
:100050006F0300006F0300006F0300006F030000D8
:100060006F0300006F0300006F0300006F030000C8
:100070006F0300006F0300006F0300006F030000B8
:100080006F030000413B00006F0300006F0300009E
:100090006F0300006F0300006F0300006F03000098
:1000A0006F0300006F0300006F0300006F03000088
:1000B0006F0300006F03000000000000000000005C
:1000C0006F0300006F0300006F0300006F03000068
:1000D0006F0300006F0300006F0300006F03000058
:1000E0006F0300006F0300006F03000000000000BA
:1000F000000000006F030000000000006F0300001C
:1001000000000000000000000000000000000000EF
:1001100000000000000000000000000000000000DF
:1001200000000000000000000000000000000000CF
:1001300000000000000000000000000000000000BF
:1001400000000000000000000000000000000000AF
:10015000000000000000000000000000000000009F
:10016000000000000000000000000000000000008F
:10017000000000000000000000000000000000007F
:10018000000000000000000000000000000000006F
:10019000000000000000000000000000000000005F
:1001A000000000000000000000000000000000004F
:1001B000000000000000000000000000000000003F
:1001C000000000000000000000000000000000002F
:1001D000000000000000000000000000000000001F
:1001E000000000000000000000000000000000000F
:1001F00000000000000000000000000000000000FF
:10020000354936480A1A02D0072291438D463449AF
:1002100034480A1A06D00722914381F30988022242
:1002200082F3148830483149314A00F044F83148AB
:100230003149324A00F03FF831483249324A00F041
:100240003AF832483249334A00F035F832483349F7
:10025000334A00F030F833483349344A00F02BF881
:1002600033483449344A00F026F8344834490022EF
:1002700000F02CF833483449002200F027F83348C6
:100280003349091A082902DB002202604160314A21
:1002900090471F481F49884205D00268043003B4C4
:1002A000904703BCF7E700208646EC46002000217B
:1002B000294A9047FEE7884207D0521A05D00378B2
:1002C00001300B700131013AF9D17047884202D0F8
:1002D00002700130FAE770470000042000E00320BC
:1002E0000000042000000420A44E000000000020B4
:1002F00004000020D0030000D0030000B447000039
:10030000A44E00000000002000000020B4470000C0
:10031000B4470000B4470000B4470000B4470000F1
:10032000B4470000B4470000B4470000A44E0000EA
:10033000A84E00000400002004000020040000205B
:10034000AC220020AC220020AC220020AC220020F5
:10035000AC4200209D03000035100000FEE7FEE7E0
:10036000FEE7FEE7FEE7FEE7FEE7FEE7FEE7FEE765
:1003700000F002B8FFF7FCBF0F484FF007018843B9
:1003800085460E4880470E48016841F470010160BF
:10039000BFF34F8FBFF36F8FFFF732BF09480A4992
:1003A0000A4A884207D0521A05D0037801300B70F0
:1003B0000131013AF9D1704700000420D117000043
:1003C00088ED00E0B447000000000020000000209D
:1003D00086B003900291019201238DF817309DF8A9
:1003E0001730204A039B13601E4A029B53601D4A2C
:1003F000019B9360039B44F20102934212D0039B42
:1004000044F20202934220D1019B164AD360154B5D
:10041000DB681B68134A9361124BDB685B68114A07
:10042000D36112E0019B0F4A13610E4B1B699B685D
:100430000C4A53610B4B1B691B680A4A9361094BB9
:100440001B695B68074AD36100BF72B600BF00BF7B
:100450009DF81730DBB2002BFAD162B600BF00BFA7
:1004600006B070470400002000B583B002900091F0
:10047000019244F2010071466A4600F003F803B0AD
:1004800000BD00BF00B587B003900291019272B623
:1004900000BF039B44F20102934207D0039B44F246
:1004A0000202934205D1019B059303E0019B049353
:1004B00000E000BF074B1B6803F00103002B00D0D6
:1004C00000BE019A02990398FFF782FF00BF07B0B0
:1004D0005DF804FBF0ED00E072B600BF034B1B6853
:1004E0000133024A136000BF704700BF24000020A0
:1004F000064B1B68013B054A1360044B1B68002B2D
:1005000001D162B600BF00BF704700BF24000020C9
:1005100000B583B0019000F025F80346012B03D00D
:100520000449432000F03BF8FFF7D6FF00BF03B0BB
:100530005DF804FBB447000000B583B003468DF8B6
:10054000073000F00FF80346012B03D00449512077
:1005500000F025F8FFF7CCFF00BF03B05DF804FB07
:10056000B447000084B0EFF305830193019BC3F30C
:1005700008030393039B002B0DD1EFF31483009327
:10058000009B0293029B03F00103002B0CBF01238D
:100590000023DBB200E00123184604B0704700B529
:1005A00085B003460091ADF80630BDF806300293E1
:1005B000009B039302AB1A46002144F20200FFF7AE
:1005C00061FF00BF05B05DF804FB0000044BD3F8E9
:1005D0000034002B14BF01230023DBB21846704700
:1005E0000000014000B583B000230193144B1B7839
:1005F000002B02D08523019314E0114B00229A6056
:100600000F4B00225A600E4B00221A610C4B002245
:10061000DA600C4800F0F2F9019000F015FA084B8E
:1006200001221A70FFF7D2FF0346002B02D0044BC1
:1006300001229A70019B184603B05DF804FB00BFCD
:10064000280000208907000084B001900091019BE0
:100650001B68039306E0039A009B9A420DD0039B0C
:100660001B680393039B002BF5D1019B1A68009B29
:100670001A60019B009A1A6000E000BF04B0704746
:1006800084B00190019B1B680393039B002B03D054
:10069000039B1A68019B1A60039B184604B07047BD
:1006A00000B583B00190224B1B78002B03D1214968
:1006B000F620FFF774FF1E4B9B78DBB2002B12D0A5
:1006C000019B002B03D0019B5B6801209847002011
:1006D000FFF71EFF164BDB680133154AD36000207D
:1006E000FFF72AFF17E00020FFF712FF019B002B06
:1006F00003D001991048FFF7A7FF0D4BDB68002BD3
:1007000001D100F0BBF90A4BDB680133084AD36022
:100710000020FFF711FF064BDB68002B04D10549D1
:100720004FF48970FFF73BFF00BF03B05DF804FB97
:10073000280000200C4800003800002000B585B0DB
:1007400003468DF807309DF80730002B02D10C4B83
:10075000039301E00B4B03930398FFF791FF029083
:10076000029B002B06D0029B5B689DF80720104679
:100770009847F1E700BF00BF05B05DF804FB00BF7C
:10078000300000203800002000B583B003468DF80B
:1007900007309DF80730002B05D10A4B01225A7013
:1007A0000020FFF7CBFF9DF80730012B05D1054B4B
:1007B00001229A700120FFF7C1FF00BF03B05DF86E
:1007C00004FB00BF2800002082B003468DF80730EC
:1007D0009DF90730002B0CDB9DF8073003F01F025A
:1007E00005499DF907305B09012000FA02F241F842
:1007F000232000BF02B0704700E100E082B0034652
:1008000000918DF807309DF90730002B0ADB009B23
:10081000DAB20C499DF907305201D2B20B4483F889
:1008200000230BE0009BDAB207499DF8073003F084
:100830000F03043B5201D2B20B441A7600BF02B040
:10084000704700BF00E100E000ED00E082B00190E1
:10085000019B1B0B5BB2184602B0704700B583B01A
:1008600003460A468DF8073013468DF806309DF88A
:100870000630072B03D908496B20FFF790FE9DF83F
:1008800006209DF9073011461846FFF7B7FF00BF55
:1008900003B05DF804FB00BF5C48000000B583B006
:1008A00003468DF807309DF907301846FFF78CFF97
:1008B00000BF03B05DF804FB82B003468DF807303B
:1008C0000F4A9DF90730002B00DA1F335B115BB232
:1008D00052F823209DF90730594203F01F0301F01D
:1008E0001F0158BF4B425BB222FA03F303F001032E
:1008F000002B14BF01230023DBB2184602B070475F
:1009000000E100E082B001904FF08042019BC2F80C
:10091000043300BF02B0704782B001904FF08042B4
:10092000019BC2F8083300BF02B0704782B0034693
:100930008DF807309DF8073003F1804301221A60DB
:1009400000BF02B0704784B00346ADF80630BDF872
:10095000063003F1804300221A60BDF8063003F12F
:1009600080431B680393039B00BF04B0704782B0B1
:100970000346ADF80630BDF8063003F180431B682E
:10098000002B14BF01230023DBB2184602B07047CE
:1009900082B001904FF08042019BC2F8183500BF31
:1009A00002B0704700B583B006238DF807304FF0D2
:1009B0008040FFF74BFF03461846FFF77DFF0346D5
:1009C00083F00103DBB2002B13D04FF08040FFF720
:1009D0003DFF03461A469DF8073019461046FFF7BB
:1009E0003DFF4FF08040FFF731FF03461846FFF709
:1009F00055FF00BF03B05DF804FB000000B585B0F3
:100A00000190019B002B03D10D49A420FFF7C7FDE6
:100A1000002303930B4B1B79002B02D085230393F8
:100A200008E0084A019B1360064B01221A71054B2E
:100A300000225A71039B184605B05DF804FB00BF05
:100A4000804800003C00002008B5094B1B79002BB2
:100A500003D10849BD20FFF7A2FDFFF7A3FF012046
:100A6000FFF796FF044B01221A7000BF08BD00BFBC
:100A70003C000020804800004400002008B50A4BDC
:100A80001B79002B03D10949EA20FFF788FD4FF4B9
:100A90008270FFF758FF0220FFF734FF0820FFF7AE
:100AA00045FF00BF08BD00BF3C000020804800009B
:100AB00008B54FF48070FFF75AFF0346002B14D09F
:100AC0004FF48070FFF73FFF0120FFF725FF114B28
:100AD0005B7983F00103DBB2002B06D00D4B0122C2
:100AE0005A710C4B1B68002098474FF48270FFF737
:100AF0003EFF0346002B0AD04FF48270FFF723FF1E
:100B00000220FFF709FF034B1B680120984700BF35
:100B100008BD00BF3C00002084B00346ADF806309D
:100B2000BDF8063003F1804300221A60BDF806309C
:100B300003F180431B680393039B00BF04B070471D
:100B400082B00346ADF80630BDF8063003F18043AD
:100B50001B68002B14BF01230023DBB2184602B030
:100B6000704700B585B00346ADF80630BDF80630D5
:100B70001846FFF7E5FF03468DF80F309DF80F305C
:100B8000002B04D0BDF806301846FFF7C5FF9DF8CE
:100B90000F30184605B05DF804FB4FF08043D3F8E2
:100BA000043318467047000000B583B0FFF7F5FF27
:100BB0000190019B03F00403002B12D04FF48470CA
:100BC000FFF7CFFF0346002B0BD0464B1B68002BD3
:100BD00004D145494FF48B70FFF7E1FC414B1B6892
:100BE0009847019B03F02003002B13D04FF48A7029
:100BF000FFF7B7FF0346002B0CD03C4B1B68002BC4
:100C000004D1394940F21F10FFF7C9FC374B1B686C
:100C100000209847019B03F04003002B13D04FF4B2
:100C20008C70FFF79EFF0346002B0CD02F4B1B68E8
:100C3000002B04D12C494FF49370FFF7B0FC2B4BE1
:100C40001B6801209847019B03F08003002B13D001
:100C50004FF48E70FFF785FF0346002B0CD0244B1A
:100C60001B68002B04D1204940F22F10FFF797FC9E
:100C70001F4B1B6800209847019B03F48073002BD7
:100C800013D04FF49070FFF76CFF0346002B0CD08D
:100C9000174B1B68002B04D113494FF49B70FFF7CF
:100CA0007EFC134B1B6801209847019B03F40073E3
:100CB000002B13D04FF49270FFF753FF0346002B25
:100CC0000CD00B4B1B68002B04D1074940F23D10A0
:100CD000FFF765FC064B1B680220984700BF03B076
:100CE0005DF804FB48000020184900004C0000207B
:100CF0005000002008B5FFF757FFFFF7D9FE00BFEF
:100D000008BD000008B5064B1B68002B03D1054940
:100D10005120FFF744FC024B1B68984700BF08BDF9
:100D2000540000206849000000B587B001900023FE
:100D30008DF8163000238DF8153001238DF817300B
:100D40009DF81730022B4DD0022B4DDC002B4DD0DF
:100D5000012B49D1274B1B68184602F035F8034692
:100D6000002B19D0234B1B6802A94FF0FF32184605
:100D700001F060FF0490049B012B03D01E4800F09B
:100D800027FB06E0029B132B03DC00238DF81730B2
:100D90002FE01A4800F01CFB194B1B6803A94FF009
:100DA000FF32184601F046FF0490049B012B02D04D
:100DB000144800F00DFB144800F00AFB9DF80C30BD
:100DC0008DF816309DF80D308DF815309DF81630E1
:100DD000002B0DD09DF81530002B09D002238DF883
:100DE000173005E000BFABE700BFA9E700BFA7E7EA
:100DF00000BFA5E75C000020B8490000F8490000EA
:100E0000600000202C4A0000604A000000B585B058
:100E1000464B019300230093002364224449454834
:100E200000F0EAFD0390039B012B08D00399424890
:100E300000F0CEFA3D4B1B68184600F011FF3F4B07
:100E4000019300230093002364223D493D4800F0B4
:100E5000D3FD0390039B012B08D003993A4800F07F
:100E6000B7FA364B1B68184600F0FAFE374B019371
:100E700000230093002364223549364800F0BCFD6E
:100E80000390039B012B08D00399334800F0A0FA8C
:100E90002E4B1B68184600F0E3FE304B01930023F5
:100EA0000093002364222E492E4800F0A5FD0390F4
:100EB000039B012B08D003992B4800F089FA274B9C
:100EC0001B68184600F0CCFE284B019300230093CA
:100ED000002364222649274800F08EFD0390039BDF
:100EE000012B08D00399244800F072FA1F4B1B68AD
:100EF000184600F0B5FE214B019300230093002318
:100F000064221F491F4800F077FD0390039B012BCB
:100F100008D003991C4800F05BFA184B1B68184670
:100F200000F09EFE00BF05B05DF804FB7C000020D1
:100F3000884A0000290D0000944A0000800000202B
:100F4000BC4A000081100000C84A00008400002054
:100F5000F04A00009D100000FC4A000088000020BC
:100F6000244B0000B9100000304B00008C00002022
:100F7000584B000065100000644B000090000020FA
:100F8000984B0000D5100000A04B000008B50022CF
:100F90000421052001F0A4FC03461E4A1360002230
:100FA0000421012001F09CFC03461B4A136000222F
:100FB0000421052001F094FC0346184A1360002226
:100FC0000421052001F08CFC0346154A1360002221
:100FD0000421052001F084FC0346124A136000221C
:100FE0000421052001F07CFC03460F4A1360002217
:100FF0000421052001F074FC03460C4A1360002212
:101000000421052001F06CFC0346094A136000BF6F
:1010100008BD00BF5C0000206000002064000020CC
:10102000680000206C000020700000207400002088
:101030007800002000B583B0FFF7D4FA0190019B3F
:101040000093009B002B04D0054ABC210098FFF7B9
:101050000BFAFFF7DBFEFFF799FF00F0A3FEFEE7B8
:10106000D04B000000B583B00190044800F0B0F907
:101070004FF47A7000F064FEF7E700BF004C000008
:1010800000B583B00190044800F0A2F94FF47A70E3
:1010900000F056FEF7E700BF244C000000B583B017
:1010A0000190044800F094F94FF47A7000F048FE83
:1010B000F7E700BF3C4C000000B583B00190044846
:1010C00000F086F94FF47A7000F03AFEF7E700BFBF
:1010D000544C000000B583B00190044800F078F94A
:1010E0004FF47A7000F02CFEF7E700BF6C4C000064
:1010F00000B583B01E4B0193019B02221A61019B34
:1011000002225A61019B1B4A9A61019B1A4ADA61C9
:10111000019B40221A62019B00229A62019B0022DD
:101120005A62019B0022DA62019B124A9A64019B77
:10113000124ADA64019B10221A65019B00229A650B
:10114000019B00225A65019B0022DA65019B07334F
:101150000B49184602F0BFFF019B0A49184602F0EE
:10116000BAFF019B20229A7100BF03B05DF804FB17
:10117000940000208C4C00000C0100204C01002049
:10118000984C00009C4C000000B589B0039002917F
:10119000019200230693039BDB680593039B1B6965
:1011A0000493049A059B9A4205D9049A059BD31A85
:1011B000013B079307E0039B9A680499059BCB1AB0
:1011C0001344013B0793039B9A68059BD31A079A24
:1011D000934228BF13460793079A019B934228BF67
:1011E00013460793039B5A68059B1344079A029979
:1011F000184602F014FF069A079B13440693029ABE
:10120000079B13440293019A079BD31A0193059AF3
:10121000079B13440593039B9B68059A9A4201D14F
:1012200000230593039B059ADA60019B002BB5D13F
:10123000069B184609B05DF804FB00B589B0039021
:1012400002910192039BDB680793039B9A68079BBB
:10125000D31A0693069A019B9A420ED9039B5A68A9
:10126000079B1344019A0299184602F0D8FE079A88
:10127000019B1A44039BDA601AE0069B0593039BCB
:101280005A68079B1344059A0299184602F0C7FE54
:10129000019A069BD31A0593039B5868029A069BF2
:1012A0001344059A194602F0BAFE039B059ADA60C8
:1012B00000BF09B05DF804FB86B00190019B1B697B
:1012C0000493019BDB680393049A039B9A4208D81A
:1012D000019B9A68039BD21A049B1344013B05931C
:1012E00004E0049A039BD31A013B0593059B18461F
:1012F00006B0704700B589B0039002910192029B3D
:101300000693039B5A1C13465B001344DB00204AE0
:1013100013440593059B5B69022B29D0022B2ED821
:10132000002B02D0012B13D029E00598FFF7C4FF52
:101330000490049A019B9A4202D20023079321E071
:10134000019B0793019A06990598FFF776FF19E02C
:101350000598FFF7B1FF0490019A049B934228BFC0
:1013600013460793079A06990598FFF766FF09E069
:10137000019A06990598FFF707FF079002E00023FE
:10138000079300BF079B184609B05DF804FB00BF38
:101390009400002000B587B00390029101920B4B9E
:1013A0001B78002B01D1FFF7A3FE0020FFF7B0F858
:1013B000019A02990398FFF79DFF05900020FFF71F
:1013C000BBF8059B184607B05DF804FB94000020AD
:1013D0000FB400B5A3B025AB009301A8009B249ADD
:1013E000802102F00EFE2190219B802B06DD01ABB7
:1013F000802219460020FFF7CDFF08E0219B002B3B
:1014000005DD219A01AB19460020FFF7C3FF219BA0
:10141000184623B05DF804EB04B07047BFF34F8F5C
:1014200000BF064BDB6803F4E0620449044B13433E
:10143000CB60BFF34F8F00BF00BFFDE700ED00E0C2
:101440000400FA0582B0164B1B680193154B1B680C
:101450000093019B082B1FD1009B052B1AD801A2DA
:1014600052F823F07D140000811400008514000060
:10147000891400008D1400009114000001230CE079
:1014800001230AE0012308E0012306E0012304E030
:10149000012302E0012300E00023184602B0704758
:1014A000300100103401001082B0164B1B6801930C
:1014B000154B1B680093019B082B1FD1009B052B2C
:1014C0001AD801A252F823F0E1140000E51400003C
:1014D000E9140000ED140000F1140000F514000000
:1014E00001230CE001230AE0012308E0012306E0C8
:1014F000012304E0012302E0012300E00023184659
:1015000002B07047300100103401001082B0164B59
:101510001B680193154B1B680093019B082B1FD17F
:10152000009B052B1AD801A252F823F045150000A4
:10153000491500004D15000051150000551500001B
:101540005915000001230CE000230AE0002308E005
:10155000002306E0002304E0002302E0002300E073
:101560000023184602B0704730010010340100100B
:1015700082B0164B1B680193154B1B680093019BAF
:10158000082B1FD1009B052B1AD801A252F823F07B
:10159000A9150000AD150000B1150000B51500003B
:1015A000B9150000BD15000001230CE000230AE07E
:1015B000002308E0002306E0002304E0002302E00B
:1015C000002300E00023184602B0704730010010ED
:1015D0003401001082B0164B1B680193154B1B6839
:1015E0000093019B082B1FD1009B052B1AD801A249
:1015F00052F823F00D160000111600001516000019
:10160000191600001D1600002116000001230CE031
:1016100000230AE0002308E0002306E0002304E0A2
:10162000002302E0002300E00023184602B07047C8
:10163000300100103401001082B0164B1B6801937A
:10164000154B1B680093019B082B1FD1009B052B9A
:101650001AD801A252F823F0711600007516000086
:10166000791600007D160000811600008516000026
:1016700001230CE000230AE0002308E0002306E039
:10168000002304E0002302E0002300E000231846CA
:1016900002B07047300100103401001082B0164BC8
:1016A0001B680193154B1B680093019B082B1FD1EE
:1016B000009B052B1AD801A252F823F0D516000082
:1016C000D9160000DD160000E1160000E516000046
:1016D000E916000001230CE001230AE0012308E0E1
:1016E000012306E0012304E0012302E0012300E0DE
:1016F0000023184602B0704730010010340100107A
:1017000082B0164B1B680193154B1B680093019B1D
:10171000082B1FD1009B052B1AD801A252F823F0E9
:10172000391700003D170000411700004517000061
:10173000491700004D17000000230CE000230AE0C9
:10174000002308E0002306E0012304E0012302E077
:10175000012300E00023184602B07047300100105A
:101760003401001008B5FFF7CBFF0346002B07D06C
:101770004FF010234FF08042D3F80832C2F85835AA
:1017800000BF08BD00BF044BD3F80034002BFAD0D3
:1017900000BF00BF704700BF00E0014000B583B04C
:1017A0000190054A019BC2F80435FFF7EBFF00BF2B
:1017B00003B05DF804FB00BF00E00140024B034AA8
:1017C0001A6000BF704700BF000000200090D003E7
:1017D00008B5FFF737FE0346002B0ED04FF08043CD
:1017E0000022C3F80C214FF080430022C3F81021DF
:1017F0004FF080430022C3F83825FFF755FE03461B
:10180000002B76D04FF08053734AD3F80434C2F8DB
:1018100020354FF08053704AD3F80834C2F824358D
:101820004FF080536C4AD3F80C34C2F828354FF08F
:101830008053694AD3F81034C2F82C354FF08053E6
:10184000654AD3F81434C2F830354FF08053624AF9
:10185000D3F81834C2F834354FF080535E4AD3F8C9
:101860001C34C2F840354FF080535B4AD3F8203423
:10187000C2F844354FF08053574AD3F82434C2F8A5
:1018800048354FF08053544AD3F82834C2F84C35C9
:101890004FF08053504AD3F82C34C2F850354FF0F3
:1018A00080534D4AD3F83034C2F854354FF080534A
:1018B000494AD3F83434C2F860354FF08053464A71
:1018C000D3F83834C2F864354FF08053424AD3F825
:1018D0003C34C2F868354FF080533F4AD3F8403467
:1018E000C2F86C354FF080533B4AD3F84434C2F809
:1018F0007035FFF70BFE0346002B02D0374B384AFA
:101900001A60FFF735FE0346002B03D0354BFB2250
:10191000C3F81825FFF75EFE0346002B0AD0324BB2
:101920001B6823F00F02314B1B6803F00F032E4995
:1019300013430B60FFF780FE0346002B03D02C4BB4
:101940004FF400721A60FFF7A9FE0346002B0DD07A
:101950004FF08043D3F8003403F00103002B05D08F
:101960004FF080436FF00102C3F80024214BD3F8FD
:101970008830204A43F47003C2F88830BFF34F8F99
:1019800000BFBFF36F8F00BFFFF7ECFE4FF01023D7
:10199000D3F80032002B05DB4FF01023D3F80432CC
:1019A000002B15DA0120FFF7F9FE4FF01023122269
:1019B000C3F80022FFF7E6FE4FF010231222C3F80F
:1019C0000422FFF7DFFE0020FFF7E8FEFFF726FD09
:1019D000FFF7F4FE00BF08BD00C000408C56004079
:1019E0004881030000F00040E40E0040580200105F
:1019F0004096024000ED00E000B58DB007900691E2
:101A000004931346ADF81630BDF816309B00184607
:101A100002F0FEF80990099B002B0ED0482002F03E
:101A2000F7F80B900B9B002B03D00B9B099A1A63C2
:101A300005E0099802F09CF901E000230B930B9B51
:101A4000002B14D0BDF81620002303930B9B0293A8
:101A50000F9B01930E9B0093049B0699079800F03F
:101A60000FF80B9800F08EF801230A9302E04FF074
:101A7000FF330A930A9B18460DB05DF804FB000083
:101A800000B587B003900291019200930A9B186BF6
:101A9000019B9B001A46A52102F0EAFA0A9B1A6BE9
:101AA000019B03F18043013B9B0013440493049B7F
:101AB00023F007030493049B03F00703002B04D0D7
:101AC0002F4940F26330FEF76AFD0023059312E0D0
:101AD000029A059B134419780A9A059B13443433E0
:101AE0000A461A70029A059B13441B78002B06D0F5
:101AF000059B01330593059B032BE9D900E000BF4B
:101B00000A9B002283F83720089B022B01D902236D
:101B100008930A9B089ADA620A9B089A9A630A9BBE
:101B20000022DA630A9B0433184600F0E4FD0A9BA6
:101B30001833184600F0DFFD0A9B0A9A1A61089BC9
:101B4000C3F103020A9B9A610A9B0A9A5A620A9B92
:101B500000221A640A9B002283F84420009A039909
:101B6000049801F0F7FD02460A9B1A60099B002BBE
:101B700002D0099B0A9A1A6000BF07B05DF804FB07
:101B8000A44C000000B583B0019001F09DFE2D4BE8
:101B90001B6801332B4A13602B4B1B68002B09D1A8
:101BA000294A019B1360274B1B68012B10D100F0C1
:101BB0001DFC0DE0254B1B68002B09D1224B1B6837
:101BC000DA6A019BDB6A9A4202D81F4A019B1360C2
:101BD0001F4B1B6801331E4A1360019BDA6A1D4BC1
:101BE0001B689A4203D9019BDB6A1A4A1360019B66
:101BF000DA6A13469B0013449B00174A1A44019B60
:101C000004331946104600F07EFD01F083FE0F4BB1
:101C10001B68002B11D00C4B1B68DA6A019BDB6A36
:101C20009A420AD20D4B4FF080525A6040BFBFF328
:101C30004F8F00BFBFF36F8F00BF00BF03B05DF8D1
:101C400004FB00BF0C0200205C01002018020020F1
:101C500028020020140200206001002000ED00E0B6
:101C600000B585B0019001F02FFE019B002B02D141
:101C70002A4B1B6800E0019B0393039B0433184627
:101C800000F094FD039B9B6A002B04D0039B183348
:101C9000184600F08BFD224B1B680133204A13606D
:101CA0001E4B1B68039A9A420BD1039B04331946BF
:101CB0001C4800F028FD1C4B1B6801331A4A1360B6
:101CC00009E01A4B1B68013B184A1360039800F0A7
:101CD000F7FB00F005FC01F01DFE154B1B68002B07
:101CE00018D00E4B1B68039A9A4213D1114B1B68F4
:101CF000002B04D0104940F2A540FEF750FC0F4BDA
:101D00004FF080525A6040BFBFF34F8F00BFBFF308
:101D10006F8F00BF00BF05B05DF804FB5C010020C1
:101D200028020020E0010020F40100200C02002025
:101D30001802002034020020A44C000000ED00E056
:101D400000B585B0019000230393019B002B11D0B7
:101D5000114B1B68002B04D0104940F20F50FEF7C6
:101D60001EFC00F063F80021019800F055FC00F023
:101D700067F80390039B002B0AD1094B4FF0805268
:101D80005A6040BFBFF34F8F00BFBFF36F8F00BFDC
:101D900000BF05B05DF804FB34020020A44C000035
:101DA00000ED00E000B585B0194B019300230093CE
:101DB00000233C2217491848FFF71EFE0390039B9F
:101DC000012B02D101F084F90390039B012B12D166
:101DD00040230293029B83F3118800BF0F4B4FF007
:101DE000FF321A600E4B01221A600E4B00221A605D
:101DF00001F0F6FC08E0039BB3F1FF3F04D10A4970
:101E000040F2DC70FEF7CBFB00BF05B05DF804FBD1
:101E100030020020F04C0000B92300002C0200200A
:101E20001802002010020020A44C0000034B1B6885
:101E30000133024A136000BF704700BF3402002024
:101E400000B585B00023039300230293404B1B6829
:101E5000002B04D13F494FF40460FEF7A0FB01F0D2
:101E600033FD3B4B1B68013B394A1360384B1B6801
:101E7000002B65D1384B1B68002B61D02FE0374B0E
:101E8000DB68DB680393039B1833184600F08EFC75
:101E9000039B0433184600F089FC039BDA6A304B3D
:101EA0001B689A4203D9039BDB6A2D4A1360039B8C
:101EB000DA6A13469B0013449B002A4A1A44039B88
:101EC00004331946104600F01EFC039BDA6A264BC9
:101ED0001B68DB6A9A4202D3244B01221A601F4B13
:101EE0001B68002BCBD1039B002B01D000F0F8FA2C
:101EF0001F4B1B680193019B002B10D000F046F88C
:101F00000346002B02D0194B01221A60019B013BB2
:101F10000193019B002BF1D1154B00221A60134B4A
:101F20001B68002B0CD001230293124B4FF0805200
:101F30005A6040BFBFF34F8F00BFBFF36F8F00BF2A
:101F400001F0E8FC029B184605B05DF804FB00BFF9
:101F500034020020A44C00000C020020CC01002020
:101F600014020020600100205C01002020020020FB
:101F70001C02002000ED00E082B0034B1B680193BF
:101F8000019B184602B070471002002000B587B0D0
:101F900000230593464B1B68002B78D1454B1B68EB
:101FA00001330493434A049B1360049B002B1AD112
:101FB000414B1B681B68002B04D0404940F633207E
:101FC000FEF7EDFA3C4B1B6803933D4B1B683A4A06
:101FD00013603B4A039B13603A4B1B680133394A39
:101FE000136000F07DFA384B1B68049A9A4253D371
:101FF000314B1B681B68002B01D1012300E000233B
:10200000002B04D0304B4FF0FF321A6044E02A4BD3
:102010001B68DB68DB680293029B5B680193049A90
:10202000019B9A4203D2284A019B136034E0029B31
:102030000433184600F0BAFB029B9B6A002B04D0C5
:10204000029B1833184600F0B1FB029BDA6A1F4B63
:102050001B689A4203D9029BDB6A1C4A1360029BED
:10206000DA6A13469B0013449B00194A1A44029BE8
:1020700004331946104600F046FB029BDA6A154B02
:102080001B68DB6A9A42B3D301230593B0E7124B76
:102090001B680133104A1360104B1B68002B01D0E2
:1020A00001230593059B184607B05DF804FB00BFAC
:1020B0003402002010020020C4010020A44C0000C3
:1020C000C8010020240200202C020020140200205D
:1020D000600100205C0100201C0200202002002082
:1020E00000B583B0234B1B68002B03D0224B012289
:1020F0001A603BE0204B00221A60204B1B680193C2
:102100000AE0019B002B04D11D494FF43560FEF716
:1021100046FA019B013B01931A49019A13469B0021
:1021200013449B000B441B68002BEAD0019A134612
:102130009B0013449B00134A13440093009B5B686D
:102140005A68009B5A60009B5A68009B08339A4269
:1021500004D1009B5B685A68009B5A60009B5B68D7
:10216000DB68094A1360054A019B136000BF03B096
:102170005DF804FB3402002020020020140200203D
:10218000A44C0000600100205C01002000B583B079
:1021900001900091019B002B04D10A494FF4366055
:1021A000FEF7FDF9084B1B6818331946019800F03B
:1021B000C9FA0121009800F02FFA00BF03B05DF8C2
:1021C00004FB00BFA44C00005C01002000B585B0FA
:1021D000039002910192039B002B04D10C4940F61D
:1021E0008B30FEF7DCF90B4B1B681833194603984C
:1021F00000F089FA019B002B02D04FF0FF330293CD
:102200000199029800F008FA00BF05B05DF804FBE0
:10221000A44C00005C01002000B585B00190019B3A
:10222000DB68DB680293029B002B04D1224940F655
:10223000BB30FEF7B4F9029B1833184600F0B6FA2B
:102240001E4B1B68002B1DD1029B0433184600F067
:10225000ADFA029BDA6A1A4B1B689A4203D9029BB9
:10226000DB6A174A1360029BDA6A13469B00134429
:102270009B00144A1A44029B04331946104600F08E
:1022800042FA05E0029B183319460F4800F03BFA6A
:10229000029BDA6A0D4B1B68DB6A9A4205D901235F
:1022A00003930B4B01221A6001E000230393039B6D
:1022B000184605B05DF804FBA44C00003402002071
:1022C0001402002060010020CC0100205C010020ED
:1022D0002002002082B00190054B1A68019B1A6011
:1022E000044B1A68019B5A6000BF02B0704700BFE0
:1022F000240200201002002000B587B00190009158
:10230000019B002B04D1254940F62640FEF747F9F2
:10231000009B002B04D1214940F62740FEF73FF9EE
:1023200001F0D2FA1E4B1B680493019B5B68049A70
:10233000D31A0393009B1B68B3F1FF3F02D1002324
:10234000059323E0019B1A68164B1B689A4207D03D
:10235000019B5B68049A9A4202D30123059315E01E
:10236000009B1B68039A9A420BD2009B1A68039B3E
:10237000D21A009B1A600198FFF7ACFF0023059367
:1023800004E0009B00221A600123059301F0C2FAC9
:10239000059B184607B05DF804FB00BFA44C000085
:1023A0001002002024020020024B01221A6000BF0C
:1023B000704700BF2002002000B583B0019000F0FC
:1023C00053F8084B1B68012BF9D9074B4FF080528B
:1023D0005A6040BFBFF34F8F00BFBFF36F8F00BF86
:1023E000EDE700BF6001002000ED00E000B583B024
:1023F000002301930CE0019A13469B0013449B00B9
:10240000114A1344184600F05BF9019B0133019314
:10241000019B022BEFD90D4800F052F90C4800F057
:102420004FF90C4800F04CF90B4800F049F90B4803
:1024300000F046F90A4B054A1A600A4B044A1A6032
:1024400000BF03B05DF804FB600100209C01002088
:10245000B0010020CC010020E0010020F8010020A4
:10246000C4010020C801002000B583B019E001F0CC
:102470002BFA104BDB68DB680193019B0433184691
:1024800000F094F90C4B1B68013B0B4A13600B4B9B
:102490001B68013B094A136001F03CFA019800F007
:1024A0000FF8064B1B68002BE1D100BF00BF03B043
:1024B0005DF804FBE00100200C020020F401002084
:1024C00000B583B00190019B1B6B184601F050FCD6
:1024D000019801F04DFC00BF03B05DF804FB000063
:1024E00082B00D4B1B681B68002B01D1012300E05B
:1024F0000023002B04D0094B4FF0FF321A6008E094
:10250000054B1B68DB68DB680193019B5B68034A32
:10251000136000BF02B07047C40100202C020020ED
:1025200082B00A4B1B68002B02D10123019308E003
:10253000074B1B68002B02D10223019301E000230B
:102540000193019B184602B0704700BF180200209B
:102550003402002000B585B00190019B0293002356
:102560000393019B002B4AD0274B1B68029A9A4287
:1025700004D0264940F63B70FEF711F8029BDB6B56
:10258000002B04D1214940F63C70FEF708F8029B6D
:10259000DB6B5A1E029BDA63029BDA6A029B9B6B1F
:1025A0009A422CD0029BDB6B002B28D1029B043378
:1025B000184600F0FBF8029B9A6B029BDA62029BC2
:1025C000DB6AC3F10302029B9A61029BDA6A104B39
:1025D0001B689A4203D9029BDB6A0D4A1360029B77
:1025E000DA6A13469B0013449B000A4A1A44029B72
:1025F00004331946104600F086F801230393039B29
:10260000184605B05DF804FB5C010020A44C0000F6
:10261000140200206001002000B585B001900091F7
:10262000214B1B680393214B1B680433184600F0B1
:10263000BDF8019BB3F1FF3F0AD1009B002B07D0EF
:102640001A4B1B6804331946194800F05CF826E061
:10265000039A019B13440293144B1B68029A5A601D
:10266000029A039B9A4209D2124B1A680F4B1B68BD
:1026700004331946104600F065F810E00E4B1A6856
:102680000A4B1B6804331946104600F05BF80B4BED
:102690001B68029A9A4202D2084A029B136000BF4A
:1026A00005B05DF804FB00BF100200205C010020B3
:1026B000F8010020C8010020C40100202C020020E5
:1026C00082B00190019B03F10802019B5A60019BBB
:1026D0004FF0FF329A60019B03F10802019BDA6020
:1026E000019B03F10802019B1A61019B00221A6001
:1026F00000BF02B0704782B00190019B00221A61B6
:1027000000BF02B0704784B001900091019B5B68EC
:102710000393009B039A5A60039B9A68009B9A60FC
:10272000039B9B68009A5A60039B009A9A60009BE7
:10273000019A1A61019B1B685A1C019B1A6000BF19
:1027400004B0704784B001900091009B1B68029315
:10275000029BB3F1FF3F03D1019B1B6903930CE084
:10276000019B0833039302E0039B5B680393039B85
:102770005B681B68029A9A42F6D2039B5A68009BD8
:102780005A60009B5B68009A9A60009B039A9A606B
:10279000039B009A5A60009B019A1A61019B1B6877
:1027A0005A1C019B1A6000BF04B0704784B00190AE
:1027B000019B1B690393019B5B68019A92689A6075
:1027C000019B9B68019A52685A60039B5B68019A5F
:1027D0009A4203D1019B9A68039B5A60019B002295
:1027E0001A61039B1B685A1E039B1A60039B1B689C
:1027F000184604B0704784B0EFF311830193019B36
:10280000039340230293029B83F3118800BF039B31
:10281000184604B07047000000B585B001900091E3
:10282000019B0393039B002B03D12B49FC20FDF755
:10283000B6FE01F049F8039B1A68039BDB6B039912
:10284000096C01FB03F31A44039B5A60039B0022AB
:102850009A63039B1A68039B9A60039B1A68039B05
:10286000DB6B013B0399096C01FB03F31A44039BE7
:10287000DA60039BFF2283F84420039BFF2283F846
:102880004520009B002B16D1039B1B69002B1CD0FD
:10289000039B10331846FFF7BFFC0346002B14D0F0
:1028A0000E4B4FF080525A6040BFBFF34F8F00BFB6
:1028B000BFF36F8F09E0039B10331846FFF700FF4B
:1028C000039B24331846FFF7FBFE01F023F8012396
:1028D000184605B05DF804FBF84C000000ED00E080
:1028E00000B58BB00590049113468DF80F30059B11
:1028F000002B04D1154940F26D10FDF750FE049BEA
:10290000002B02D10023099304E0059B049A02FBEB
:1029100003F30993099B4833184601F079F90890AD
:10292000089B002B0CD0089B483307939DF80F2081
:10293000089B00931346079A0499059800F008F83D
:10294000089B18460BB05DF804FB00BFF84C000074
:1029500000B585B00390029101928DF80330029B7F
:10296000002B03D1069B069A1A6002E0069B019A8F
:102970001A60069B039ADA63069B029A1A64012185
:102980000698FFF749FF00BF05B05DF804FB0000A3
:1029900000B58BB00390029101920093002309933C
:1029A000039B0893089B002B04D167494FF43770B1
:1029B000FDF7F5FD029B002B08D1089B1B6C002B3B
:1029C00004D0614940F2DD20FDF7E9FD009B022BB8
:1029D00008D1089BDB6B012B04D05B4940F2DE2061
:1029E000FDF7DDFDFFF79CFD0346002B07D1019BA2
:1029F000002B04D0544940F2E120FDF7D0FD00F057
:102A000063FF089B9A6B089BDB6B9A4202D3009B87
:102A1000022B2ED1009A0299089800F0EFF9079046
:102A2000089B5B6A002B12D0089B24331846FFF7E3
:102A3000F3FB0346002B18D0444B4FF080525A60F2
:102A400040BFBFF34F8F00BFBFF36F8F0DE0079BF9
:102A5000002B0AD03D4B4FF080525A6040BFBFF36D
:102A60004F8F00BFBFF36F8F00BF00F053FF0123F4
:102A700065E0019B002B03D100F04CFF00235EE0DA
:102A8000099B002B05D105AB1846FFF723FC01235A
:102A9000099300F03FFFFFF7C9F900F015FF089B0D
:102AA00093F844305BB2B3F1FF3F03D1089B00229F
:102AB00083F84420089B93F845305BB2B3F1FF3FA5
:102AC00003D1089B002283F8452000F023FF01AAD0
:102AD00005AB11461846FFF70FFC0346002B26D125
:102AE000089800F085FA0346002B1AD0089B103393
:102AF000019A11461846FFF749FB089800F00CFAB6
:102B0000FFF79EF90346002B7FF479AF0F4B4FF090
:102B100080525A6040BFBFF34F8F00BFBFF36F8F2B
:102B20000CE0089800F0F8F9FFF78AF967E70898D1
:102B300000F0F2F9FFF784F9002300E05FE71846A0
:102B40000BB05DF804FB00BFF84C000000ED00E0A6
:102B500000B58BB00390029101920093039B089300
:102B6000089B002B04D1324940F2A230FDF717FD3B
:102B7000029B002B08D1089B1B6C002B04D02C4916
:102B800040F2A330FDF70BFD009B022B08D1089B00
:102B9000DB6B012B04D026494FF46970FDF7FFFC75
:102BA00000F0E6FEFFF727FE0790089B9A6B089B54
:102BB000DB6B9A4202D3009B022B2CD1089B93F82B
:102BC00045308DF81B30009A0299089800F016F9EC
:102BD0009DF91B30B3F1FF3F12D1089B5B6A002BBC
:102BE00016D0089B24331846FFF716FB0346002B2C
:102BF0000ED0019B002B0BD0019B01221A6007E035
:102C00009DF81B300133DBB25AB2089B83F8452094
:102C10000123099301E000230993079B0593059B7A
:102C200083F3118800BF099B18460BB05DF804FBC5
:102C3000F84C000000B58BB0039002910192002384
:102C40000993039B0893089B002B04D15C4940F235
:102C5000DF40FDF7A4FC029B002B08D1089B1B6CF6
:102C6000002B04D0564940F2E340FDF798FCFFF7F3
:102C700057FC0346002B07D1019B002B04D0504981
:102C80004FF49D60FDF78BFC00F01EFE089B9B6BD4
:102C90000793079B002B22D00299089800F017F9A0
:102CA000079B5A1E089B9A63089B1B69002B12D036
:102CB000089B10331846FFF7AFFA0346002B0AD0E3
:102CC000404B4FF080525A6040BFBFF34F8F00BF60
:102CD000BFF36F8F00BF00F01DFE01236BE0019B6F
:102CE000002B03D100F016FE002364E0099B002BAB
:102CF00005D105AB1846FFF7EDFA0123099300F063
:102D000009FEFFF793F800F0DFFD089B93F84430CD
:102D10005BB2B3F1FF3F03D1089B002283F844204C
:102D2000089B93F845305BB2B3F1FF3F03D1089B9A
:102D3000002283F8452000F0EDFD01AA05AB114605
:102D40001846FFF7D9FA0346002B25D1089800F062
:102D50003AF90346002B19D0089B2433019A1146F7
:102D60001846FFF713FA089800F0D6F8FFF768F84E
:102D70000346002B88D1134B4FF080525A6040BF5E
:102D8000BFF34F8F00BFBFF36F8F13E0089800F0C1
:102D9000C3F8FFF755F877E7089800F0BDF8FFF79C
:102DA0004FF8089800F00FF90346002B3FF46CAF82
:102DB000002300E068E718460BB05DF804FB00BF95
:102DC000F84C000000ED00E000B585B00190019BDB
:102DD000002B04D1084940F26C70FDF7E0FB00F0D5
:102DE00073FD019B9B6B039300F094FD039B1846BE
:102DF00005B05DF804FB00BFF84C000000B587B0DB
:102E000003900291019200230593039B9B6B049313
:102E1000039B1B6C002B0DD1039B1B68002B4DD11A
:102E2000039B5B681846FFF795FB0590039B002208
:102E30005A6043E0019B002B19D1039B9868039BC8
:102E40001B6C1A46029901F0EAF8039B9A68039BEF
:102E50001B6C1A44039B9A60039B9A68039B5B68F4
:102E60009A422BD3039B1A68039B9A6026E0039B2C
:102E7000D868039B1B6C1A46029901F0D0F8039B9B
:102E8000DA68039B1B6C5B421A44039BDA60039B6A
:102E9000DA68039B1B689A4207D2039B5A68039B1C
:102EA0001B6C5B421A44039BDA60019B022B05D129
:102EB000049B002B02D0049B013B0493049B5A1CEF
:102EC000039B9A63059B184607B05DF804FB00B5A9
:102ED00083B001900091019B1B6C002B18D0019BCB
:102EE000DA68019B1B6C1A44019BDA60019BDA686B
:102EF000019B5B689A4203D3019B1A68019BDA60CD
:102F0000019BD968019B1B6C1A46009801F087F859
:102F100000BF03B05DF804FB00B585B0019000F080
:102F2000D3FC019B93F845308DF80F3013E0019BE3
:102F30005B6A002B14D0019B24331846FFF76CF911
:102F40000346002B01D0FFF72FFA9DF80F30013B0D
:102F5000DBB28DF80F309DF90F30002BE7DC00E07D
:102F600000BF019BFF2283F8452000F0D3FC00F056
:102F7000ABFC019B93F844308DF80E3013E0019BBD
:102F80001B69002B14D0019B10331846FFF744F93E
:102F90000346002B01D0FFF707FA9DF80E30013BE6
:102FA000DBB28DF80E309DF90E30002BE7DC00E02F
:102FB00000BF019BFF2283F8442000F0ABFC00BF60
:102FC00005B05DF804FB00B585B0019000F07CFC15
:102FD000019B9B6B002B02D10123039301E0002393
:102FE000039300F097FC039B184605B05DF804FBC3
:102FF00000B585B0019000F067FC019B9A6B019BC6
:10300000DB6B9A4202D10123039301E00023039377
:1030100000F080FC039B184605B05DF804FB00003F
:1030200084B0019000910023039314E00D4A039BA8
:1030300052F83330002B0BD10A49039B009A41F818
:103040003320084A039BDB001344019A5A6006E0D0
:10305000039B01330393039B012BE7D900BF00BF00
:1030600004B070473802002000B587B00390029189
:103070000192039B059300F027FC059B93F84430D5
:103080005BB2B3F1FF3F03D1059B002283F84420DC
:10309000059B93F845305BB2B3F1FF3F03D1059B2D
:1030A000002283F8452000F035FC059B9B6B002B2C
:1030B00006D1059B2433019A02991846FFF786F83A
:1030C0000598FFF729FF00BF07B05DF804FB00007B
:1030D00000B585B00023039300F080FA0D4B1B6808
:1030E000002B0AD00C4B01930223009300235022A3
:1030F0000A490B48FEF780FC0390039B002B04D188
:1031000008494FF48870FDF74AFA039B184605B04A
:103110005DF804FB780200207C020020444D000092
:103120002D3200004C4D000000B58BB00390029191
:103130000192009300230993039B002B04D11B49A8
:1031400040F28310FDF72BFA194B1B68002B27D098
:10315000029B0593019B0693039B0793029B052B00
:1031600016DCFFF7DDF90346022B08D1104B186877
:1031700005A900230C9AFFF70BFC099010E00C4BFB
:10318000186805A900230022FFF702FC099007E058
:10319000074B186805A90023009AFFF7D9FC09908E
:1031A000099B18460BB05DF804FB00BF4C4D0000B6
:1031B0007802002000B587B003900291194B1B687C
:1031C000DB68DB680593059B04331846FFF7EEFACE
:1031D000059BDB69012B1CD1059B9A69039BD118C8
:1031E000039B029A059800F0BDF80346002B10D00F
:1031F000002300930023039A00210598FFF794FF12
:103200000490049B002B04D1074940F2E510FDF720
:10321000C6F9059B5B6A0598984700BF07B05DF843
:1032200004FB00BF700200204C4D000000B585B0CB
:10323000019002AB184600F057F80390029B194624
:10324000039800F003F800F0CFF8F2E700B585B07E
:1032500001900091FEF7EAFD02AB184600F064F819
:103260000390029B002B32D1009B002B0AD1019AC4
:10327000039B9A4206D8FEF7E3FD03990198FFF7F6
:1032800099FF27E0009B002B08D0144B1B681B689C
:10329000002B0CBF01230023DBB20093104B1868F6
:1032A000019A039BD31A009A1946FFF7DDFEFEF739
:1032B000C7FD0346002B0DD10A4B4FF080525A60D8
:1032C00040BFBFF34F8F00BFBFF36F8F02E0FEF729
:1032D000B7FDFFE700BF05B05DF804FB74020020F6
:1032E0007802002000ED00E084B001900D4B1B68D7
:1032F0001B68002B0CBF01230023DBB21A46019B85
:103300001A60019B1B68002B05D1064B1B68DB680C
:103310001B68039301E000230393039B184604B04A
:10332000704700BF7002002000B585B00190FEF725
:1033300023FE03900A4B1B68039A9A4205D200F0C1
:10334000F1F8019B01221A6002E0019B00221A6041
:10335000034A039B1360039B184605B05DF804FB0A
:103360008002002000B587B0039002910192009383
:1033700000230593039B029A5A60039B039A1A61E8
:10338000029A019B9A4212D8019A009BD21A039B7F
:103390009B699A4202D3012305931BE0104B1A68E4
:1033A000039B043319461046FFF7CCF912E0019A4B
:1033B000009B9A4206D2029A009B9A4202D30123B2
:1033C000059307E0074B1A68039B04331946104620
:1033D000FFF7B8F9059B184607B05DF804FB00BF7E
:1033E000740200207002002000B58DB086E0049BBE
:1033F000002B12DA04AB04330B930B9B002B04D18C
:1034000046494FF43170FDF7CAF80B9B1B680B9AC5
:1034100050680B9A926811469847049B002B6CDB0E
:10342000069B0A930A9B5B69002B04D00A9B04331A
:103430001846FFF7BBF903AB1846FFF775FF099075
:10344000049B092B5AD801A252F823F075340000CE
:103450007534000075340000FD340000C7340000EE
:10346000F33400007534000075340000FD340000B2
:10347000C7340000059A0A9B9B69D118059B099ADD
:103480000A98FFF76FFF0346002B37D00A9B5B6A51
:103490000A9898470A9BDB69012B2FD1059A0A9B52
:1034A0009B691A4400230093002300210A98FFF728
:1034B0003BFE0890089B002B20D1184940F2FE20CB
:1034C000FDF76DF81AE0059A0A9B9A610A9B9B69C1
:1034D000002B04D1114940F21530FDF760F80A9B2A
:1034E0009A69099BD118099B099A0A98FFF73AFF34
:1034F00004E00A9800F03CFC00E000BF084B1B68A9
:1035000004A900221846FFF795FB0346002B7FF421
:103510006EAF00BF00BF0DB05DF804FB4C4D000066
:103520007802002000B589B03FE0294B1B68DB68BA
:103530001B680693264B1B68DB68DB680593059BBD
:1035400004331846FFF732F9059B5B6A05989847E4
:10355000059BDB69012B28D1059B9B69069A1344C7
:103560000493049A069B9A420ED9059B049A5A60CA
:10357000059B059A1A61164B1A68059B0433194678
:103580001046FFF7DFF810E0002300930023069AAF
:1035900000210598FFF7C8FD0390039B002B04D181
:1035A0000C4940F26F30FCF7FAFF094B1B681B68AF
:1035B000002BBAD1064B1B680793074B1B68044AC4
:1035C0001360054A079B136000BF09B05DF804FB58
:1035D000700200204C4D00007402002008B500F07D
:1035E00073F9134B1B68002B1DD11248FFF768F8C5
:1035F0001148FFF765F8114B0E4A1A60104B0E4A3E
:103600001A60002210212020FFF76AF90346084AB9
:103610001360074B1B68002B05D0054B1B6809493D
:103620001846FFF7FDFC00F075F900BF08BD00BFAC
:1036300078020020480200205C0200207002002076
:1036400074020020984D00000648006880F3088846
:1036500062B661B6BFF34F8FBFF36F8F00DF00BF5D
:1036600000BF000000000000074B19680868B0E8C0
:10367000F04F80F30988BFF36F8F4FF0000080F3A5
:103680001188704700BF00005C010020EFF3098043
:10369000BFF36F8F154B1A681EF0100F08BF20ED97
:1036A000108A20E9F04F10604DF8043D4FF04000C3
:1036B00080F31188BFF34F8FBFF36F8FFEF710FDBC
:1036C0004FF0000080F3118808BC19680868B0E862
:1036D000F04F1EF0100F08BFB0EC108A80F309887D
:1036E000BFF36F8F704700BF00BF00005C01002078
:1036F000034BDB681B0A03F007031846704700BF43
:1037000000ED00E082B0034600918DF807309DF98E
:103710000730002B0ADB009BDAB20C499DF9073019
:103720005201D2B20B4483F800230BE0009BDAB2C3
:1037300007499DF8073003F00F03043B5201D2B252
:103740000B441A7600BF02B0704700BF00E100E0F2
:1037500000ED00E084B0039002910192039B043BD2
:103760000393002343F080731A46039B1A60039B64
:10377000043B0393029A039B1A60039B043B03934D
:103780000B4A039B1A60039B143B0393019A039B10
:103790001A60039B043B0393039B6FF002021A60C1
:1037A000039B203B0393039B184604B0704700BF64
:1037B000B537000000B583B0074B1B68B3F1FF3F7E
:1037C00003D006499E20FCF7EAFE40230193019BAB
:1037D00083F3118800BFFEE784020020A04D0000A3
:1037E00000B585B0304B1B68304A934203D0304956
:1037F000B020FCF7D4FE2F4B0393039B1B78DBB266
:103800000293039BFF221A70039B1B78DBB28DF897
:1038100007309DF80730DBB203F00203DAB2264B23
:103820001A70264B07221A600BE0244B1B68013BE1
:10383000224A13609DF80730DBB25B00DBB28DF8E3
:1038400007309DF80730DBB203F08003802BECD00B
:103850001A4B1B6803F00703184A1360029BDAB285
:10386000039B1A700F216FF00100FFF74BFF00F070
:10387000ABF9134B00221A6000F06EF8114B5B6835
:10388000104A43F040435360074B1B69064A43F01C
:1038900010031361FFF7D8FEFFF78CFF00231846D3
:1038A00005B05DF804FB00BF00ED00E041C20F4130
:1038B000A04D000000E400E0880200208C020020FF
:1038C0008402002030EF00E000B583B04023019374
:1038D000019B83F3118800BF0B4B1B6801330A4A1D
:1038E0001360094B1B68012B0AD1084B5B68C3F3BB
:1038F0000803002B04D0064940F21110FCF74FFEDC
:1039000000BF03B05DF804FB8402002000ED00E07E
:10391000A04D000000B583B00D4B1B68002B04D1F7
:103920000C494FF48C70FCF73AFE094B1B68013BC5
:10393000074A1360064B1B68002B05D10023019337
:10394000019B83F3118800BF00BF03B05DF804FB47
:1039500084020020A04D0000044BD3F88830034AB5
:1039600043F47003C2F8883000BF704700ED00E0F8
:1039700000B585B0EFF305830193019B0093BDF87B
:103980000030C3F308039BB20393039B0F2B12D9A0
:10399000114A039B103B134493F800338DF80B300E
:1039A0000E4B1B789DF80B209A4204D20C494FF421
:1039B000A970FCF7F4FDFFF79BFE0246094B1B685C
:1039C0009A4204D906494FF4B170FCF7E8FD00BFF4
:1039D00005B05DF804FB00BF00E100E088020020B4
:1039E000A04D00008C02002082B003468DF8073005
:1039F0009DF90730002B0CDB9DF8073003F01F0208
:103A000005499DF907305B09012000FA02F241F8EF
:103A1000232000BF02B0704700E100E082B00346FF
:103A200000918DF807309DF90730002B0ADB009BD1
:103A3000DAB20C499DF907305201D2B20B4483F837
:103A400000230BE0009BDAB207499DF8073003F032
:103A50000F03043B5201D2B20B441A7600BF02B0EE
:103A6000704700BF00E100E000ED00E084B0EFF33C
:103A700011830193019B039340230293029B83F3E1
:103A8000118800BF039B184604B0704782B00190B4
:103A90000091019B009AC3F8042300BF02B0704755
:103AA00084B001900B46ADF80230BDF80230019AA7
:103AB000134400221A60BDF80230019A13441B68B7
:103AC0000393039B00BF04B0704782B00190019B39
:103AD000D3F80435184602B07047000000B583B033
:103AE00001900091009BB3F5805F04D306494FF429
:103AF000BE70FCF754FD019B009AC3F8082500BF77
:103B000003B05DF804FB00BFFC4D000082B00190E3
:103B10000B468DF803309DF80320019B13441A4691
:103B20000123136000BF02B0704782B00190009182
:103B3000019B009AC3F8442300BF02B07047000005
:103B400000B587B000230593FFF790FF03901C4852
:103B5000FFF7BBFF02904FF480711948FFF7A0FFF9
:103B6000FEF70AFA0246029B9B1A23F07F43049356
:103B7000049B012B0DD9FEF7D3FC0346022B08D082
:103B80000123049305E0FEF701FA0246059B134367
:103B90000593049B5A1E0492002BF4D1059B002B25
:103BA00004D0084B4FF080525A6040BF039B0193F2
:103BB000019B83F3118800BF00BF07B05DF804FBD1
:103BC0000010014000ED00E008B50020FCF768FDA2
:103BD0001F210E48FFF782FF01210C48FFF756FF17
:103BE00008210A48FFF792FF00210848FFF78EFFDF
:103BF00002210648FFF799FF0F211120FFF70EFF62
:103C00001120FFF7F1FE00BF08BD00BF001001400A
:103C100000B587B0019000230393FEF707F94E4BE0
:103C20001B68002B01D100F0F3F84C4B1A68019B84
:103C30001340002B7FD1019B002B16D00822019B43
:103C400013440193019B03F00703002B0DD0019B4C
:103C500023F0070308330193019B03F00703002BB4
:103C600003D03F499620FCF79AFC019B002B62D0C1
:103C70003C4B1B68019A9A425DD83B4B04933A4BEC
:103C80001B68059304E0059B0493059B1B68059343
:103C9000059B5B68019A9A4203D9059B1B68002B20
:103CA000F1D12D4B1B68059A9A4244D0049B1B68A6
:103CB000082213440393059B1A68049B1A60059B12
:103CC0005A68019BD21A08235B009A4218D9059AB8
:103CD000019B13440293029B03F00703002B03D0C4
:103CE0001F49C320FCF75BFC059B5A68019BD21A55
:103CF000029B5A60059B019A5A60029800F0E6F810
:103D0000184B1A68059B5B68D31A164A1360154B4B
:103D10001A68164B1B689A4203D2124B1B68134A4F
:103D20001360059B5A680D4B1B681A43059B5A602C
:103D3000059B00221A60FEF783F8039B03F007033C
:103D4000002B04D0064940F20310FCF728FC039B2B
:103D5000184607B05DF804FB98220020A42200203A
:103D6000204E00009C22002090220020A022002053
:103D700000B585B00190019B0393019B002B3CD0C3
:103D800008235B42039A13440393039B0293029B11
:103D90005A681C4B1B681340002B04D11A4940F28F
:103DA0001710FCF7FCFB029B1B68002B04D0164984
:103DB0004FF48C70FCF7F3FB029B5A68114B1B68A5
:103DC0001340002B19D0029B1B68002B15D1029BBE
:103DD0005A680C4B1B68DB431A40029B5A60FEF783
:103DE00025F8029B5A68094B1B681344074A136065
:103DF000029800F06BF8FEF723F800BF05B05DF8FD
:103E000004FB00BFA4220020204E00009C220020C2
:103E100084B04FF400530293264B0393039B03F0AB
:103E20000703002B0CD0039B07330393039B23F062
:103E300007030393029A039BD31A1E4A1344029367
:103E4000039B01931C4A019B13601B4B00225A6089
:103E5000019B029A134403930822039B9B1A03932A
:103E6000039B23F007030393039B144A1360134B34
:103E70001B6800225A60114B1B6800221A60019BCC
:103E80000093009B039AD21A009B5A600B4B1A684E
:103E9000009B1A60009B5B68094A1360009B5B688B
:103EA000084A1360084B4FF000421A6000BF04B08C
:103EB000704700BF9002002090220020982200202E
:103EC000A02200209C220020A422002084B0019087
:103ED000264B039302E0039B1B680393039B1B6821
:103EE000019A9A42F7D8039B0293039B5B68029A5C
:103EF0001344019A9A4208D1039B5A68019B5B685C
:103F00001A44039B5A60039B0193019B0293019BFC
:103F10005B68029A1A44039B1B689A4218D1039B60
:103F20001A68134B1B689A420DD0019B5A68039B79
:103F30001B685B681A44019B5A60039B1B681A68E4
:103F4000019B1A6008E00A4B1A68019B1A6003E0A3
:103F5000039B1A68019B1A60039A019B9A4202D044
:103F6000039B019A1A6000BF04B0704790220020A2
:103F70009822002010B504460846A2684AB123687A
:103F8000616803F1010C8C4508BF00208B4208D208
:103F9000D054E3682BB121686268914201D2214676
:103FA000984723680133236010BD70B54C1E09D4B7
:103FB0001646C5B229463046FFF7DCFF013CB4F196
:103FC000FF3FF7D170BD10F0100F08D108B510F405
:103FD000007F14BF30202020FFF7E7FF08BD7047A7
:103FE000037853B159B10144034613F8012F12B1BC
:103FF0008B42FAD10B46181A70470346FBE703467B
:10400000F9E710B584B00C461146029000220392E5
:1040100001941A46684600F0B1F804B010BD844619
:1040200040EA010313F0030F18D18446202A0BD372
:104030002DE9F007B1E8F807A0E8F807A2F120029F
:10404000202AF7D2BDE8F007042A07D351F8043B31
:1040500040F8043BA2F10402042AF7D2002A05D05A
:1040600011F8013B00F8013B013AF9D16046704775
:104070008446002A2DD010F0030F04D000F8011B55
:10408000013A26D0F7E7C9B241EA012141EA0141EC
:10409000202A12D3A2F120022DE9F0030B460C4690
:1040A0000D460E460F4688468946A0E8FA03203A98
:1040B000FBD2BDE8F00320320BD0042A05D340F830
:1040C000041B043A05D0042AF9D200F8011B013A76
:1040D000FBD160467047024610F0030F16D111F075
:1040E000030F13D12DE9F0004FF001374FF080336B
:1040F00051F8044BA4EB070525EA04051D4002D145
:1041000042F8044BF4E7A1F10401F0BC11F8013BC3
:1041100002F8013B002BF9D1704700F1010110F0CA
:10412000030F11D010F8012B002A23D010F0030F39
:104130000AD010F8012B002A1CD010F0030F03D076
:1041400010F8012B002A15D02DE970004FF0013234
:104150004FF0803350F8044BA4EB020525EA040528
:104160001D4000D1F6E7A0F1040070BC10F8012B4F
:10417000002AFBD1A0EB0100704700002DE9F04FB1
:1041800089B007460392002303600C4614F8011B14
:10419000002900F0FC82DFF818B5EBE2002507E00B
:1041A0005E2868D145F4805501E045F040051C4685
:1041B000234613F8010B3028F2D81F2837D9A0F175
:1041C0002002102A33D801A151F822F0AB4100009F
:1041D0002F4200002F420000114200002F42000039
:1041E0002F4200002F420000174200002F42000023
:1041F0002F4200002F4200001D4200002F4200000D
:10420000234200002F4200002F42000029420000FC
:1042100045F08005CBE745F40045C8E745F02005AB
:10422000C5E745F01005C2E745F40075BFE72A2849
:1042300021D1039A111D0391D2F800A0BAF1000F09
:10424000BCBFCAF1000A45F010051878A31C2AEA81
:10425000EA7A2E2826D00021742847D07A2845D023
:104260006C2800F0A8804C2800F0AB80682800F093
:10427000B8801C463DE0A0F13002D2B2092A88BFC6
:104280004FF0000AE3D84FF0000A0AEB8A0A3038F0
:1042900000EB4A0A13F8010BA0F13002D2B2092A4E
:1042A000F3D9D4E718782A280AD1039A111D03916B
:1042B0001168587802330029CEDB45F48075CBE7CE
:1042C0000133A0F13002D2B2092A88BF0021F4D80C
:1042D000002101EB8101303800EB410113F8010BA3
:1042E000A0F13002D2B2092AF3D9E4E71C4614F84F
:1042F000010B002800F05782A0F12503DBB2532BFD
:1043000062D8A0F12503532B5ED8DFE813F07600C6
:104310005D005D005D005D005D005D005D005D00B5
:104320005D005D005D005D005D005D005D005D00A5
:104330005D005D005D005D005D005D005D005D0095
:104340005D005D005D005D005D005D005D005D0085
:104350005D005D005D005D005D005D005D005D0075
:104360005D005D005D005D005D005D005D005D0065
:104370005D005D00EC005D005D005D005D005D00C6
:104380005D005D005D005D005D007B0021015D0062
:104390005D005D005D0021015D005D005D005D0070
:1043A00095000F01D2005D005D00A6005D001A01BE
:1043B0005D005D00EE001C4614F8010B45F00105A0
:1043C00097E745F001051C46B54B1E68002E00F02E
:1043D000CE8103AB0193009153462A463946B0473C
:1043E000C5E11878682803D05C1C45F0040580E717
:1043F00045F008059C1C58787BE725213846FFF7D7
:10440000B9FDB4E1039B1A1D03921E780AF1FF3A2D
:104410003A4651462846FFF7D6FD31463846FFF763
:10442000A9FDA94619F0100F00F0A1813A465146A6
:104430002020FFF7BAFD9AE115F0080F06D03A6880
:10444000039B191D03911B681A7090E1039B1A1DB1
:1044500003921B683A681A6089E1039B1A1D039254
:10446000D3F800808F4BB8F1000F08BF984646463E
:1044700025F4007915F4807F16D04046FFF7B0FD93
:104480000546AAEB050A3A4651464846FFF79BFD0A
:10449000002DC7D016F8011B3846FFF76BFDA8EBBF
:1044A0000603EB42F6D1BDE74046FFF736FE054670
:1044B000E7E7039B1A1D03921B6815F0800F0CBFE2
:1044C0000026232645F4807508211A46002B00F0AB
:1044D0002A8105AB4FF0000805F4005CA646604653
:1044E0008C460146D2E045F4005515F0800F1BD0F4
:1044F00043F2780643F25803782818BF1E4615F495
:10450000807F01D025F4007515F4804F32D0039BD5
:104510001A1D03921B6815F0040F1FD01BB2002B4D
:1045200020DA5B422D262DE00026E8E715F0800F0B
:104530000CBF0026302615F4807FE5D025F40075E9
:10454000E2E715F4807F07D025F400750026DBE74D
:1045500045F480450026D7E70026D5E715F0080F7B
:10456000DDD0DBB215F0200F61D115F0400F18BF80
:10457000202607E0039B1A1D03921B6815F0040F09
:1045800050D09BB215F4807F14BF25F40075012133
:104590005838202800F2AF8001A252F820F000BF66
:1045A000CB440000F7460000F7460000F746000045
:1045B000F7460000F7460000F7460000F746000007
:1045C000F7460000F7460000F7460000F7460000F7
:1045D0005B460000F7460000F7460000F746000083
:1045E000F74600005B460000F7460000F746000073
:1045F000F7460000F7460000F7460000334600008B
:10460000CB440000F7460000F7460000F7460000E4
:10461000F74600005B460000F7460000F746000042
:10462000CB44000015F0080FACD0DBB2AAE72B2674
:10463000A8E71A464FF00008002B5ED005A84FF0FF
:10464000000803F00703303300F8013B08F10108CC
:10465000D2081346002AF4D14FE018464FF0000864
:10466000002B4AD04FF0000805F4004E4FF02C0903
:1046700073468E4619462FE002F00F000A4C205C6C
:1046800003F8010B08F10108120906D00029F3D044
:1046900002F00F00054C205CF2E7744661462CE006
:1046A000A82200209C4E00007C4E00008C4E000092
:1046B000CDCCCCCC08AB03EB080CABFB0032D20862
:1046C00002EB8203A0EB430330330CF80C3C08F1FF
:1046D000010809280DD910460029EBD008F0030382
:1046E000032BE7D108AB434403F80C9C08F1010805
:1046F000E0E7714601E04FF00008A1EB080121EA74
:10470000E179AAEB090AAAEB080AFF2E0ED9AAF151
:10471000020AC6F307213846FFF72CFCF1B23846EF
:10472000FFF728FC04E04FF00008E6E7002E3DD13B
:104730003A4651462846FFF746FC3A46494630205D
:10474000FFF733FCB8F1000F0EDD0DF1140908F18D
:10475000FF38C84498F8001046463846FFF70AFC70
:10476000C14508F1FF38F5D115F0100F09D114F843
:10477000011B61B125293FF411AD3846FFF7FAFB63
:10478000F5E73A4651462020FFF70FFCEFE7BB68FC
:104790002BB13A6879688A423CBF00219954386845
:1047A00009B0BDE8F08F4FF0FF30F9E70AF1FF3AAA
:0447B000B4E700BFAB
:1047B400433A5C4E6F726469635C4E4141544F539B
:1047C4005F66775F7372635C6170706C6963617458
:1047D400696F6E5C73646B5C636F6D706F6E656E36
:1047E40074735C6C69627261726965735C75746917
:1047F4006C5C6170705F7574696C5F706C61746619
:104804006F726D2E63000000433A5C4E6F726469F0
:10481400635C4E4141544F535F66775F7372635CD0
:104824006170706C69636174696F6E5C73646B5CF6
:10483400696E746567726174696F6E5C6E726678B6
:104844005C6C65676163795C6E72665F6472765FE7
:10485400636C6F636B2E63002E2E2F73646B2F6952
:104864006E746567726174696F6E2F6E7266782FED
:104874006E7266785F676C75652E6800433A5C4EAD
:104884006F726469635C4E4141544F535F66775F56
:104894007372635C6170706C69636174696F6E5C80
:1048A40073646B5C6D6F64756C65735C6E72667853
:1048B4005C647269766572735C7372635C6E726653
:1048C400785F636C6F636B2E630000002E2E2F7372
:1048D400646B2F696E746567726174696F6E2F6E95
:1048E4007266782F6E7266785F676C75652E6800E5
:1048F4002E2E2F73646B2F6D6F64756C65732F6E22
:104904007266782F68616C2F6E72665F706F776560
:10491400722E6800433A5C4E6F726469635C4E4168
:1049240041544F535F66775F7372635C6170706C60
:1049340069636174696F6E5C73646B5C6D6F6475DD
:104944006C65735C6E7266785C64726976657273AA
:104954005C7372635C6E7266785F706F7765722EDB
:1049640063000000433A5C4E6F726469635C4E41BD
:1049740041544F535F66775F7372635C6170706C10
:1049840069636174696F6E5C73646B5C6D6F64758D
:104994006C65735C6E7266785C647269766572735A
:1049A4005C7372635C7072735C6E7266785F707253
:1049B400732E63004572726F722072656365697647
:1049C400696E6720626174746572792070657263C0
:1049D400656E746167652066726F6D206D61696EC6
:1049E4005F6261747465727944617461517565754F
:1049F400650A0000476F74206261747465727920DF
:104A040070657263656E7461676520696E206D619F
:104A1400696E5F6261747465727944617461517521
:104A24006575650A000000004572726F7220726538
:104A340063656976696E6720737769746368206457
:104A44006174612066726F6D206D61696E5F73774A
:104A54006974636851756575650A0000476F742051
:104A6400737769746368206461746120696E206D72
:104A740061696E5F73776974636851756575650AFA
:104A8400000000004D61696E5461736B000000000A
:104A94004572726F72206372656174696E67206D0E
:104AA40061696E207461736B2E204572726F723A65
:104AB4002025640A00000000486561746572546131
:104AC400736B00004572726F722063726561746962
:104AD4006E6720686561746572207461736B2E2043
:104AE4004572726F723A2025640A00004C6F676742
:104AF40065725461736B00004572726F7220637249
:104B0400656174696E67206C6F6767657220746194
:104B1400736B2E204572726F723A2025640A00006E
:104B240053656E736F72735461736B004572726F69
:104B340072206372656174696E672073656E736F4A
:104B44007273207461736B2E204572726F723A20F7
:104B540025640A00426174746572795461736B0050
:104B64004572726F72206372656174696E67206248
:104B7400617474657279206D616E6167656D656ECF
:104B840074207461736B2E204572726F723A202503
:104B9400640A00005553425461736B004572726F8E
:104BA40072206372656174696E6720757362206D2B
:104BB400616E6167656D656E74207461736B2E2020
:104BC4004572726F723A2025640A0000433A5C4EC3
:104BD4006F726469635C4E4141544F535F66775F03
:104BE4007372635C6170706C69636174696F6E5C2D
:104BF4007372635C6D61696E2E630000496E20748C
:104C040068652062617474657279206D616E616794
:104C1400656D656E74207461736B203A290A000017
:104C2400496E2074686520686561746572207461DA
:104C3400736B203A290A0000496E20746865206C61
:104C44006F67676572207461736B203A290A0000EC
:104C5400496E207468652073656E736F7273207477
:104C640061736B203A290A00496E207468652075C7
:104C74007362206D616E6167656D656E7420746129
:104C8400736B203A290A00005465726D696E616C79
:104C94000000000052545400534547474552000059
:104CA400433A5C4E6F726469635C4E4141544F53A6
:104CB4005F66775F7372635C6170706C6963617463
:104CC400696F6E5C73646B5C65787465726E616C3D
:104CD4005C6672656572746F735C736F757263651D
:104CE4005C7461736B732E630000000049444C458F
:104CF40000000000433A5C4E6F726469635C4E418D
:104D040041544F535F66775F7372635C6170706C7C
:104D140069636174696F6E5C73646B5C65787465F8
:104D2400726E616C5C6672656572746F735C736FCE
:104D3400757263655C71756575652E6300000000AE
:104D4400546D722053766300433A5C4E6F7264690B
:104D5400635C4E4141544F535F66775F7372635C8B
:104D64006170706C69636174696F6E5C73646B5CB1
:104D740065787465726E616C5C6672656572746F79
:104D8400735C736F757263655C74696D6572732EA1
:104D940063000000546D725100000000433A5C4E01
:104DA4006F726469635C4E4141544F535F66775F31
:104DB4007372635C6170706C69636174696F6E5C5B
:104DC40073646B5C65787465726E616C5C66726545
:104DD4006572746F735C706F727461626C655C434E
:104DE4004D5349535C6E726635325C706F72745FFA
:104DF400636D7369732E63002E2E2F73646B2F6D96
:104E04006F64756C65732F6E7266782F68616C2F92
:104E14006E72665F7274632E68000000433A5C4EE3
:104E24006F726469635C4E4141544F535F66775FB0
:104E34007372635C6170706C69636174696F6E5CDA
:104E440073646B5C65787465726E616C5C667265C4
:104E54006572746F735C736F757263655C706F7287
:104E64007461626C655C4D656D4D616E675C68650F
:104E740061705F342E63000030313233343536379D
:104E840038396162636465663031323334353637BC
:104E94003839414243444546286E756C6C290000FC
:044EA4000090D003A7
:040000030000037581
:00000001FF
